{
  "address": "0x6eE51AB6f1dA30D8B833aD234E406Fffc49D6813",
  "abi": [
    {
      "inputs": [
        {
          "internalType": "contract ENS",
          "name": "_ens",
          "type": "address"
        },
        {
          "internalType": "contract INameWrapper",
          "name": "_nameWrapper",
          "type": "address"
        }
      ],
      "stateMutability": "nonpayable",
      "type": "constructor"
    },
    {
      "inputs": [],
      "name": "DiamondWritable__InvalidInitializationParameters",
      "type": "error"
    },
    {
      "inputs": [],
      "name": "DiamondWritable__RemoveTargetNotZeroAddress",
      "type": "error"
    },
    {
      "inputs": [],
      "name": "DiamondWritable__ReplaceTargetIsIdentical",
      "type": "error"
    },
    {
      "inputs": [],
      "name": "DiamondWritable__SelectorAlreadyAdded",
      "type": "error"
    },
    {
      "inputs": [],
      "name": "DiamondWritable__SelectorIsImmutable",
      "type": "error"
    },
    {
      "inputs": [],
      "name": "DiamondWritable__SelectorNotFound",
      "type": "error"
    },
    {
      "inputs": [],
      "name": "DiamondWritable__SelectorNotSpecified",
      "type": "error"
    },
    {
      "inputs": [],
      "name": "DiamondWritable__TargetHasNoCode",
      "type": "error"
    },
    {
      "inputs": [],
      "name": "ERC165Base__InvalidInterfaceId",
      "type": "error"
    },
    {
      "inputs": [],
      "name": "Ownable__NotOwner",
      "type": "error"
    },
    {
      "inputs": [],
      "name": "Ownable__NotOwner",
      "type": "error"
    },
    {
      "inputs": [],
      "name": "Ownable__NotTransitiveOwner",
      "type": "error"
    },
    {
      "inputs": [],
      "name": "Proxy__ImplementationIsNotContract",
      "type": "error"
    },
    {
      "inputs": [],
      "name": "SafeOwnable__NotNomineeOwner",
      "type": "error"
    },
    {
      "inputs": [],
      "name": "Unauthorised",
      "type": "error"
    },
    {
      "anonymous": false,
      "inputs": [
        {
          "indexed": true,
          "internalType": "address",
          "name": "owner",
          "type": "address"
        },
        {
          "indexed": true,
          "internalType": "address",
          "name": "operator",
          "type": "address"
        },
        {
          "indexed": false,
          "internalType": "bool",
          "name": "approved",
          "type": "bool"
        }
      ],
      "name": "ApprovalForAll",
      "type": "event"
    },
    {
      "anonymous": false,
      "inputs": [
        {
          "indexed": false,
          "internalType": "address",
          "name": "owner",
          "type": "address"
        },
        {
          "indexed": true,
          "internalType": "bytes32",
          "name": "node",
          "type": "bytes32"
        },
        {
          "indexed": true,
          "internalType": "address",
          "name": "delegate",
          "type": "address"
        },
        {
          "indexed": true,
          "internalType": "bool",
          "name": "approved",
          "type": "bool"
        }
      ],
      "name": "Approved",
      "type": "event"
    },
    {
      "anonymous": false,
      "inputs": [
        {
          "components": [
            {
              "internalType": "address",
              "name": "target",
              "type": "address"
            },
            {
              "internalType": "enum IDiamondWritableInternal.FacetCutAction",
              "name": "action",
              "type": "uint8"
            },
            {
              "internalType": "bytes4[]",
              "name": "selectors",
              "type": "bytes4[]"
            }
          ],
          "indexed": false,
          "internalType": "struct IDiamondWritableInternal.FacetCut[]",
          "name": "facetCuts",
          "type": "tuple[]"
        },
        {
          "indexed": false,
          "internalType": "address",
          "name": "target",
          "type": "address"
        },
        {
          "indexed": false,
          "internalType": "bytes",
          "name": "data",
          "type": "bytes"
        }
      ],
      "name": "DiamondCut",
      "type": "event"
    },
    {
      "anonymous": false,
      "inputs": [
        {
          "indexed": true,
          "internalType": "address",
          "name": "previousOwner",
          "type": "address"
        },
        {
          "indexed": true,
          "internalType": "address",
          "name": "newOwner",
          "type": "address"
        }
      ],
      "name": "OwnershipTransferred",
      "type": "event"
    },
    {
      "anonymous": false,
      "inputs": [
        {
          "indexed": true,
          "internalType": "address",
          "name": "nameWrapper",
          "type": "address"
        }
      ],
      "name": "SetNameWrapper",
      "type": "event"
    },
    {
      "anonymous": false,
      "inputs": [
        {
          "indexed": true,
          "internalType": "bytes32",
          "name": "node",
          "type": "bytes32"
        },
        {
          "indexed": false,
          "internalType": "uint64",
          "name": "newVersion",
          "type": "uint64"
        }
      ],
      "name": "VersionChanged",
      "type": "event"
    },
    {
      "stateMutability": "payable",
      "type": "fallback"
    },
    {
      "inputs": [],
      "name": "acceptOwnership",
      "outputs": [],
      "stateMutability": "nonpayable",
      "type": "function"
    },
    {
      "inputs": [
        {
          "internalType": "bytes32",
          "name": "node",
          "type": "bytes32"
        },
        {
          "internalType": "address",
          "name": "delegate",
          "type": "address"
        },
        {
          "internalType": "bool",
          "name": "approved",
          "type": "bool"
        }
      ],
      "name": "approve",
      "outputs": [],
      "stateMutability": "nonpayable",
      "type": "function"
    },
    {
      "inputs": [
        {
          "internalType": "bytes32",
          "name": "node",
          "type": "bytes32"
        }
      ],
      "name": "clearRecords",
      "outputs": [],
      "stateMutability": "nonpayable",
      "type": "function"
    },
    {
      "inputs": [
        {
          "components": [
            {
              "internalType": "address",
              "name": "target",
              "type": "address"
            },
            {
              "internalType": "enum IDiamondWritableInternal.FacetCutAction",
              "name": "action",
              "type": "uint8"
            },
            {
              "internalType": "bytes4[]",
              "name": "selectors",
              "type": "bytes4[]"
            }
          ],
          "internalType": "struct IDiamondWritableInternal.FacetCut[]",
          "name": "facetCuts",
          "type": "tuple[]"
        },
        {
          "internalType": "address",
          "name": "target",
          "type": "address"
        },
        {
          "internalType": "bytes",
          "name": "data",
          "type": "bytes"
        }
      ],
      "name": "diamondCut",
      "outputs": [],
      "stateMutability": "nonpayable",
      "type": "function"
    },
    {
      "inputs": [
        {
          "internalType": "bytes4",
          "name": "selector",
          "type": "bytes4"
        }
      ],
      "name": "facetAddress",
      "outputs": [
        {
          "internalType": "address",
          "name": "facet",
          "type": "address"
        }
      ],
      "stateMutability": "view",
      "type": "function"
    },
    {
      "inputs": [],
      "name": "facetAddresses",
      "outputs": [
        {
          "internalType": "address[]",
          "name": "addresses",
          "type": "address[]"
        }
      ],
      "stateMutability": "view",
      "type": "function"
    },
    {
      "inputs": [
        {
          "internalType": "address",
          "name": "facet",
          "type": "address"
        }
      ],
      "name": "facetFunctionSelectors",
      "outputs": [
        {
          "internalType": "bytes4[]",
          "name": "selectors",
          "type": "bytes4[]"
        }
      ],
      "stateMutability": "view",
      "type": "function"
    },
    {
      "inputs": [],
      "name": "facets",
      "outputs": [
        {
          "components": [
            {
              "internalType": "address",
              "name": "target",
              "type": "address"
            },
            {
              "internalType": "bytes4[]",
              "name": "selectors",
              "type": "bytes4[]"
            }
          ],
          "internalType": "struct IDiamondReadable.Facet[]",
          "name": "diamondFacets",
          "type": "tuple[]"
        }
      ],
      "stateMutability": "view",
      "type": "function"
    },
    {
      "inputs": [],
      "name": "getFallbackAddress",
      "outputs": [
        {
          "internalType": "address",
          "name": "fallbackAddress",
          "type": "address"
        }
      ],
      "stateMutability": "view",
      "type": "function"
    },
    {
      "inputs": [
        {
          "internalType": "address",
          "name": "owner",
          "type": "address"
        },
        {
          "internalType": "bytes32",
          "name": "node",
          "type": "bytes32"
        },
        {
          "internalType": "address",
          "name": "delegate",
          "type": "address"
        }
      ],
      "name": "isApprovedFor",
      "outputs": [
        {
          "internalType": "bool",
          "name": "",
          "type": "bool"
        }
      ],
      "stateMutability": "view",
      "type": "function"
    },
    {
      "inputs": [
        {
          "internalType": "address",
          "name": "account",
          "type": "address"
        },
        {
          "internalType": "address",
          "name": "operator",
          "type": "address"
        }
      ],
      "name": "isApprovedForAll",
      "outputs": [
        {
          "internalType": "bool",
          "name": "",
          "type": "bool"
        }
      ],
      "stateMutability": "view",
      "type": "function"
    },
    {
      "inputs": [
        {
          "internalType": "bytes[]",
          "name": "data",
          "type": "bytes[]"
        }
      ],
      "name": "multicall",
      "outputs": [
        {
          "internalType": "bytes[]",
          "name": "results",
          "type": "bytes[]"
        }
      ],
      "stateMutability": "nonpayable",
      "type": "function"
    },
    {
      "inputs": [
        {
          "internalType": "bytes32",
          "name": "nodehash",
          "type": "bytes32"
        },
        {
          "internalType": "bytes[]",
          "name": "data",
          "type": "bytes[]"
        }
      ],
      "name": "multicallWithNodeCheck",
      "outputs": [
        {
          "internalType": "bytes[]",
          "name": "results",
          "type": "bytes[]"
        }
      ],
      "stateMutability": "nonpayable",
      "type": "function"
    },
    {
      "inputs": [],
      "name": "nomineeOwner",
      "outputs": [
        {
          "internalType": "address",
          "name": "",
          "type": "address"
        }
      ],
      "stateMutability": "view",
      "type": "function"
    },
    {
      "inputs": [],
      "name": "owner",
      "outputs": [
        {
          "internalType": "address",
          "name": "",
          "type": "address"
        }
      ],
      "stateMutability": "view",
      "type": "function"
    },
    {
      "inputs": [
        {
          "internalType": "bytes32",
          "name": "node",
          "type": "bytes32"
        }
      ],
      "name": "recordVersions",
      "outputs": [
        {
          "internalType": "uint64",
          "name": "",
          "type": "uint64"
        }
      ],
      "stateMutability": "view",
      "type": "function"
    },
    {
      "inputs": [
        {
          "internalType": "address",
          "name": "operator",
          "type": "address"
        },
        {
          "internalType": "bool",
          "name": "approved",
          "type": "bool"
        }
      ],
      "name": "setApprovalForAll",
      "outputs": [],
      "stateMutability": "nonpayable",
      "type": "function"
    },
    {
      "inputs": [
        {
          "internalType": "address",
          "name": "fallbackAddress",
          "type": "address"
        }
      ],
      "name": "setFallbackAddress",
      "outputs": [],
      "stateMutability": "nonpayable",
      "type": "function"
    },
    {
      "inputs": [
        {
          "internalType": "bytes4[]",
          "name": "interfaceId",
          "type": "bytes4[]"
        },
        {
          "internalType": "bool",
          "name": "status",
          "type": "bool"
        }
      ],
      "name": "setMultiSupportsInterface",
      "outputs": [],
      "stateMutability": "nonpayable",
      "type": "function"
    },
    {
      "inputs": [
        {
          "internalType": "contract INameWrapper",
          "name": "nameWrapper",
          "type": "address"
        }
      ],
      "name": "setNameWrapper",
      "outputs": [],
      "stateMutability": "nonpayable",
      "type": "function"
    },
    {
      "inputs": [
        {
          "internalType": "bytes4",
          "name": "interfaceId",
          "type": "bytes4"
        },
        {
          "internalType": "bool",
          "name": "status",
          "type": "bool"
        }
      ],
      "name": "setSupportsInterface",
      "outputs": [],
      "stateMutability": "nonpayable",
      "type": "function"
    },
    {
      "inputs": [
        {
          "internalType": "bytes4",
          "name": "interfaceID",
          "type": "bytes4"
        }
      ],
      "name": "supportsInterface",
      "outputs": [
        {
          "internalType": "bool",
          "name": "",
          "type": "bool"
        }
      ],
      "stateMutability": "view",
      "type": "function"
    },
    {
      "inputs": [
        {
          "internalType": "bytes4",
          "name": "interfaceID",
          "type": "bytes4"
        }
      ],
      "name": "supportsInterfaceUnoptimized",
      "outputs": [
        {
          "internalType": "bool",
          "name": "result",
          "type": "bool"
        }
      ],
      "stateMutability": "view",
      "type": "function"
    },
    {
      "inputs": [
        {
          "internalType": "address",
          "name": "account",
          "type": "address"
        }
      ],
      "name": "transferOwnership",
      "outputs": [],
      "stateMutability": "nonpayable",
      "type": "function"
    },
    {
      "stateMutability": "payable",
      "type": "receive"
    }
  ],
  "transactionHash": "0xec2a6fdacd30d89971e21267fc38163f2f079ab9b4630a24b3941ce1e096cf23",
  "args": [
    "0x796b0264191273C44e714ba546F6C3fdee76a4cE",
    "0xeA926EB6996235c2b47F95B7BFF3F4058B988E35"
  ],
  "numDeployments": 1,
  "solcInputHash": "78b35c2b1a9f0bafe48cd84ae3cc6b08",
  "bytecode": "0x60806040523480156200001157600080fd5b50604051620045cb380380620045cb83398101604081905262000034916200129f565b60408051600c8082526101a082019092528391339160009160208201610180803683370190505090506000632c40805960e01b82826200007481620012de565b93508151811062000089576200008962001306565b6001600160e01b031990921660209283029190910190910152639142376560e01b8282620000b781620012de565b935081518110620000cc57620000cc62001306565b6001600160e01b031990921660209283029190910190910152620000f9632f40adcf60e21b60016200089b565b6307e4c70760e21b82826200010e81620012de565b93508151811062000123576200012362001306565b6001600160e01b031990921660209283029190910190910152620001506307e4c70760e21b60016200089b565b637a0ed62760e01b82826200016581620012de565b9350815181106200017a576200017a62001306565b6001600160e01b0319909216602092830291909101909101526356fe50af60e11b8282620001a881620012de565b935081518110620001bd57620001bd62001306565b6001600160e01b0319909216602092830291909101909101526314bbdacb60e21b8282620001eb81620012de565b93508151811062000200576200020062001306565b6001600160e01b0319909216602092830291909101909101526366ffd66360e11b82826200022e81620012de565b93508151811062000243576200024362001306565b6001600160e01b031990921660209283029190910190910152620002706348e2b09360e01b60016200089b565b6301ffc9a760e01b82826200028581620012de565b9350815181106200029a576200029a62001306565b6001600160e01b031990921660209283029190910190910152620002c76301ffc9a760e01b60016200089b565b638da5cb5b60e01b8282620002dc81620012de565b935081518110620002f157620002f162001306565b6001600160e01b03199092166020928302919091019091015263455a8a8560e11b82826200031f81620012de565b93508151811062000334576200033462001306565b6001600160e01b03199092166020928302919091019091015263f2fde38b60e01b82826200036281620012de565b93508151811062000377576200037762001306565b6001600160e01b0319909216602092830291909101909101526379ba509760e01b8282620003a581620012de565b935081518110620003ba57620003ba62001306565b6001600160e01b031990921660209283029190910190910152620003e76307f5828d60e41b60016200089b565b604080516001808252818301909252600091816020015b60408051606080820183526000808352602083015291810191909152815260200190600190039081620003fe5790505060408051606081019091523081529091506020810160008152602001848152508160008151811062000464576200046462001306565b602002602001018190525062000492816000604051806020016040528060008152506200090d60201b60201c565b6200049d3362000ae9565b50506040516302571be360e01b81527f91d1777781884d03a6757a803996e38de2a42967fb37eeaca72729271025a9e26004820152600091506001600160a01b038416906302571be390602401602060405180830381865afa15801562000508573d6000803e3d6000fd5b505050506040513d601f19601f820116820180604052508101906200052e919062001332565b604051630f41a04d60e11b81526001600160a01b03848116600483015291925090821690631e83409a906024016020604051808303816000875af11580156200057b573d6000803e3d6000fd5b505050506040513d601f19601f82011682018060405250810190620005a1919062001359565b50505050620005b68262000b5d60201b60201c565b620005c18162000b96565b60408051600780825261010082019092526000916020820160e080368337019050509050600063371412f160e01b8282620005fc81620012de565b93508151811062000611576200061162001306565b6001600160e01b03199092166020928302919091019091015263a22cb46560e01b82826200063f81620012de565b93508151811062000654576200065462001306565b6001600160e01b03199092166020928302919091019091015263e985e9c560e01b82826200068281620012de565b93508151811062000697576200069762001306565b6001600160e01b03199092166020928302919091019091015263a4b91a0160e01b8282620006c581620012de565b935081518110620006da57620006da62001306565b6001600160e01b0319909216602092830291909101909101526354bc259f60e11b82826200070881620012de565b9350815181106200071d576200071d62001306565b6001600160e01b03199092166020928302919091019091015263d700ff3360e01b82826200074b81620012de565b93508151811062000760576200076062001306565b6001600160e01b0319909216602092830291909101909101526306c07aeb60e31b82826200078e81620012de565b935081518110620007a357620007a362001306565b6001600160e01b03199290921660209283029190910190910152604080516001808252818301909252600091816020015b60408051606080820183526000808352602083015291810191909152815260200190600190039081620007d4579050506040805160608101909152308152909150602081016000815260200184815250816000815181106200083a576200083a62001306565b602002602001018190525062000868816000604051806020016040528060008152506200090d60201b60201c565b6200087c633f15457f60e01b60016200089b565b6200089063e103286b60e01b60016200089b565b5050505050620014ec565b6001600160e01b03198083169003620008c75760405163b0a19dd560e01b815260040160405180910390fd5b80620008dd62000bfe60201b620014961760201c565b6001600160e01b03199390931660009081526020939093526040909220805460ff19169215159290921790915550565b60006200092462000c2260201b620014ba1760201c565b600181015490915061ffff811690819060009060071615620009585750600381901c60009081526002840160205260409020545b60005b875181101562000a575760008882815181106200097c576200097c62001306565b60200260200101519050600081602001519050816040015151600003620009b65760405163eb6c3aeb60e01b815260040160405180910390fd5b6000816002811115620009cd57620009cd6200131c565b03620009ec57620009e18786868562000c46565b909550935062000a4c565b600181600281111562000a035762000a036200131c565b0362000a1b5762000a15878362000da5565b62000a4c565b600281600281111562000a325762000a326200131c565b0362000a4c5762000a468786868562000f0b565b90955093505b50506001016200095b565b5082821462000a745760018401805461ffff191661ffff84161790555b600782161562000a9757600382901c600090815260028501602052604090208190555b7f8faa70878671ccd212d20771b795c50af8fd3ff6cf27f4bde57e5d4de0aeb67387878760405162000acc93929190620013c7565b60405180910390a162000ae0868662001137565b50505050505050565b600062000b006200123860201b620014de1760201c565b80546040519192506001600160a01b03808516929116907f8be0079c531659141344cd1fd0a4f28419497f9722a3daafe3b4186f6b6457e090600090a380546001600160a01b0319166001600160a01b0392909216919091179055565b600062000b746200125c60201b620015021760201c565b80546001600160a01b0319166001600160a01b03939093169290921790915550565b600062000bad6200125c60201b620015021760201c565b6001810180546001600160a01b0319166001600160a01b038516908117909155604051919250907f2a3953a00c61e46ecb4a26a52aba9acbbf214c988422bb25322bf64fc5cc15fd90600090a25050565b7ffc606c433378e3a7e0a6a531deac289b66caa1b4aa8554fd4ab2c6f1570f92d890565b7f177481ac65e4292921c69f62d1cc7f57541261e5d61c8175cf4e36a01c9bfc9390565b805160009081906001600160a01b0316301480159062000c86575062000c8483600001516001600160a01b03166200128060201b620005891760201c565b155b1562000ca557604051633ddc5cab60e21b815260040160405180910390fd5b60005b83604001515181101562000d985760008460400151828151811062000cd15762000cd162001306565b6020908102919091018101516001600160e01b031981166000908152918a9052604090912054909150606081901c1562000d1e57604051634923a77160e11b815260040160405180910390fd5b85516001600160e01b0319838116600081815260208d90526040902060609390931b6001600160601b0319168b1790925560058a901b60e090811692831c91831c1999909916179781900362000d8857600389901c600090815260028b0160205260408120989098555b5050506001958601950162000ca8565b5093959294509192505050565b62000dc881600001516001600160a01b03166200128060201b620005891760201c565b62000de657604051633ddc5cab60e21b815260040160405180910390fd5b60005b81604001515181101562000f065760008260400151828151811062000e125762000e1262001306565b6020908102919091018101516001600160e01b03198116600090815291869052604090912054909150606081901c8062000e5f576040516337e25a9760e11b815260040160405180910390fd5b306001600160a01b0382160362000e895760405163e983573160e01b815260040160405180910390fd5b84600001516001600160a01b0316816001600160a01b03160362000ec0576040516330baabf360e11b815260040160405180910390fd5b5083516001600160e01b031992909216600090815260208690526040902060609290921b6001600160601b0319166001600160601b039190911617905560010162000de9565b505050565b805160009081906001600160a01b03161562000f3a57604051633ab3490960e21b815260040160405180910390fd5b600385901c6007861660005b856040015151811015620011235760008660400151828151811062000f6f5762000f6f62001306565b6020908102919091018101516001600160e01b031981166000908152918c9052604090912054909150606081901c62000fbb576040516337e25a9760e11b815260040160405180910390fd5b30606082901c0362000fe05760405163e983573160e01b815260040160405180910390fd5b60008990036200100e57600019909401600081815260028c0160205260409020549850936007935062001016565b600019909301925b600584901b89901b6000806001600160e01b03198084169086161462001069576001600160e01b03198316600090815260208f90526040902080546001600160601b0319166001600160601b0386161790555b50506001600160e01b03198316600090815260208d90526040812055611fff600383901c1660e0600584901b16878214620010ce57600082815260028f016020526040902080546001600160e01b031980841c19909116908516831c179055620010f2565b80836001600160e01b031916901c816001600160e01b031960001b901c198d16179b505b866000036200111157600088815260028f01602052604081208190559b505b50506001909301925062000f46915050565b5060039190911b1796939550929350505050565b8051156001600160a01b038316151462001164576040516326df4ccd60e01b815260040160405180910390fd5b6001600160a01b0382161562001234576001600160a01b0382163014620011c257620011a4826001600160a01b03166200128060201b620005891760201c565b620011c257604051633ddc5cab60e21b815260040160405180910390fd5b6000826001600160a01b031682604051620011de9190620014ce565b600060405180830381855af49150503d80600081146200121b576040519150601f19603f3d011682016040523d82523d6000602084013e62001220565b606091505b505090508062000f06573d6000803e3d6000fd5b5050565b7f8a22373512790c48b83a1fe2efdd2888d4a917bcdc24d0adf63e60f67168046090565b7f8c151f2b073b889ff2e1725375750783c091724f29d93246786f4cca8f047dbe90565b3b151590565b6001600160a01b03811681146200129c57600080fd5b50565b60008060408385031215620012b357600080fd5b8251620012c08162001286565b6020840151909250620012d38162001286565b809150509250929050565b600060018201620012ff57634e487b7160e01b600052601160045260246000fd5b5060010190565b634e487b7160e01b600052603260045260246000fd5b634e487b7160e01b600052602160045260246000fd5b6000602082840312156200134557600080fd5b8151620013528162001286565b9392505050565b6000602082840312156200136c57600080fd5b5051919050565b60005b838110156200139057818101518382015260200162001376565b50506000910152565b60008151808452620013b381602086016020860162001373565b601f01601f19169290920160200192915050565b60006060808301818452808751808352608092508286019150828160051b8701016020808b0160005b848110156200149c57898403607f19018652815180516001600160a01b031685528381015189860190600381106200143857634e487b7160e01b600052602160045260246000fd5b868601526040918201519186018a905281519081905290840190600090898701905b80831015620014865783516001600160e01b03191682529286019260019290920191908601906200145a565b50978501979550505090820190600101620013f0565b50506001600160a01b038a16908801528681036040880152620014c0818962001399565b9a9950505050505050505050565b60008251620014e281846020870162001373565b9190910192915050565b6130cf80620014fc6000396000f3fe60806040526004361061018f5760003560e01c806391423765116100d6578063bdc0c3551161007f578063e32954eb11610059578063e32954eb1461051a578063e985e9c51461053a578063f2fde38b1461055a57610196565b8063bdc0c35514610468578063cdffacc614610488578063d700ff33146104e157610196565b8063a9784b3e116100b0578063a9784b3e146103ee578063ac9650d81461040e578063adfca15e1461043b57610196565b8063914237651461038e578063a22cb465146103ae578063a4b91a01146103ce57610196565b806354e7796f116101385780637a0ed627116101125780637a0ed627146103425780638ab5150a146103645780638da5cb5b1461037957610196565b806354e7796f146102ed578063717dbd4c1461030d57806379ba50971461032d57610196565b80633603d758116101695780633603d7581461028b578063371412f1146102ab57806352ef6b2c146102cb57610196565b806301ffc9a7146102095780631f931c1c1461023e5780632c4080591461025e57610196565b3661019657005b60006101a061057a565b90506001600160a01b0381163b6101e3576040517f87c9fc3400000000000000000000000000000000000000000000000000000000815260040160405180910390fd5b3660008037600080366000845af43d6000803e808015610202573d6000f35b3d6000fd5b005b34801561021557600080fd5b5061022961022436600461269e565b61058f565b60405190151581526020015b60405180910390f35b34801561024a57600080fd5b5061020761025936600461271a565b610605565b34801561026a57600080fd5b5061027361068f565b6040516001600160a01b039091168152602001610235565b34801561029757600080fd5b506102076102a63660046127c9565b6106c2565b3480156102b757600080fd5b506102076102c63660046127e2565b61070f565b3480156102d757600080fd5b506102e0610765565b60405161023591906127ff565b3480156102f957600080fd5b5061020761030836600461285a565b61093b565b34801561031957600080fd5b50610207610328366004612997565b61098f565b34801561033957600080fd5b50610207610a17565b34801561034e57600080fd5b50610357610a73565b6040516102359190612a23565b34801561037057600080fd5b50610273610f22565b34801561038557600080fd5b50610273610f2c565b34801561039a57600080fd5b506102076103a93660046127e2565b610f36565b3480156103ba57600080fd5b506102076103c9366004612aa0565b610fb9565b3480156103da57600080fd5b506102076103e9366004612abe565b610fc3565b3480156103fa57600080fd5b50610229610409366004612b00565b610fd3565b34801561041a57600080fd5b5061042e610429366004612b37565b61102e565b6040516102359190612bc9565b34801561044757600080fd5b5061045b6104563660046127e2565b611043565b6040516102359190612c2b565b34801561047457600080fd5b5061022961048336600461269e565b6111c2565b34801561049457600080fd5b506102736104a336600461269e565b6001600160e01b03191660009081527f177481ac65e4292921c69f62d1cc7f57541261e5d61c8175cf4e36a01c9bfc93602052604090205460601c90565b3480156104ed57600080fd5b506105016104fc3660046127c9565b6113bb565b60405167ffffffffffffffff9091168152602001610235565b34801561052657600080fd5b5061042e610535366004612c3e565b6113f8565b34801561054657600080fd5b50610229610555366004612c8a565b611405565b34801561056657600080fd5b506102076105753660046127e2565b611454565b6000610584611526565b905090565b3b151590565b6001600160e01b0319811660009081527ffc606c433378e3a7e0a6a531deac289b66caa1b4aa8554fd4ab2c6f1570f92d8602052604081205460ff16806105ff57507f4fbf0433000000000000000000000000000000000000000000000000000000006001600160e01b03198316145b92915050565b61060d611599565b6001600160a01b0316336001600160a01b03161461063e57604051632f7a8ee160e01b815260040160405180910390fd5b61068861064b8587612cb8565b8484848080601f0160208091040260200160405190810160405280939291908181526020018383808284376000920191909152506115cc92505050565b5050505050565b60006105847f177481ac65e4292921c69f62d1cc7f57541261e5d61c8175cf4e36a01c9bfc96546001600160a01b031690565b806106cc816117e2565b610702576040517fd7a2ae6a00000000000000000000000000000000000000000000000000000000815260040160405180910390fd5b61070b826118ca565b5050565b7f8a22373512790c48b83a1fe2efdd2888d4a917bcdc24d0adf63e60f671680460546001600160a01b0316331461075957604051632f7a8ee160e01b815260040160405180910390fd5b610762816119a2565b50565b7f177481ac65e4292921c69f62d1cc7f57541261e5d61c8175cf4e36a01c9bfc94546060907f177481ac65e4292921c69f62d1cc7f57541261e5d61c8175cf4e36a01c9bfc939061ffff1667ffffffffffffffff8111156107c8576107c8612891565b6040519080825280602002602001820160405280156107f1578160200160208202803683370190505b50915060008060005b600184015461ffff16821015610933576000818152600285016020526040812054905b600881101561091e578361083081612da1565b600188015490955061ffff168511905061091e57600581901b82901b6001600160e01b0319811660009081526020889052604081205460601c90805b888110156108c1578a818151811061088657610886612dbb565b60200260200101516001600160a01b0316836001600160a01b0316036108af57600191506108c1565b806108b981612da1565b91505061086c565b5080156108d05750505061090c565b818a89815181106108e3576108e3612dbb565b6001600160a01b03909216602092830291909101909101528761090581612da1565b9850505050505b8061091681612da1565b91505061081d565b5050808061092b90612da1565b9150506107fa565b505082525090565b7f8a22373512790c48b83a1fe2efdd2888d4a917bcdc24d0adf63e60f671680460546001600160a01b0316331461098557604051632f7a8ee160e01b815260040160405180910390fd5b61070b8282611a3c565b7f8a22373512790c48b83a1fe2efdd2888d4a917bcdc24d0adf63e60f671680460546001600160a01b031633146109d957604051632f7a8ee160e01b815260040160405180910390fd5b815160005b81811015610a1157610a098482815181106109fb576109fb612dbb565b602002602001015184611a3c565b6001016109de565b50505050565b610a1f611acb565b6001600160a01b0316336001600160a01b031614610a69576040517fefd1052d00000000000000000000000000000000000000000000000000000000815260040160405180910390fd5b610a71611af3565b565b7f177481ac65e4292921c69f62d1cc7f57541261e5d61c8175cf4e36a01c9bfc94546060907f177481ac65e4292921c69f62d1cc7f57541261e5d61c8175cf4e36a01c9bfc939061ffff1667ffffffffffffffff811115610ad657610ad6612891565b604051908082528060200260200182016040528015610b1c57816020015b604080518082019091526000815260606020820152815260200190600190039081610af45790505b50600182015490925060009061ffff1667ffffffffffffffff811115610b4457610b44612891565b604051908082528060200260200182016040528015610b6d578160200160208202803683370190505b50905060008060005b600185015461ffff16821015610eb0576000818152600286016020526040812054905b6008811015610e9b5783610bac81612da1565b600189015490955061ffff1685119050610e9b57600581901b82901b6001600160e01b0319811660009081526020899052604081205460601c90805b88811015610d2f57826001600160a01b03168c8281518110610c0c57610c0c612dbb565b6020026020010151600001516001600160a01b031603610d1d57838c8281518110610c3957610c39612dbb565b6020026020010151602001518b8381518110610c5757610c57612dbb565b602002602001015160ff1681518110610c7257610c72612dbb565b60200260200101907bffffffffffffffffffffffffffffffffffffffffffffffffffffffff191690817bffffffffffffffffffffffffffffffffffffffffffffffffffffffff19168152505060ff8a8281518110610cd257610cd2612dbb565b602002602001015160ff1610610ce757600080fd5b898181518110610cf957610cf9612dbb565b602002602001018051809190610d0e90612dd1565b60ff1690525060019150610d2f565b80610d2781612da1565b915050610be8565b508015610d3e57505050610e89565b818b8981518110610d5157610d51612dbb565b60209081029190910101516001600160a01b03909116905260018a015461ffff1667ffffffffffffffff811115610d8a57610d8a612891565b604051908082528060200260200182016040528015610db3578160200160208202803683370190505b508b8981518110610dc657610dc6612dbb565b602002602001015160200181905250828b8981518110610de857610de8612dbb565b602002602001015160200151600081518110610e0657610e06612dbb565b60200260200101907bffffffffffffffffffffffffffffffffffffffffffffffffffffffff191690817bffffffffffffffffffffffffffffffffffffffffffffffffffffffff1916815250506001898981518110610e6657610e66612dbb565b60ff9092166020928302919091019091015287610e8281612da1565b9850505050505b80610e9381612da1565b915050610b99565b50508080610ea890612da1565b915050610b76565b5060005b82811015610f17576000848281518110610ed057610ed0612dbb565b602002602001015160ff1690506000878381518110610ef157610ef1612dbb565b602002602001015160200151905081815250508080610f0f90612da1565b915050610eb4565b508185525050505090565b6000610584611acb565b6000610584611599565b610f3e611599565b6001600160a01b0316336001600160a01b031614610f6f57604051632f7a8ee160e01b815260040160405180910390fd5b7f177481ac65e4292921c69f62d1cc7f57541261e5d61c8175cf4e36a01c9bfc96805473ffffffffffffffffffffffffffffffffffffffff19166001600160a01b03831617905550565b61070b8282611b3a565b610fce838383611c68565b505050565b6001600160a01b0380841660009081527f8c151f2b073b889ff2e1725375750783c091724f29d93246786f4cca8f047dc160209081526040808320868452825280832093851683529290529081205460ff165b949350505050565b606061103c60008484611d5f565b9392505050565b7f177481ac65e4292921c69f62d1cc7f57541261e5d61c8175cf4e36a01c9bfc94546060907f177481ac65e4292921c69f62d1cc7f57541261e5d61c8175cf4e36a01c9bfc939061ffff1667ffffffffffffffff8111156110a6576110a6612891565b6040519080825280602002602001820160405280156110cf578160200160208202803683370190505b50915060008060005b600184015461ffff168210156111b8576000818152600285016020526040812054905b60088110156111a3578361110e81612da1565b600188015490955061ffff16851190506111a357600581901b82901b6001600160e01b0319811660009081526020889052604090205460601c6001600160a01b038a1603611190578088878151811061116957611169612dbb565b6001600160e01b0319909216602092830291909101909101528561118c81612da1565b9650505b508061119b81612da1565b9150506110fb565b505080806111b090612da1565b9150506110d8565b5050825250919050565b60007f4fbf0433000000000000000000000000000000000000000000000000000000006001600160e01b031983161490506000306001600160a01b03166352ef6b2c6040518163ffffffff1660e01b8152600401600060405180830381865afa158015611233573d6000803e3d6000fd5b505050506040513d6000823e601f3d908101601f1916820160405261125b9190810190612df0565b805190915060005b818110156113b357306001600160a01b031683828151811061128757611287612dbb565b60200260200101516001600160a01b03160315611263576000808483815181106112b3576112b3612dbb565b60200260200101516001600160a01b03166301ffc9a760e01b886040516024016112ed91906001600160e01b031991909116815260200190565b60408051601f198184030181529181526020820180517bffffffffffffffffffffffffffffffffffffffffffffffffffffffff166001600160e01b03199094169390931790925290516113409190612e8a565b600060405180830381855afa9150503d806000811461137b576040519150601f19603f3d011682016040523d82523d6000602084013e611380565b606091505b509150915081156113a95785806113a65750808060200190518101906113a69190612ea6565b95505b5050600101611263565b505050919050565b60008181527f8c151f2b073b889ff2e1725375750783c091724f29d93246786f4cca8f047dc2602052604081205467ffffffffffffffff166105ff565b6060611026848484611d5f565b6001600160a01b0380831660009081527f8c151f2b073b889ff2e1725375750783c091724f29d93246786f4cca8f047dc06020908152604080832093851683529290529081205460ff1661103c565b61145c611599565b6001600160a01b0316336001600160a01b03161461148d57604051632f7a8ee160e01b815260040160405180910390fd5b61076281611f38565b7ffc606c433378e3a7e0a6a531deac289b66caa1b4aa8554fd4ab2c6f1570f92d890565b7f177481ac65e4292921c69f62d1cc7f57541261e5d61c8175cf4e36a01c9bfc9390565b7f8a22373512790c48b83a1fe2efdd2888d4a917bcdc24d0adf63e60f67168046090565b7f8c151f2b073b889ff2e1725375750783c091724f29d93246786f4cca8f047dbe90565b600080356001600160e01b03191681527f177481ac65e4292921c69f62d1cc7f57541261e5d61c8175cf4e36a01c9bfc93602052604090205460601c8061159657507f177481ac65e4292921c69f62d1cc7f57541261e5d61c8175cf4e36a01c9bfc96546001600160a01b031690565b90565b60007f8a22373512790c48b83a1fe2efdd2888d4a917bcdc24d0adf63e60f6716804605b546001600160a01b0316919050565b7f177481ac65e4292921c69f62d1cc7f57541261e5d61c8175cf4e36a01c9bfc94547f177481ac65e4292921c69f62d1cc7f57541261e5d61c8175cf4e36a01c9bfc939061ffff81169081906000906007161561163b5750600381901c60009081526002840160205260409020545b60005b875181101561173957600088828151811061165b5761165b612dbb565b602002602001015190506000816020015190508160400151516000036116ad576040517feb6c3aeb00000000000000000000000000000000000000000000000000000000815260040160405180910390fd5b60008160028111156116c1576116c1612ec3565b036116dc576116d287868685611f86565b909550935061172f565b60018160028111156116f0576116f0612ec3565b03611704576116ff87836120e3565b61172f565b600281600281111561171857611718612ec3565b0361172f5761172987868685612279565b90955093505b505060010161163e565b50828214611772576001840180547fffffffffffffffffffffffffffffffffffffffffffffffffffffffffffff00001661ffff84161790555b600782161561179457600382901c600090815260028501602052604090208190555b7f8faa70878671ccd212d20771b795c50af8fd3ff6cf27f4bde57e5d4de0aeb6738787876040516117c793929190612ed9565b60405180910390a16117d98686612501565b50505050505050565b60408051336024820152604480820184905282518083039091018152606490910182526020810180517bffffffffffffffffffffffffffffffffffffffffffffffffffffffff167f25f367040000000000000000000000000000000000000000000000000000000017905290516000918291829130916118629190612e8a565b600060405180830381855afa9150503d806000811461189d576040519150601f19603f3d011682016040523d82523d6000602084013e6118a2565b606091505b5091509150816118b6575060009392505050565b808060200190518101906110269190612ea6565b60008181527f8c151f2b073b889ff2e1725375750783c091724f29d93246786f4cca8f047dc26020526040812080547f8c151f2b073b889ff2e1725375750783c091724f29d93246786f4cca8f047dbe9267ffffffffffffffff909116919061193283612fb5565b82546101009290920a67ffffffffffffffff81810219909316918316021790915560008481526004840160209081526040918290205491519190921681528492507fc6621ccb8f3f5a04bb6502154b2caf6adf5983fe76dfef1cfc9c42e3579db444910160405180910390a25050565b7f8c151f2b073b889ff2e1725375750783c091724f29d93246786f4cca8f047dbf805473ffffffffffffffffffffffffffffffffffffffff19166001600160a01b0383169081179091556040517f8c151f2b073b889ff2e1725375750783c091724f29d93246786f4cca8f047dbe91907f2a3953a00c61e46ecb4a26a52aba9acbbf214c988422bb25322bf64fc5cc15fd90600090a25050565b6001600160e01b03198083169003611a80576040517fb0a19dd500000000000000000000000000000000000000000000000000000000815260040160405180910390fd5b6001600160e01b03199190911660009081527ffc606c433378e3a7e0a6a531deac289b66caa1b4aa8554fd4ab2c6f1570f92d860205260409020805460ff1916911515919091179055565b60007f24aa1f7b31fd188a8d3ecfb06bc55c806040e59b03bd4396283442fce66178906115bd565b611afc336125fa565b7f24aa1f7b31fd188a8d3ecfb06bc55c806040e59b03bd4396283442fce6617890805473ffffffffffffffffffffffffffffffffffffffff19169055565b6001600160a01b0382163303611bbd5760405162461bcd60e51b815260206004820152602960248201527f455243313135353a2073657474696e6720617070726f76616c2073746174757360448201527f20666f722073656c66000000000000000000000000000000000000000000000060648201526084015b60405180910390fd5b3360008181527f8c151f2b073b889ff2e1725375750783c091724f29d93246786f4cca8f047dc0602090815260408083206001600160a01b03871680855290835292819020805460ff1916861515908117909155815190815290517f8c151f2b073b889ff2e1725375750783c091724f29d93246786f4cca8f047dbe94927f17307eab39ab6107e8899845ad3d59bd9653f200f220920489ca2b5937696c31928290030190a3505050565b6001600160a01b0382163303611cc05760405162461bcd60e51b815260206004820181905260248201527f53657474696e672064656c65676174652073746174757320666f722073656c666044820152606401611bb4565b60007f8c151f2b073b889ff2e1725375750783c091724f29d93246786f4cca8f047dbe336000818152600383016020908152604080832089845282528083206001600160a01b03891680855290835292819020805460ff19168815159081179091559051938452939450909187917ff0ddb3b04746704017f9aa8bd728fcc2c1d11675041205350018915f5e4750a0910160405180910390a450505050565b60608167ffffffffffffffff811115611d7a57611d7a612891565b604051908082528060200260200182016040528015611dad57816020015b6060815260200190600190039081611d985790505b50905060005b82811015611f30578415611e78576000848483818110611dd557611dd5612dbb565b9050602002810190611de79190612fdc565b611df691602491600491613041565b611dff9161306b565b9050858114611e765760405162461bcd60e51b815260206004820152603460248201527f6d756c746963616c6c3a20416c6c207265636f726473206d757374206861766560448201527f2061206d61746368696e67206e616d65686173680000000000000000000000006064820152608401611bb4565b505b60008030868685818110611e8e57611e8e612dbb565b9050602002810190611ea09190612fdc565b604051611eae929190613089565b600060405180830381855af49150503d8060008114611ee9576040519150601f19603f3d011682016040523d82523d6000602084013e611eee565b606091505b509150915081611efd57600080fd5b80848481518110611f1057611f10612dbb565b602002602001018190525050508080611f2890612da1565b915050611db3565b509392505050565b7f24aa1f7b31fd188a8d3ecfb06bc55c806040e59b03bd4396283442fce6617890805473ffffffffffffffffffffffffffffffffffffffff19166001600160a01b0383161790556107628181565b805160009081906001600160a01b03163014801590611fae575082516001600160a01b03163b155b15611fcc57604051633ddc5cab60e21b815260040160405180910390fd5b60005b8360400151518110156120d657600084604001518281518110611ff457611ff4612dbb565b6020908102919091018101516001600160e01b031981166000908152918a9052604090912054909150606081901c15612059576040517f92474ee200000000000000000000000000000000000000000000000000000000815260040160405180910390fd5b85516001600160e01b0319838116600081815260208d90526040902060609390931b6bffffffffffffffffffffffff19168b1790925560058a901b60e090811692831c91831c199990991617978190036120c757600389901c600090815260028b0160205260408120989098555b50505060019586019501611fcf565b5093959294509192505050565b80516001600160a01b03163b61210c57604051633ddc5cab60e21b815260040160405180910390fd5b60005b816040015151811015610fce5760008260400151828151811061213457612134612dbb565b6020908102919091018101516001600160e01b03198116600090815291869052604090912054909150606081901c80612199576040517f6fc4b52e00000000000000000000000000000000000000000000000000000000815260040160405180910390fd5b306001600160a01b038216036121db576040517fe983573100000000000000000000000000000000000000000000000000000000815260040160405180910390fd5b84600001516001600160a01b0316816001600160a01b03160361222a576040517f617557e600000000000000000000000000000000000000000000000000000000815260040160405180910390fd5b5083516001600160e01b031992909216600090815260208690526040902060609290921b6bffffffffffffffffffffffff19166bffffffffffffffffffffffff9190911617905560010161210f565b805160009081906001600160a01b0316156122c0576040517feacd242400000000000000000000000000000000000000000000000000000000815260040160405180910390fd5b600385901c6007861660005b8560400151518110156124ed576000866040015182815181106122f1576122f1612dbb565b6020908102919091018101516001600160e01b031981166000908152918c9052604090912054909150606081901c612355576040517f6fc4b52e00000000000000000000000000000000000000000000000000000000815260040160405180910390fd5b30606082901c03612392576040517fe983573100000000000000000000000000000000000000000000000000000000815260040160405180910390fd5b60008990036123be57600019909401600081815260028c016020526040902054985093600793506123c6565b600019909301925b600584901b89901b6000806001600160e01b031980841690861614612422576001600160e01b03198316600090815260208f90526040902080546bffffffffffffffffffffffff19166bffffffffffffffffffffffff86161790555b50506001600160e01b03198316600090815260208d90526040812055611fff600383901c1660e0600584901b1687821461248557600082815260028f016020526040902080546001600160e01b031980841c19909116908516831c1790556124be565b80837bffffffffffffffffffffffffffffffffffffffffffffffffffffffff1916901c816001600160e01b031960001b901c198d16179b505b866000036124dc57600088815260028f01602052604081208190559b505b5050600190930192506122cc915050565b5060039190911b1796939550929350505050565b8051156001600160a01b0383161514612546576040517f26df4ccd00000000000000000000000000000000000000000000000000000000815260040160405180910390fd5b6001600160a01b0382161561070b576001600160a01b038216301461258d576001600160a01b0382163b61258d57604051633ddc5cab60e21b815260040160405180910390fd5b6000826001600160a01b0316826040516125a79190612e8a565b600060405180830381855af49150503d80600081146125e2576040519150601f19603f3d011682016040523d82523d6000602084013e6125e7565b606091505b5050905080610fce573d6000803e3d6000fd5b7f8a22373512790c48b83a1fe2efdd2888d4a917bcdc24d0adf63e60f67168046080546040516001600160a01b038481169216907f8be0079c531659141344cd1fd0a4f28419497f9722a3daafe3b4186f6b6457e090600090a3805473ffffffffffffffffffffffffffffffffffffffff19166001600160a01b0392909216919091179055565b80356001600160e01b03198116811461269957600080fd5b919050565b6000602082840312156126b057600080fd5b61103c82612681565b60008083601f8401126126cb57600080fd5b50813567ffffffffffffffff8111156126e357600080fd5b6020830191508360208260051b85010111156126fe57600080fd5b9250929050565b6001600160a01b038116811461076257600080fd5b60008060008060006060868803121561273257600080fd5b853567ffffffffffffffff8082111561274a57600080fd5b61275689838a016126b9565b90975095506020880135915061276b82612705565b9093506040870135908082111561278157600080fd5b818801915088601f83011261279557600080fd5b8135818111156127a457600080fd5b8960208285010111156127b657600080fd5b9699959850939650602001949392505050565b6000602082840312156127db57600080fd5b5035919050565b6000602082840312156127f457600080fd5b813561103c81612705565b6020808252825182820181905260009190848201906040850190845b818110156128405783516001600160a01b03168352928401929184019160010161281b565b50909695505050505050565b801515811461076257600080fd5b6000806040838503121561286d57600080fd5b61287683612681565b915060208301356128868161284c565b809150509250929050565b634e487b7160e01b600052604160045260246000fd5b6040516060810167ffffffffffffffff811182821017156128ca576128ca612891565b60405290565b604051601f8201601f1916810167ffffffffffffffff811182821017156128f9576128f9612891565b604052919050565b600067ffffffffffffffff82111561291b5761291b612891565b5060051b60200190565b600082601f83011261293657600080fd5b8135602061294b61294683612901565b6128d0565b82815260059290921b8401810191818101908684111561296a57600080fd5b8286015b8481101561298c5761297f81612681565b835291830191830161296e565b509695505050505050565b600080604083850312156129aa57600080fd5b823567ffffffffffffffff8111156129c157600080fd5b6129cd85828601612925565b92505060208301356128868161284c565b600081518084526020808501945080840160005b83811015612a185781516001600160e01b031916875295820195908201906001016129f2565b509495945050505050565b60006020808301818452808551808352604092508286019150828160051b87010184880160005b83811015612a9257888303603f19018552815180516001600160a01b03168452870151878401879052612a7f878501826129de565b9588019593505090860190600101612a4a565b509098975050505050505050565b60008060408385031215612ab357600080fd5b823561287681612705565b600080600060608486031215612ad357600080fd5b833592506020840135612ae581612705565b91506040840135612af58161284c565b809150509250925092565b600080600060608486031215612b1557600080fd5b8335612b2081612705565b9250602084013591506040840135612af581612705565b60008060208385031215612b4a57600080fd5b823567ffffffffffffffff811115612b6157600080fd5b612b6d858286016126b9565b90969095509350505050565b60005b83811015612b94578181015183820152602001612b7c565b50506000910152565b60008151808452612bb5816020860160208601612b79565b601f01601f19169290920160200192915050565b6000602080830181845280855180835260408601915060408160051b870101925083870160005b82811015612c1e57603f19888603018452612c0c858351612b9d565b94509285019290850190600101612bf0565b5092979650505050505050565b60208152600061103c60208301846129de565b600080600060408486031215612c5357600080fd5b83359250602084013567ffffffffffffffff811115612c7157600080fd5b612c7d868287016126b9565b9497909650939450505050565b60008060408385031215612c9d57600080fd5b8235612ca881612705565b9150602083013561288681612705565b6000612cc661294684612901565b80848252602080830192508560051b850136811115612ce457600080fd5b855b81811015612d7f57803567ffffffffffffffff80821115612d075760008081fd5b818901915060608236031215612d1d5760008081fd5b612d256128a7565b8235612d3081612705565b81528286013560038110612d445760008081fd5b8187015260408381013583811115612d5c5760008081fd5b612d6836828701612925565b918301919091525087525050938201938201612ce6565b50919695505050505050565b634e487b7160e01b600052601160045260246000fd5b60006000198203612db457612db4612d8b565b5060010190565b634e487b7160e01b600052603260045260246000fd5b600060ff821660ff8103612de757612de7612d8b565b60010192915050565b60006020808385031215612e0357600080fd5b825167ffffffffffffffff811115612e1a57600080fd5b8301601f81018513612e2b57600080fd5b8051612e3961294682612901565b81815260059190911b82018301908381019087831115612e5857600080fd5b928401925b82841015612e7f578351612e7081612705565b82529284019290840190612e5d565b979650505050505050565b60008251612e9c818460208701612b79565b9190910192915050565b600060208284031215612eb857600080fd5b815161103c8161284c565b634e487b7160e01b600052602160045260246000fd5b6000606080830181845280875180835260808601915060808160051b87010192506020808a016000805b84811015612f90577fffffffffffffffffffffffffffffffffffffffffffffffffffffffffffffff808a880301865282516001600160a01b0381511688528481015160038110612f6157634e487b7160e01b84526021600452602484fd5b88860152604090810151908801899052612f7d898901826129de565b9750509483019491830191600101612f03565b5050506001600160a01b0389169087015250508381036040850152612e7f8186612b9d565b600067ffffffffffffffff808316818103612fd257612fd2612d8b565b6001019392505050565b60008083357fffffffffffffffffffffffffffffffffffffffffffffffffffffffffffffffe184360301811261301157600080fd5b83018035915067ffffffffffffffff82111561302c57600080fd5b6020019150368190038213156126fe57600080fd5b6000808585111561305157600080fd5b8386111561305e57600080fd5b5050820193919092039150565b803560208310156105ff57600019602084900360031b1b1692915050565b818382376000910190815291905056fea26469706673582212201143414ed6631d39e382c8fef9e7941eceed8647a83f238474ca0b5a228ee74264736f6c63430008110033",
  "devdoc": {
    "kind": "dev",
    "methods": {
      "approve(bytes32,address,bool)": {
        "details": "Approve a delegate to be able to updated records on a node."
      },
      "clearRecords(bytes32)": {
        "params": {
          "node": "The node to update."
        }
      },
      "diamondCut((address,uint8,bytes4[])[],address,bytes)": {
        "params": {
          "data": "optional initialization function call data",
          "facetCuts": "array of structured Diamond facet update data",
          "target": "optional target of initialization delegatecall"
        }
      },
      "facetAddress(bytes4)": {
        "params": {
          "selector": "function selector to query"
        },
        "returns": {
          "facet": "facet address (zero address if not found)"
        }
      },
      "facetAddresses()": {
        "returns": {
          "addresses": "array of facet addresses"
        }
      },
      "facetFunctionSelectors(address)": {
        "params": {
          "facet": "address of facet to query"
        },
        "returns": {
          "selectors": "array of function selectors"
        }
      },
      "facets()": {
        "returns": {
          "diamondFacets": "array of structured facet data"
        }
      },
      "getFallbackAddress()": {
        "returns": {
          "fallbackAddress": "address of fallback implementation"
        }
      },
      "isApprovedFor(address,bytes32,address)": {
        "details": "Check to see if the delegate has been approved by the owner for the node."
      },
      "isApprovedForAll(address,address)": {
        "details": "See {IERC1155-isApprovedForAll}."
      },
      "owner()": {
        "returns": {
          "_0": "contract owner"
        }
      },
      "setApprovalForAll(address,bool)": {
        "details": "See {IERC1155-setApprovalForAll}."
      },
      "setFallbackAddress(address)": {
        "params": {
          "fallbackAddress": "address of fallback implementation"
        }
      },
      "transferOwnership(address)": {
        "params": {
          "account": "address of new owner"
        }
      }
    },
    "version": 1
  },
  "userdoc": {
    "kind": "user",
    "methods": {
      "acceptOwnership()": {
        "notice": "accept transfer of contract ownership"
      },
      "clearRecords(bytes32)": {
        "notice": "Increments the record version associated with an ENS node. May only be called by the owner of that node in the ENS registry."
      },
      "diamondCut((address,uint8,bytes4[])[],address,bytes)": {
        "notice": "update diamond facets and optionally execute arbitrary initialization function"
      },
      "facetAddress(bytes4)": {
        "notice": "get the address of the facet associated with given selector"
      },
      "facetAddresses()": {
        "notice": "get addresses of all facets used by diamond"
      },
      "facetFunctionSelectors(address)": {
        "notice": "get all selectors for given facet address"
      },
      "facets()": {
        "notice": "get all facets and their selectors"
      },
      "getFallbackAddress()": {
        "notice": "query the address of the fallback implementation"
      },
      "nomineeOwner()": {
        "notice": "get the nominated owner who has permission to call acceptOwnership"
      },
      "owner()": {
        "notice": "get the ERC173 contract owner"
      },
      "setFallbackAddress(address)": {
        "notice": "set the address of the fallback implementation"
      },
      "transferOwnership(address)": {
        "notice": "transfer contract ownership to new account"
      }
    },
    "version": 1
  },
  "storageLayout": {
    "storage": [],
    "types": null
  }
}