{
  "address": "0xEFd71395EC103E25fdFe14e4261c8aF660cd4378",
  "abi": [
    {
      "inputs": [
        {
          "internalType": "contract ENS",
          "name": "_ens",
          "type": "address"
        },
        {
          "internalType": "contract INameWrapper",
          "name": "_nameWrapper",
          "type": "address"
        }
      ],
      "stateMutability": "nonpayable",
      "type": "constructor"
    },
    {
      "inputs": [],
      "name": "DiamondWritable__InvalidInitializationParameters",
      "type": "error"
    },
    {
      "inputs": [],
      "name": "DiamondWritable__RemoveTargetNotZeroAddress",
      "type": "error"
    },
    {
      "inputs": [],
      "name": "DiamondWritable__ReplaceTargetIsIdentical",
      "type": "error"
    },
    {
      "inputs": [],
      "name": "DiamondWritable__SelectorAlreadyAdded",
      "type": "error"
    },
    {
      "inputs": [],
      "name": "DiamondWritable__SelectorIsImmutable",
      "type": "error"
    },
    {
      "inputs": [],
      "name": "DiamondWritable__SelectorNotFound",
      "type": "error"
    },
    {
      "inputs": [],
      "name": "DiamondWritable__SelectorNotSpecified",
      "type": "error"
    },
    {
      "inputs": [],
      "name": "DiamondWritable__TargetHasNoCode",
      "type": "error"
    },
    {
      "inputs": [],
      "name": "ERC165Base__InvalidInterfaceId",
      "type": "error"
    },
    {
      "inputs": [],
      "name": "Ownable__NotOwner",
      "type": "error"
    },
    {
      "inputs": [],
      "name": "Ownable__NotOwner",
      "type": "error"
    },
    {
      "inputs": [],
      "name": "Ownable__NotTransitiveOwner",
      "type": "error"
    },
    {
      "inputs": [],
      "name": "Proxy__ImplementationIsNotContract",
      "type": "error"
    },
    {
      "inputs": [],
      "name": "SafeOwnable__NotNomineeOwner",
      "type": "error"
    },
    {
      "anonymous": false,
      "inputs": [
        {
          "indexed": true,
          "internalType": "address",
          "name": "owner",
          "type": "address"
        },
        {
          "indexed": true,
          "internalType": "address",
          "name": "operator",
          "type": "address"
        },
        {
          "indexed": false,
          "internalType": "bool",
          "name": "approved",
          "type": "bool"
        }
      ],
      "name": "ApprovalForAll",
      "type": "event"
    },
    {
      "anonymous": false,
      "inputs": [
        {
          "indexed": false,
          "internalType": "address",
          "name": "owner",
          "type": "address"
        },
        {
          "indexed": true,
          "internalType": "bytes32",
          "name": "node",
          "type": "bytes32"
        },
        {
          "indexed": true,
          "internalType": "address",
          "name": "delegate",
          "type": "address"
        },
        {
          "indexed": true,
          "internalType": "bool",
          "name": "approved",
          "type": "bool"
        }
      ],
      "name": "Approved",
      "type": "event"
    },
    {
      "anonymous": false,
      "inputs": [
        {
          "components": [
            {
              "internalType": "address",
              "name": "target",
              "type": "address"
            },
            {
              "internalType": "enum IDiamondWritableInternal.FacetCutAction",
              "name": "action",
              "type": "uint8"
            },
            {
              "internalType": "bytes4[]",
              "name": "selectors",
              "type": "bytes4[]"
            }
          ],
          "indexed": false,
          "internalType": "struct IDiamondWritableInternal.FacetCut[]",
          "name": "facetCuts",
          "type": "tuple[]"
        },
        {
          "indexed": false,
          "internalType": "address",
          "name": "target",
          "type": "address"
        },
        {
          "indexed": false,
          "internalType": "bytes",
          "name": "data",
          "type": "bytes"
        }
      ],
      "name": "DiamondCut",
      "type": "event"
    },
    {
      "anonymous": false,
      "inputs": [
        {
          "indexed": true,
          "internalType": "address",
          "name": "previousOwner",
          "type": "address"
        },
        {
          "indexed": true,
          "internalType": "address",
          "name": "newOwner",
          "type": "address"
        }
      ],
      "name": "OwnershipTransferred",
      "type": "event"
    },
    {
      "anonymous": false,
      "inputs": [
        {
          "indexed": true,
          "internalType": "address",
          "name": "nameWrapper",
          "type": "address"
        }
      ],
      "name": "SetNameWrapper",
      "type": "event"
    },
    {
      "anonymous": false,
      "inputs": [
        {
          "indexed": true,
          "internalType": "address",
          "name": "operator",
          "type": "address"
        },
        {
          "indexed": false,
          "internalType": "bool",
          "name": "approved",
          "type": "bool"
        }
      ],
      "name": "SetWhitelisted",
      "type": "event"
    },
    {
      "anonymous": false,
      "inputs": [
        {
          "indexed": true,
          "internalType": "bytes32",
          "name": "node",
          "type": "bytes32"
        },
        {
          "indexed": false,
          "internalType": "uint64",
          "name": "newVersion",
          "type": "uint64"
        }
      ],
      "name": "VersionChanged",
      "type": "event"
    },
    {
      "stateMutability": "payable",
      "type": "fallback"
    },
    {
      "inputs": [],
      "name": "acceptOwnership",
      "outputs": [],
      "stateMutability": "nonpayable",
      "type": "function"
    },
    {
      "inputs": [
        {
          "internalType": "bytes32",
          "name": "node",
          "type": "bytes32"
        },
        {
          "internalType": "address",
          "name": "delegate",
          "type": "address"
        },
        {
          "internalType": "bool",
          "name": "approved",
          "type": "bool"
        }
      ],
      "name": "approve",
      "outputs": [],
      "stateMutability": "nonpayable",
      "type": "function"
    },
    {
      "inputs": [
        {
          "internalType": "bytes32",
          "name": "node",
          "type": "bytes32"
        }
      ],
      "name": "clearRecords",
      "outputs": [],
      "stateMutability": "nonpayable",
      "type": "function"
    },
    {
      "inputs": [
        {
          "components": [
            {
              "internalType": "address",
              "name": "target",
              "type": "address"
            },
            {
              "internalType": "enum IDiamondWritableInternal.FacetCutAction",
              "name": "action",
              "type": "uint8"
            },
            {
              "internalType": "bytes4[]",
              "name": "selectors",
              "type": "bytes4[]"
            }
          ],
          "internalType": "struct IDiamondWritableInternal.FacetCut[]",
          "name": "facetCuts",
          "type": "tuple[]"
        },
        {
          "internalType": "address",
          "name": "target",
          "type": "address"
        },
        {
          "internalType": "bytes",
          "name": "data",
          "type": "bytes"
        }
      ],
      "name": "diamondCut",
      "outputs": [],
      "stateMutability": "nonpayable",
      "type": "function"
    },
    {
      "inputs": [
        {
          "internalType": "bytes4",
          "name": "selector",
          "type": "bytes4"
        }
      ],
      "name": "facetAddress",
      "outputs": [
        {
          "internalType": "address",
          "name": "facet",
          "type": "address"
        }
      ],
      "stateMutability": "view",
      "type": "function"
    },
    {
      "inputs": [],
      "name": "facetAddresses",
      "outputs": [
        {
          "internalType": "address[]",
          "name": "addresses",
          "type": "address[]"
        }
      ],
      "stateMutability": "view",
      "type": "function"
    },
    {
      "inputs": [
        {
          "internalType": "address",
          "name": "facet",
          "type": "address"
        }
      ],
      "name": "facetFunctionSelectors",
      "outputs": [
        {
          "internalType": "bytes4[]",
          "name": "selectors",
          "type": "bytes4[]"
        }
      ],
      "stateMutability": "view",
      "type": "function"
    },
    {
      "inputs": [],
      "name": "facets",
      "outputs": [
        {
          "components": [
            {
              "internalType": "address",
              "name": "target",
              "type": "address"
            },
            {
              "internalType": "bytes4[]",
              "name": "selectors",
              "type": "bytes4[]"
            }
          ],
          "internalType": "struct IDiamondReadable.Facet[]",
          "name": "diamondFacets",
          "type": "tuple[]"
        }
      ],
      "stateMutability": "view",
      "type": "function"
    },
    {
      "inputs": [],
      "name": "getFallbackAddress",
      "outputs": [
        {
          "internalType": "address",
          "name": "fallbackAddress",
          "type": "address"
        }
      ],
      "stateMutability": "view",
      "type": "function"
    },
    {
      "inputs": [
        {
          "internalType": "address",
          "name": "owner",
          "type": "address"
        },
        {
          "internalType": "bytes32",
          "name": "node",
          "type": "bytes32"
        },
        {
          "internalType": "address",
          "name": "delegate",
          "type": "address"
        }
      ],
      "name": "isApprovedFor",
      "outputs": [
        {
          "internalType": "bool",
          "name": "",
          "type": "bool"
        }
      ],
      "stateMutability": "view",
      "type": "function"
    },
    {
      "inputs": [
        {
          "internalType": "address",
          "name": "account",
          "type": "address"
        },
        {
          "internalType": "address",
          "name": "operator",
          "type": "address"
        }
      ],
      "name": "isApprovedForAll",
      "outputs": [
        {
          "internalType": "bool",
          "name": "",
          "type": "bool"
        }
      ],
      "stateMutability": "view",
      "type": "function"
    },
    {
      "inputs": [
        {
          "internalType": "bytes[]",
          "name": "data",
          "type": "bytes[]"
        }
      ],
      "name": "multicall",
      "outputs": [
        {
          "internalType": "bytes[]",
          "name": "results",
          "type": "bytes[]"
        }
      ],
      "stateMutability": "nonpayable",
      "type": "function"
    },
    {
      "inputs": [
        {
          "internalType": "bytes32",
          "name": "nodehash",
          "type": "bytes32"
        },
        {
          "internalType": "bytes[]",
          "name": "data",
          "type": "bytes[]"
        }
      ],
      "name": "multicallWithNodeCheck",
      "outputs": [
        {
          "internalType": "bytes[]",
          "name": "results",
          "type": "bytes[]"
        }
      ],
      "stateMutability": "nonpayable",
      "type": "function"
    },
    {
      "inputs": [],
      "name": "nomineeOwner",
      "outputs": [
        {
          "internalType": "address",
          "name": "",
          "type": "address"
        }
      ],
      "stateMutability": "view",
      "type": "function"
    },
    {
      "inputs": [],
      "name": "owner",
      "outputs": [
        {
          "internalType": "address",
          "name": "",
          "type": "address"
        }
      ],
      "stateMutability": "view",
      "type": "function"
    },
    {
      "inputs": [
        {
          "internalType": "bytes32",
          "name": "node",
          "type": "bytes32"
        }
      ],
      "name": "recordVersions",
      "outputs": [
        {
          "internalType": "uint64",
          "name": "",
          "type": "uint64"
        }
      ],
      "stateMutability": "view",
      "type": "function"
    },
    {
      "inputs": [
        {
          "internalType": "address",
          "name": "operator",
          "type": "address"
        },
        {
          "internalType": "bool",
          "name": "approved",
          "type": "bool"
        }
      ],
      "name": "setApprovalForAll",
      "outputs": [],
      "stateMutability": "nonpayable",
      "type": "function"
    },
    {
      "inputs": [
        {
          "internalType": "address",
          "name": "fallbackAddress",
          "type": "address"
        }
      ],
      "name": "setFallbackAddress",
      "outputs": [],
      "stateMutability": "nonpayable",
      "type": "function"
    },
    {
      "inputs": [
        {
          "internalType": "bytes4[]",
          "name": "interfaceId",
          "type": "bytes4[]"
        },
        {
          "internalType": "bool",
          "name": "status",
          "type": "bool"
        }
      ],
      "name": "setMultiSupportsInterface",
      "outputs": [],
      "stateMutability": "nonpayable",
      "type": "function"
    },
    {
      "inputs": [
        {
          "internalType": "contract INameWrapper",
          "name": "nameWrapper",
          "type": "address"
        }
      ],
      "name": "setNameWrapper",
      "outputs": [],
      "stateMutability": "nonpayable",
      "type": "function"
    },
    {
      "inputs": [
        {
          "internalType": "bytes4",
          "name": "interfaceId",
          "type": "bytes4"
        },
        {
          "internalType": "bool",
          "name": "status",
          "type": "bool"
        }
      ],
      "name": "setSupportsInterface",
      "outputs": [],
      "stateMutability": "nonpayable",
      "type": "function"
    },
    {
      "inputs": [
        {
          "internalType": "address",
          "name": "operator",
          "type": "address"
        },
        {
          "internalType": "bool",
          "name": "approved",
          "type": "bool"
        }
      ],
      "name": "setWhitelisted",
      "outputs": [],
      "stateMutability": "nonpayable",
      "type": "function"
    },
    {
      "inputs": [
        {
          "internalType": "bytes4",
          "name": "interfaceID",
          "type": "bytes4"
        }
      ],
      "name": "supportsInterface",
      "outputs": [
        {
          "internalType": "bool",
          "name": "",
          "type": "bool"
        }
      ],
      "stateMutability": "view",
      "type": "function"
    },
    {
      "inputs": [
        {
          "internalType": "bytes4",
          "name": "interfaceID",
          "type": "bytes4"
        }
      ],
      "name": "supportsInterfaceUnoptimized",
      "outputs": [
        {
          "internalType": "bool",
          "name": "result",
          "type": "bool"
        }
      ],
      "stateMutability": "view",
      "type": "function"
    },
    {
      "inputs": [
        {
          "internalType": "address",
          "name": "account",
          "type": "address"
        }
      ],
      "name": "transferOwnership",
      "outputs": [],
      "stateMutability": "nonpayable",
      "type": "function"
    },
    {
      "stateMutability": "payable",
      "type": "receive"
    }
  ],
  "transactionHash": "0x51c3760a6dd424869dae949521b2969e4652f5dd5f0cc1a3db6a056243ac0e83",
  "args": [
    "0x796b0264191273C44e714ba546F6C3fdee76a4cE",
    "0xeA926EB6996235c2b47F95B7BFF3F4058B988E35"
  ],
  "numDeployments": 1,
  "solcInputHash": "91e3d18d867513e07667692692838182",
  "bytecode": "0x60806040523480156200001157600080fd5b506040516200488d3803806200488d8339810160408190526200003491620012e3565b60408051600c8082526101a082019092528391339160009160208201610180803683370190505090506000632c40805960e01b8282620000748162001322565b9350815181106200008957620000896200134a565b6001600160e01b031990921660209283029190910190910152639142376560e01b8282620000b78162001322565b935081518110620000cc57620000cc6200134a565b6001600160e01b031990921660209283029190910190910152620000f9632f40adcf60e21b6001620008df565b6307e4c70760e21b82826200010e8162001322565b9350815181106200012357620001236200134a565b6001600160e01b031990921660209283029190910190910152620001506307e4c70760e21b6001620008df565b637a0ed62760e01b8282620001658162001322565b9350815181106200017a576200017a6200134a565b6001600160e01b0319909216602092830291909101909101526356fe50af60e11b8282620001a88162001322565b935081518110620001bd57620001bd6200134a565b6001600160e01b0319909216602092830291909101909101526314bbdacb60e21b8282620001eb8162001322565b9350815181106200020057620002006200134a565b6001600160e01b0319909216602092830291909101909101526366ffd66360e11b82826200022e8162001322565b9350815181106200024357620002436200134a565b6001600160e01b031990921660209283029190910190910152620002706348e2b09360e01b6001620008df565b6301ffc9a760e01b8282620002858162001322565b9350815181106200029a576200029a6200134a565b6001600160e01b031990921660209283029190910190910152620002c76301ffc9a760e01b6001620008df565b638da5cb5b60e01b8282620002dc8162001322565b935081518110620002f157620002f16200134a565b6001600160e01b03199092166020928302919091019091015263455a8a8560e11b82826200031f8162001322565b9350815181106200033457620003346200134a565b6001600160e01b03199092166020928302919091019091015263f2fde38b60e01b8282620003628162001322565b9350815181106200037757620003776200134a565b6001600160e01b0319909216602092830291909101909101526379ba509760e01b8282620003a58162001322565b935081518110620003ba57620003ba6200134a565b6001600160e01b031990921660209283029190910190910152620003e76307f5828d60e41b6001620008df565b604080516001808252818301909252600091816020015b60408051606080820183526000808352602083015291810191909152815260200190600190039081620003fe579050506040805160608101909152308152909150602081016000815260200184815250816000815181106200046457620004646200134a565b602002602001018190525062000492816000604051806020016040528060008152506200095160201b60201c565b6200049d3362000b2d565b50506040516302571be360e01b81527f91d1777781884d03a6757a803996e38de2a42967fb37eeaca72729271025a9e26004820152600091506001600160a01b038416906302571be390602401602060405180830381865afa15801562000508573d6000803e3d6000fd5b505050506040513d601f19601f820116820180604052508101906200052e919062001376565b604051630f41a04d60e11b81526001600160a01b03848116600483015291925090821690631e83409a906024016020604051808303816000875af11580156200057b573d6000803e3d6000fd5b505050506040513d601f19601f82011682018060405250810190620005a191906200139d565b50505050620005b68262000ba160201b60201c565b620005c18162000bda565b60408051600880825261012082019092526000916020820161010080368337019050509050600063371412f160e01b8282620005fd8162001322565b9350815181106200061257620006126200134a565b6001600160e01b031990921660209283029190910190910152639281aa0b60e01b8282620006408162001322565b9350815181106200065557620006556200134a565b6001600160e01b03199092166020928302919091019091015263a22cb46560e01b8282620006838162001322565b9350815181106200069857620006986200134a565b6001600160e01b03199092166020928302919091019091015263e985e9c560e01b8282620006c68162001322565b935081518110620006db57620006db6200134a565b6001600160e01b03199092166020928302919091019091015263a4b91a0160e01b8282620007098162001322565b9350815181106200071e576200071e6200134a565b6001600160e01b0319909216602092830291909101909101526354bc259f60e11b82826200074c8162001322565b9350815181106200076157620007616200134a565b6001600160e01b03199092166020928302919091019091015263d700ff3360e01b82826200078f8162001322565b935081518110620007a457620007a46200134a565b6001600160e01b0319909216602092830291909101909101526306c07aeb60e31b8282620007d28162001322565b935081518110620007e757620007e76200134a565b6001600160e01b03199290921660209283029190910190910152604080516001808252818301909252600091816020015b6040805160608082018352600080835260208301529181019190915281526020019060019003908162000818579050506040805160608101909152308152909150602081016000815260200184815250816000815181106200087e576200087e6200134a565b6020026020010181905250620008ac816000604051806020016040528060008152506200095160201b60201c565b620008c0633f15457f60e01b6001620008df565b620008d463e103286b60e01b6001620008df565b505050505062001530565b6001600160e01b031980831690036200090b5760405163b0a19dd560e01b815260040160405180910390fd5b806200092162000c4260201b620014e81760201c565b6001600160e01b03199390931660009081526020939093526040909220805460ff19169215159290921790915550565b60006200096862000c6660201b6200150c1760201c565b600181015490915061ffff8116908190600090600716156200099c5750600381901c60009081526002840160205260409020545b60005b875181101562000a9b576000888281518110620009c057620009c06200134a565b60200260200101519050600081602001519050816040015151600003620009fa5760405163eb6c3aeb60e01b815260040160405180910390fd5b600081600281111562000a115762000a1162001360565b0362000a305762000a258786868562000c8a565b909550935062000a90565b600181600281111562000a475762000a4762001360565b0362000a5f5762000a59878362000de9565b62000a90565b600281600281111562000a765762000a7662001360565b0362000a905762000a8a8786868562000f4f565b90955093505b50506001016200099f565b5082821462000ab85760018401805461ffff191661ffff84161790555b600782161562000adb57600382901c600090815260028501602052604090208190555b7f8faa70878671ccd212d20771b795c50af8fd3ff6cf27f4bde57e5d4de0aeb67387878760405162000b10939291906200140b565b60405180910390a162000b2486866200117b565b50505050505050565b600062000b446200127c60201b620015301760201c565b80546040519192506001600160a01b03808516929116907f8be0079c531659141344cd1fd0a4f28419497f9722a3daafe3b4186f6b6457e090600090a380546001600160a01b0319166001600160a01b0392909216919091179055565b600062000bb8620012a060201b620015541760201c565b80546001600160a01b0319166001600160a01b03939093169290921790915550565b600062000bf1620012a060201b620015541760201c565b6001810180546001600160a01b0319166001600160a01b038516908117909155604051919250907f2a3953a00c61e46ecb4a26a52aba9acbbf214c988422bb25322bf64fc5cc15fd90600090a25050565b7ffc606c433378e3a7e0a6a531deac289b66caa1b4aa8554fd4ab2c6f1570f92d890565b7f177481ac65e4292921c69f62d1cc7f57541261e5d61c8175cf4e36a01c9bfc9390565b805160009081906001600160a01b0316301480159062000cca575062000cc883600001516001600160a01b0316620012c460201b620005b41760201c565b155b1562000ce957604051633ddc5cab60e21b815260040160405180910390fd5b60005b83604001515181101562000ddc5760008460400151828151811062000d155762000d156200134a565b6020908102919091018101516001600160e01b031981166000908152918a9052604090912054909150606081901c1562000d6257604051634923a77160e11b815260040160405180910390fd5b85516001600160e01b0319838116600081815260208d90526040902060609390931b6001600160601b0319168b1790925560058a901b60e090811692831c91831c1999909916179781900362000dcc57600389901c600090815260028b0160205260408120989098555b5050506001958601950162000cec565b5093959294509192505050565b62000e0c81600001516001600160a01b0316620012c460201b620005b41760201c565b62000e2a57604051633ddc5cab60e21b815260040160405180910390fd5b60005b81604001515181101562000f4a5760008260400151828151811062000e565762000e566200134a565b6020908102919091018101516001600160e01b03198116600090815291869052604090912054909150606081901c8062000ea3576040516337e25a9760e11b815260040160405180910390fd5b306001600160a01b0382160362000ecd5760405163e983573160e01b815260040160405180910390fd5b84600001516001600160a01b0316816001600160a01b03160362000f04576040516330baabf360e11b815260040160405180910390fd5b5083516001600160e01b031992909216600090815260208690526040902060609290921b6001600160601b0319166001600160601b039190911617905560010162000e2d565b505050565b805160009081906001600160a01b03161562000f7e57604051633ab3490960e21b815260040160405180910390fd5b600385901c6007861660005b856040015151811015620011675760008660400151828151811062000fb35762000fb36200134a565b6020908102919091018101516001600160e01b031981166000908152918c9052604090912054909150606081901c62000fff576040516337e25a9760e11b815260040160405180910390fd5b30606082901c03620010245760405163e983573160e01b815260040160405180910390fd5b60008990036200105257600019909401600081815260028c016020526040902054985093600793506200105a565b600019909301925b600584901b89901b6000806001600160e01b031980841690861614620010ad576001600160e01b03198316600090815260208f90526040902080546001600160601b0319166001600160601b0386161790555b50506001600160e01b03198316600090815260208d90526040812055611fff600383901c1660e0600584901b168782146200111257600082815260028f016020526040902080546001600160e01b031980841c19909116908516831c17905562001136565b80836001600160e01b031916901c816001600160e01b031960001b901c198d16179b505b866000036200115557600088815260028f01602052604081208190559b505b50506001909301925062000f8a915050565b5060039190911b1796939550929350505050565b8051156001600160a01b0383161514620011a8576040516326df4ccd60e01b815260040160405180910390fd5b6001600160a01b0382161562001278576001600160a01b03821630146200120657620011e8826001600160a01b0316620012c460201b620005b41760201c565b6200120657604051633ddc5cab60e21b815260040160405180910390fd5b6000826001600160a01b03168260405162001222919062001512565b600060405180830381855af49150503d80600081146200125f576040519150601f19603f3d011682016040523d82523d6000602084013e62001264565b606091505b505090508062000f4a573d6000803e3d6000fd5b5050565b7f8a22373512790c48b83a1fe2efdd2888d4a917bcdc24d0adf63e60f67168046090565b7f8c151f2b073b889ff2e1725375750783c091724f29d93246786f4cca8f047dbe90565b3b151590565b6001600160a01b0381168114620012e057600080fd5b50565b60008060408385031215620012f757600080fd5b82516200130481620012ca565b60208401519092506200131781620012ca565b809150509250929050565b6000600182016200134357634e487b7160e01b600052601160045260246000fd5b5060010190565b634e487b7160e01b600052603260045260246000fd5b634e487b7160e01b600052602160045260246000fd5b6000602082840312156200138957600080fd5b81516200139681620012ca565b9392505050565b600060208284031215620013b057600080fd5b5051919050565b60005b83811015620013d4578181015183820152602001620013ba565b50506000910152565b60008151808452620013f7816020860160208601620013b7565b601f01601f19169290920160200192915050565b60006060808301818452808751808352608092508286019150828160051b8701016020808b0160005b84811015620014e057898403607f19018652815180516001600160a01b031685528381015189860190600381106200147c57634e487b7160e01b600052602160045260246000fd5b868601526040918201519186018a905281519081905290840190600090898701905b80831015620014ca5783516001600160e01b03191682529286019260019290920191908601906200149e565b5097850197955050509082019060010162001434565b50506001600160a01b038a16908801528681036040880152620015048189620013dd565b9a9950505050505050505050565b6000825162001526818460208701620013b7565b9190910192915050565b61334d80620015406000396000f3fe60806040526004361061019a5760003560e01c806391423765116100e1578063adfca15e1161008a578063d700ff3311610064578063d700ff331461050c578063e32954eb14610545578063e985e9c514610565578063f2fde38b14610585576101a1565b8063adfca15e14610466578063bdc0c35514610493578063cdffacc6146104b3576101a1565b8063a4b91a01116100bb578063a4b91a01146103f9578063a9784b3e14610419578063ac9650d814610439576101a1565b806391423765146103995780639281aa0b146103b9578063a22cb465146103d9576101a1565b806354e7796f116101435780637a0ed6271161011d5780637a0ed6271461034d5780638ab5150a1461036f5780638da5cb5b14610384576101a1565b806354e7796f146102f8578063717dbd4c1461031857806379ba509714610338576101a1565b80633603d758116101745780633603d75814610296578063371412f1146102b657806352ef6b2c146102d6576101a1565b806301ffc9a7146102145780631f931c1c146102495780632c40805914610269576101a1565b366101a157005b60006101ab6105a5565b90506001600160a01b0381163b6101ee576040517f87c9fc3400000000000000000000000000000000000000000000000000000000815260040160405180910390fd5b3660008037600080366000845af43d6000803e80801561020d573d6000f35b3d6000fd5b005b34801561022057600080fd5b5061023461022f3660046128ff565b6105ba565b60405190151581526020015b60405180910390f35b34801561025557600080fd5b5061021261026436600461297b565b610630565b34801561027557600080fd5b5061027e6106ba565b6040516001600160a01b039091168152602001610240565b3480156102a257600080fd5b506102126102b1366004612a2a565b6106ed565b3480156102c257600080fd5b506102126102d1366004612a43565b61070d565b3480156102e257600080fd5b506102eb610763565b6040516102409190612a60565b34801561030457600080fd5b50610212610313366004612abb565b610939565b34801561032457600080fd5b50610212610333366004612bf8565b61098d565b34801561034457600080fd5b50610212610a15565b34801561035957600080fd5b50610362610a71565b6040516102409190612c84565b34801561037b57600080fd5b5061027e610f20565b34801561039057600080fd5b5061027e610f2a565b3480156103a557600080fd5b506102126103b4366004612a43565b610f34565b3480156103c557600080fd5b506102126103d4366004612d01565b610fb7565b3480156103e557600080fd5b506102126103f4366004612d01565b61100b565b34801561040557600080fd5b50610212610414366004612d1f565b611015565b34801561042557600080fd5b50610234610434366004612d61565b611025565b34801561044557600080fd5b50610459610454366004612d98565b611080565b6040516102409190612e2a565b34801561047257600080fd5b50610486610481366004612a43565b611095565b6040516102409190612e8c565b34801561049f57600080fd5b506102346104ae3660046128ff565b611214565b3480156104bf57600080fd5b5061027e6104ce3660046128ff565b6001600160e01b03191660009081527f177481ac65e4292921c69f62d1cc7f57541261e5d61c8175cf4e36a01c9bfc93602052604090205460601c90565b34801561051857600080fd5b5061052c610527366004612a2a565b61140d565b60405167ffffffffffffffff9091168152602001610240565b34801561055157600080fd5b50610459610560366004612e9f565b61144a565b34801561057157600080fd5b50610234610580366004612eeb565b611457565b34801561059157600080fd5b506102126105a0366004612a43565b6114a6565b60006105af611578565b905090565b3b151590565b6001600160e01b0319811660009081527ffc606c433378e3a7e0a6a531deac289b66caa1b4aa8554fd4ab2c6f1570f92d8602052604081205460ff168061062a57507f4fbf0433000000000000000000000000000000000000000000000000000000006001600160e01b03198316145b92915050565b6106386115eb565b6001600160a01b0316336001600160a01b03161461066957604051632f7a8ee160e01b815260040160405180910390fd5b6106b36106768587612f19565b8484848080601f01602080910402602001604051908101604052809392919081815260200183838082843760009201919091525061161e92505050565b5050505050565b60006105af7f177481ac65e4292921c69f62d1cc7f57541261e5d61c8175cf4e36a01c9bfc96546001600160a01b031690565b806106f781611834565b61070057600080fd5b61070982611882565b5050565b7f8a22373512790c48b83a1fe2efdd2888d4a917bcdc24d0adf63e60f671680460546001600160a01b0316331461075757604051632f7a8ee160e01b815260040160405180910390fd5b6107608161195a565b50565b7f177481ac65e4292921c69f62d1cc7f57541261e5d61c8175cf4e36a01c9bfc94546060907f177481ac65e4292921c69f62d1cc7f57541261e5d61c8175cf4e36a01c9bfc939061ffff1667ffffffffffffffff8111156107c6576107c6612af2565b6040519080825280602002602001820160405280156107ef578160200160208202803683370190505b50915060008060005b600184015461ffff16821015610931576000818152600285016020526040812054905b600881101561091c578361082e81613002565b600188015490955061ffff168511905061091c57600581901b82901b6001600160e01b0319811660009081526020889052604081205460601c90805b888110156108bf578a81815181106108845761088461301c565b60200260200101516001600160a01b0316836001600160a01b0316036108ad57600191506108bf565b806108b781613002565b91505061086a565b5080156108ce5750505061090a565b818a89815181106108e1576108e161301c565b6001600160a01b03909216602092830291909101909101528761090381613002565b9850505050505b8061091481613002565b91505061081b565b5050808061092990613002565b9150506107f8565b505082525090565b7f8a22373512790c48b83a1fe2efdd2888d4a917bcdc24d0adf63e60f671680460546001600160a01b0316331461098357604051632f7a8ee160e01b815260040160405180910390fd5b61070982826119f4565b7f8a22373512790c48b83a1fe2efdd2888d4a917bcdc24d0adf63e60f671680460546001600160a01b031633146109d757604051632f7a8ee160e01b815260040160405180910390fd5b815160005b81811015610a0f57610a078482815181106109f9576109f961301c565b6020026020010151846119f4565b6001016109dc565b50505050565b610a1d611a83565b6001600160a01b0316336001600160a01b031614610a67576040517fefd1052d00000000000000000000000000000000000000000000000000000000815260040160405180910390fd5b610a6f611aab565b565b7f177481ac65e4292921c69f62d1cc7f57541261e5d61c8175cf4e36a01c9bfc94546060907f177481ac65e4292921c69f62d1cc7f57541261e5d61c8175cf4e36a01c9bfc939061ffff1667ffffffffffffffff811115610ad457610ad4612af2565b604051908082528060200260200182016040528015610b1a57816020015b604080518082019091526000815260606020820152815260200190600190039081610af25790505b50600182015490925060009061ffff1667ffffffffffffffff811115610b4257610b42612af2565b604051908082528060200260200182016040528015610b6b578160200160208202803683370190505b50905060008060005b600185015461ffff16821015610eae576000818152600286016020526040812054905b6008811015610e995783610baa81613002565b600189015490955061ffff1685119050610e9957600581901b82901b6001600160e01b0319811660009081526020899052604081205460601c90805b88811015610d2d57826001600160a01b03168c8281518110610c0a57610c0a61301c565b6020026020010151600001516001600160a01b031603610d1b57838c8281518110610c3757610c3761301c565b6020026020010151602001518b8381518110610c5557610c5561301c565b602002602001015160ff1681518110610c7057610c7061301c565b60200260200101907bffffffffffffffffffffffffffffffffffffffffffffffffffffffff191690817bffffffffffffffffffffffffffffffffffffffffffffffffffffffff19168152505060ff8a8281518110610cd057610cd061301c565b602002602001015160ff1610610ce557600080fd5b898181518110610cf757610cf761301c565b602002602001018051809190610d0c90613032565b60ff1690525060019150610d2d565b80610d2581613002565b915050610be6565b508015610d3c57505050610e87565b818b8981518110610d4f57610d4f61301c565b60209081029190910101516001600160a01b03909116905260018a015461ffff1667ffffffffffffffff811115610d8857610d88612af2565b604051908082528060200260200182016040528015610db1578160200160208202803683370190505b508b8981518110610dc457610dc461301c565b602002602001015160200181905250828b8981518110610de657610de661301c565b602002602001015160200151600081518110610e0457610e0461301c565b60200260200101907bffffffffffffffffffffffffffffffffffffffffffffffffffffffff191690817bffffffffffffffffffffffffffffffffffffffffffffffffffffffff1916815250506001898981518110610e6457610e6461301c565b60ff9092166020928302919091019091015287610e8081613002565b9850505050505b80610e9181613002565b915050610b97565b50508080610ea690613002565b915050610b74565b5060005b82811015610f15576000848281518110610ece57610ece61301c565b602002602001015160ff1690506000878381518110610eef57610eef61301c565b602002602001015160200151905081815250508080610f0d90613002565b915050610eb2565b508185525050505090565b60006105af611a83565b60006105af6115eb565b610f3c6115eb565b6001600160a01b0316336001600160a01b031614610f6d57604051632f7a8ee160e01b815260040160405180910390fd5b7f177481ac65e4292921c69f62d1cc7f57541261e5d61c8175cf4e36a01c9bfc96805473ffffffffffffffffffffffffffffffffffffffff19166001600160a01b03831617905550565b7f8a22373512790c48b83a1fe2efdd2888d4a917bcdc24d0adf63e60f671680460546001600160a01b0316331461100157604051632f7a8ee160e01b815260040160405180910390fd5b6107098282611af2565b6107098282611b94565b611020838383611cc2565b505050565b6001600160a01b0380841660009081527f8c151f2b073b889ff2e1725375750783c091724f29d93246786f4cca8f047dc260209081526040808320868452825280832093851683529290529081205460ff165b949350505050565b606061108e60008484611db9565b9392505050565b7f177481ac65e4292921c69f62d1cc7f57541261e5d61c8175cf4e36a01c9bfc94546060907f177481ac65e4292921c69f62d1cc7f57541261e5d61c8175cf4e36a01c9bfc939061ffff1667ffffffffffffffff8111156110f8576110f8612af2565b604051908082528060200260200182016040528015611121578160200160208202803683370190505b50915060008060005b600184015461ffff1682101561120a576000818152600285016020526040812054905b60088110156111f5578361116081613002565b600188015490955061ffff16851190506111f557600581901b82901b6001600160e01b0319811660009081526020889052604090205460601c6001600160a01b038a16036111e257808887815181106111bb576111bb61301c565b6001600160e01b031990921660209283029190910190910152856111de81613002565b9650505b50806111ed81613002565b91505061114d565b5050808061120290613002565b91505061112a565b5050825250919050565b60007f4fbf0433000000000000000000000000000000000000000000000000000000006001600160e01b031983161490506000306001600160a01b03166352ef6b2c6040518163ffffffff1660e01b8152600401600060405180830381865afa158015611285573d6000803e3d6000fd5b505050506040513d6000823e601f3d908101601f191682016040526112ad9190810190613051565b805190915060005b8181101561140557306001600160a01b03168382815181106112d9576112d961301c565b60200260200101516001600160a01b031603156112b5576000808483815181106113055761130561301c565b60200260200101516001600160a01b03166301ffc9a760e01b8860405160240161133f91906001600160e01b031991909116815260200190565b60408051601f198184030181529181526020820180517bffffffffffffffffffffffffffffffffffffffffffffffffffffffff166001600160e01b031990941693909317909252905161139291906130eb565b600060405180830381855afa9150503d80600081146113cd576040519150601f19603f3d011682016040523d82523d6000602084013e6113d2565b606091505b509150915081156113fb5785806113f85750808060200190518101906113f89190613107565b95505b50506001016112b5565b505050919050565b60008181527f8c151f2b073b889ff2e1725375750783c091724f29d93246786f4cca8f047dc3602052604081205467ffffffffffffffff1661062a565b6060611078848484611db9565b6001600160a01b0380831660009081527f8c151f2b073b889ff2e1725375750783c091724f29d93246786f4cca8f047dc16020908152604080832093851683529290529081205460ff1661108e565b6114ae6115eb565b6001600160a01b0316336001600160a01b0316146114df57604051632f7a8ee160e01b815260040160405180910390fd5b61076081611f92565b7ffc606c433378e3a7e0a6a531deac289b66caa1b4aa8554fd4ab2c6f1570f92d890565b7f177481ac65e4292921c69f62d1cc7f57541261e5d61c8175cf4e36a01c9bfc9390565b7f8a22373512790c48b83a1fe2efdd2888d4a917bcdc24d0adf63e60f67168046090565b7f8c151f2b073b889ff2e1725375750783c091724f29d93246786f4cca8f047dbe90565b600080356001600160e01b03191681527f177481ac65e4292921c69f62d1cc7f57541261e5d61c8175cf4e36a01c9bfc93602052604090205460601c806115e857507f177481ac65e4292921c69f62d1cc7f57541261e5d61c8175cf4e36a01c9bfc96546001600160a01b031690565b90565b60007f8a22373512790c48b83a1fe2efdd2888d4a917bcdc24d0adf63e60f6716804605b546001600160a01b0316919050565b7f177481ac65e4292921c69f62d1cc7f57541261e5d61c8175cf4e36a01c9bfc94547f177481ac65e4292921c69f62d1cc7f57541261e5d61c8175cf4e36a01c9bfc939061ffff81169081906000906007161561168d5750600381901c60009081526002840160205260409020545b60005b875181101561178b5760008882815181106116ad576116ad61301c565b602002602001015190506000816020015190508160400151516000036116ff576040517feb6c3aeb00000000000000000000000000000000000000000000000000000000815260040160405180910390fd5b600081600281111561171357611713613124565b0361172e5761172487868685611fe0565b9095509350611781565b600181600281111561174257611742613124565b0361175657611751878361213d565b611781565b600281600281111561176a5761176a613124565b036117815761177b878686856122d3565b90955093505b5050600101611690565b508282146117c4576001840180547fffffffffffffffffffffffffffffffffffffffffffffffffffffffffffff00001661ffff84161790555b60078216156117e657600382901c600090815260028501602052604090208190555b7f8faa70878671ccd212d20771b795c50af8fd3ff6cf27f4bde57e5d4de0aeb6738787876040516118199392919061313a565b60405180910390a161182b868661255b565b50505050505050565b60007f8c151f2b073b889ff2e1725375750783c091724f29d93246786f4cca8f047dbe61186083612654565b8061108e575033600090815260028201602052604090205460ff169392505050565b60008181527f8c151f2b073b889ff2e1725375750783c091724f29d93246786f4cca8f047dc36020526040812080547f8c151f2b073b889ff2e1725375750783c091724f29d93246786f4cca8f047dbe9267ffffffffffffffff90911691906118ea83613216565b82546101009290920a67ffffffffffffffff81810219909316918316021790915560008481526005840160209081526040918290205491519190921681528492507fc6621ccb8f3f5a04bb6502154b2caf6adf5983fe76dfef1cfc9c42e3579db444910160405180910390a25050565b7f8c151f2b073b889ff2e1725375750783c091724f29d93246786f4cca8f047dbf805473ffffffffffffffffffffffffffffffffffffffff19166001600160a01b0383169081179091556040517f8c151f2b073b889ff2e1725375750783c091724f29d93246786f4cca8f047dbe91907f2a3953a00c61e46ecb4a26a52aba9acbbf214c988422bb25322bf64fc5cc15fd90600090a25050565b6001600160e01b03198083169003611a38576040517fb0a19dd500000000000000000000000000000000000000000000000000000000815260040160405180910390fd5b6001600160e01b03199190911660009081527ffc606c433378e3a7e0a6a531deac289b66caa1b4aa8554fd4ab2c6f1570f92d860205260409020805460ff1916911515919091179055565b60007f24aa1f7b31fd188a8d3ecfb06bc55c806040e59b03bd4396283442fce661789061160f565b611ab43361285b565b7f24aa1f7b31fd188a8d3ecfb06bc55c806040e59b03bd4396283442fce6617890805473ffffffffffffffffffffffffffffffffffffffff19169055565b6001600160a01b03821660008181527f8c151f2b073b889ff2e1725375750783c091724f29d93246786f4cca8f047dc06020908152604091829020805460ff191685151590811790915591519182527f8c151f2b073b889ff2e1725375750783c091724f29d93246786f4cca8f047dbe92917f26742d25b283cf51a0e3c4183d934871ed96d1bd33cf40706f87a94f29f686ac910160405180910390a2505050565b6001600160a01b0382163303611c175760405162461bcd60e51b815260206004820152602960248201527f455243313135353a2073657474696e6720617070726f76616c2073746174757360448201527f20666f722073656c66000000000000000000000000000000000000000000000060648201526084015b60405180910390fd5b3360008181527f8c151f2b073b889ff2e1725375750783c091724f29d93246786f4cca8f047dc1602090815260408083206001600160a01b03871680855290835292819020805460ff1916861515908117909155815190815290517f8c151f2b073b889ff2e1725375750783c091724f29d93246786f4cca8f047dbe94927f17307eab39ab6107e8899845ad3d59bd9653f200f220920489ca2b5937696c31928290030190a3505050565b6001600160a01b0382163303611d1a5760405162461bcd60e51b815260206004820181905260248201527f53657474696e672064656c65676174652073746174757320666f722073656c666044820152606401611c0e565b60007f8c151f2b073b889ff2e1725375750783c091724f29d93246786f4cca8f047dbe336000818152600483016020908152604080832089845282528083206001600160a01b03891680855290835292819020805460ff19168815159081179091559051938452939450909187917ff0ddb3b04746704017f9aa8bd728fcc2c1d11675041205350018915f5e4750a0910160405180910390a450505050565b60608167ffffffffffffffff811115611dd457611dd4612af2565b604051908082528060200260200182016040528015611e0757816020015b6060815260200190600190039081611df25790505b50905060005b82811015611f8a578415611ed2576000848483818110611e2f57611e2f61301c565b9050602002810190611e41919061323d565b611e50916024916004916132a2565b611e59916132cc565b9050858114611ed05760405162461bcd60e51b815260206004820152603460248201527f6d756c746963616c6c3a20416c6c207265636f726473206d757374206861766560448201527f2061206d61746368696e67206e616d65686173680000000000000000000000006064820152608401611c0e565b505b60008030868685818110611ee857611ee861301c565b9050602002810190611efa919061323d565b604051611f089291906132ea565b600060405180830381855af49150503d8060008114611f43576040519150601f19603f3d011682016040523d82523d6000602084013e611f48565b606091505b509150915081611f5757600080fd5b80848481518110611f6a57611f6a61301c565b602002602001018190525050508080611f8290613002565b915050611e0d565b509392505050565b7f24aa1f7b31fd188a8d3ecfb06bc55c806040e59b03bd4396283442fce6617890805473ffffffffffffffffffffffffffffffffffffffff19166001600160a01b0383161790556107608181565b805160009081906001600160a01b03163014801590612008575082516001600160a01b03163b155b1561202657604051633ddc5cab60e21b815260040160405180910390fd5b60005b8360400151518110156121305760008460400151828151811061204e5761204e61301c565b6020908102919091018101516001600160e01b031981166000908152918a9052604090912054909150606081901c156120b3576040517f92474ee200000000000000000000000000000000000000000000000000000000815260040160405180910390fd5b85516001600160e01b0319838116600081815260208d90526040902060609390931b6bffffffffffffffffffffffff19168b1790925560058a901b60e090811692831c91831c1999909916179781900361212157600389901c600090815260028b0160205260408120989098555b50505060019586019501612029565b5093959294509192505050565b80516001600160a01b03163b61216657604051633ddc5cab60e21b815260040160405180910390fd5b60005b8160400151518110156110205760008260400151828151811061218e5761218e61301c565b6020908102919091018101516001600160e01b03198116600090815291869052604090912054909150606081901c806121f3576040517f6fc4b52e00000000000000000000000000000000000000000000000000000000815260040160405180910390fd5b306001600160a01b03821603612235576040517fe983573100000000000000000000000000000000000000000000000000000000815260040160405180910390fd5b84600001516001600160a01b0316816001600160a01b031603612284576040517f617557e600000000000000000000000000000000000000000000000000000000815260040160405180910390fd5b5083516001600160e01b031992909216600090815260208690526040902060609290921b6bffffffffffffffffffffffff19166bffffffffffffffffffffffff91909116179055600101612169565b805160009081906001600160a01b03161561231a576040517feacd242400000000000000000000000000000000000000000000000000000000815260040160405180910390fd5b600385901c6007861660005b8560400151518110156125475760008660400151828151811061234b5761234b61301c565b6020908102919091018101516001600160e01b031981166000908152918c9052604090912054909150606081901c6123af576040517f6fc4b52e00000000000000000000000000000000000000000000000000000000815260040160405180910390fd5b30606082901c036123ec576040517fe983573100000000000000000000000000000000000000000000000000000000815260040160405180910390fd5b600089900361241857600019909401600081815260028c01602052604090205498509360079350612420565b600019909301925b600584901b89901b6000806001600160e01b03198084169086161461247c576001600160e01b03198316600090815260208f90526040902080546bffffffffffffffffffffffff19166bffffffffffffffffffffffff86161790555b50506001600160e01b03198316600090815260208d90526040812055611fff600383901c1660e0600584901b168782146124df57600082815260028f016020526040902080546001600160e01b031980841c19909116908516831c179055612518565b80837bffffffffffffffffffffffffffffffffffffffffffffffffffffffff1916901c816001600160e01b031960001b901c198d16179b505b8660000361253657600088815260028f01602052604081208190559b505b505060019093019250612326915050565b5060039190911b1796939550929350505050565b8051156001600160a01b03831615146125a0576040517f26df4ccd00000000000000000000000000000000000000000000000000000000815260040160405180910390fd5b6001600160a01b03821615610709576001600160a01b03821630146125e7576001600160a01b0382163b6125e757604051633ddc5cab60e21b815260040160405180910390fd5b6000826001600160a01b03168260405161260191906130eb565b600060405180830381855af49150503d806000811461263c576040519150601f19603f3d011682016040523d82523d6000602084013e612641565b606091505b5050905080611020573d6000803e3d6000fd5b6000807f8c151f2b073b889ff2e1725375750783c091724f29d93246786f4cca8f047dbe80546040517f02571be3000000000000000000000000000000000000000000000000000000008152600481018690529192506000916001600160a01b03909116906302571be390602401602060405180830381865afa1580156126df573d6000803e3d6000fd5b505050506040513d601f19601f8201168201806040525081019061270391906132fa565b60018301549091506001600160a01b03908116908216036127a95760018201546040517f6352211e000000000000000000000000000000000000000000000000000000008152600481018690526001600160a01b0390911690636352211e90602401602060405180830381865afa158015612782573d6000803e3d6000fd5b505050506040513d601f19601f820116820180604052508101906127a691906132fa565b90505b6001600160a01b03811633148061280257506001600160a01b03811660009081527f8c151f2b073b889ff2e1725375750783c091724f29d93246786f4cca8f047dc16020908152604080832033845290915290205460ff165b8061107857506001600160a01b03811660009081527f8c151f2b073b889ff2e1725375750783c091724f29d93246786f4cca8f047dc260209081526040808320878452825280832033845290915290205460ff16611078565b7f8a22373512790c48b83a1fe2efdd2888d4a917bcdc24d0adf63e60f67168046080546040516001600160a01b038481169216907f8be0079c531659141344cd1fd0a4f28419497f9722a3daafe3b4186f6b6457e090600090a3805473ffffffffffffffffffffffffffffffffffffffff19166001600160a01b0392909216919091179055565b80356001600160e01b0319811681146128fa57600080fd5b919050565b60006020828403121561291157600080fd5b61108e826128e2565b60008083601f84011261292c57600080fd5b50813567ffffffffffffffff81111561294457600080fd5b6020830191508360208260051b850101111561295f57600080fd5b9250929050565b6001600160a01b038116811461076057600080fd5b60008060008060006060868803121561299357600080fd5b853567ffffffffffffffff808211156129ab57600080fd5b6129b789838a0161291a565b9097509550602088013591506129cc82612966565b909350604087013590808211156129e257600080fd5b818801915088601f8301126129f657600080fd5b813581811115612a0557600080fd5b896020828501011115612a1757600080fd5b9699959850939650602001949392505050565b600060208284031215612a3c57600080fd5b5035919050565b600060208284031215612a5557600080fd5b813561108e81612966565b6020808252825182820181905260009190848201906040850190845b81811015612aa15783516001600160a01b031683529284019291840191600101612a7c565b50909695505050505050565b801515811461076057600080fd5b60008060408385031215612ace57600080fd5b612ad7836128e2565b91506020830135612ae781612aad565b809150509250929050565b634e487b7160e01b600052604160045260246000fd5b6040516060810167ffffffffffffffff81118282101715612b2b57612b2b612af2565b60405290565b604051601f8201601f1916810167ffffffffffffffff81118282101715612b5a57612b5a612af2565b604052919050565b600067ffffffffffffffff821115612b7c57612b7c612af2565b5060051b60200190565b600082601f830112612b9757600080fd5b81356020612bac612ba783612b62565b612b31565b82815260059290921b84018101918181019086841115612bcb57600080fd5b8286015b84811015612bed57612be0816128e2565b8352918301918301612bcf565b509695505050505050565b60008060408385031215612c0b57600080fd5b823567ffffffffffffffff811115612c2257600080fd5b612c2e85828601612b86565b9250506020830135612ae781612aad565b600081518084526020808501945080840160005b83811015612c795781516001600160e01b03191687529582019590820190600101612c53565b509495945050505050565b60006020808301818452808551808352604092508286019150828160051b87010184880160005b83811015612cf357888303603f19018552815180516001600160a01b03168452870151878401879052612ce087850182612c3f565b9588019593505090860190600101612cab565b509098975050505050505050565b60008060408385031215612d1457600080fd5b8235612ad781612966565b600080600060608486031215612d3457600080fd5b833592506020840135612d4681612966565b91506040840135612d5681612aad565b809150509250925092565b600080600060608486031215612d7657600080fd5b8335612d8181612966565b9250602084013591506040840135612d5681612966565b60008060208385031215612dab57600080fd5b823567ffffffffffffffff811115612dc257600080fd5b612dce8582860161291a565b90969095509350505050565b60005b83811015612df5578181015183820152602001612ddd565b50506000910152565b60008151808452612e16816020860160208601612dda565b601f01601f19169290920160200192915050565b6000602080830181845280855180835260408601915060408160051b870101925083870160005b82811015612e7f57603f19888603018452612e6d858351612dfe565b94509285019290850190600101612e51565b5092979650505050505050565b60208152600061108e6020830184612c3f565b600080600060408486031215612eb457600080fd5b83359250602084013567ffffffffffffffff811115612ed257600080fd5b612ede8682870161291a565b9497909650939450505050565b60008060408385031215612efe57600080fd5b8235612f0981612966565b91506020830135612ae781612966565b6000612f27612ba784612b62565b80848252602080830192508560051b850136811115612f4557600080fd5b855b81811015612fe057803567ffffffffffffffff80821115612f685760008081fd5b818901915060608236031215612f7e5760008081fd5b612f86612b08565b8235612f9181612966565b81528286013560038110612fa55760008081fd5b8187015260408381013583811115612fbd5760008081fd5b612fc936828701612b86565b918301919091525087525050938201938201612f47565b50919695505050505050565b634e487b7160e01b600052601160045260246000fd5b6000600019820361301557613015612fec565b5060010190565b634e487b7160e01b600052603260045260246000fd5b600060ff821660ff810361304857613048612fec565b60010192915050565b6000602080838503121561306457600080fd5b825167ffffffffffffffff81111561307b57600080fd5b8301601f8101851361308c57600080fd5b805161309a612ba782612b62565b81815260059190911b820183019083810190878311156130b957600080fd5b928401925b828410156130e05783516130d181612966565b825292840192908401906130be565b979650505050505050565b600082516130fd818460208701612dda565b9190910192915050565b60006020828403121561311957600080fd5b815161108e81612aad565b634e487b7160e01b600052602160045260246000fd5b6000606080830181845280875180835260808601915060808160051b87010192506020808a016000805b848110156131f1577fffffffffffffffffffffffffffffffffffffffffffffffffffffffffffffff808a880301865282516001600160a01b03815116885284810151600381106131c257634e487b7160e01b84526021600452602484fd5b888601526040908101519088018990526131de89890182612c3f565b9750509483019491830191600101613164565b5050506001600160a01b03891690870152505083810360408501526130e08186612dfe565b600067ffffffffffffffff80831681810361323357613233612fec565b6001019392505050565b60008083357fffffffffffffffffffffffffffffffffffffffffffffffffffffffffffffffe184360301811261327257600080fd5b83018035915067ffffffffffffffff82111561328d57600080fd5b60200191503681900382131561295f57600080fd5b600080858511156132b257600080fd5b838611156132bf57600080fd5b5050820193919092039150565b8035602083101561062a57600019602084900360031b1b1692915050565b8183823760009101908152919050565b60006020828403121561330c57600080fd5b815161108e8161296656fea26469706673582212205991c4da683a90645735a55ef5c7bc831287518f1c35cd0271ecc95d03be566e64736f6c63430008110033",
  "devdoc": {
    "kind": "dev",
    "methods": {
      "approve(bytes32,address,bool)": {
        "details": "Approve a delegate to be able to updated records on a node."
      },
      "clearRecords(bytes32)": {
        "params": {
          "node": "The node to update."
        }
      },
      "diamondCut((address,uint8,bytes4[])[],address,bytes)": {
        "params": {
          "data": "optional initialization function call data",
          "facetCuts": "array of structured Diamond facet update data",
          "target": "optional target of initialization delegatecall"
        }
      },
      "facetAddress(bytes4)": {
        "params": {
          "selector": "function selector to query"
        },
        "returns": {
          "facet": "facet address (zero address if not found)"
        }
      },
      "facetAddresses()": {
        "returns": {
          "addresses": "array of facet addresses"
        }
      },
      "facetFunctionSelectors(address)": {
        "params": {
          "facet": "address of facet to query"
        },
        "returns": {
          "selectors": "array of function selectors"
        }
      },
      "facets()": {
        "returns": {
          "diamondFacets": "array of structured facet data"
        }
      },
      "getFallbackAddress()": {
        "returns": {
          "fallbackAddress": "address of fallback implementation"
        }
      },
      "isApprovedFor(address,bytes32,address)": {
        "details": "Check to see if the delegate has been approved by the owner for the node."
      },
      "isApprovedForAll(address,address)": {
        "details": "See {IERC1155-isApprovedForAll}."
      },
      "owner()": {
        "returns": {
          "_0": "contract owner"
        }
      },
      "setApprovalForAll(address,bool)": {
        "details": "See {IERC1155-setApprovalForAll}."
      },
      "setFallbackAddress(address)": {
        "params": {
          "fallbackAddress": "address of fallback implementation"
        }
      },
      "transferOwnership(address)": {
        "params": {
          "account": "address of new owner"
        }
      }
    },
    "version": 1
  },
  "userdoc": {
    "kind": "user",
    "methods": {
      "acceptOwnership()": {
        "notice": "accept transfer of contract ownership"
      },
      "clearRecords(bytes32)": {
        "notice": "Increments the record version associated with an ENS node. May only be called by the owner of that node in the ENS registry."
      },
      "diamondCut((address,uint8,bytes4[])[],address,bytes)": {
        "notice": "update diamond facets and optionally execute arbitrary initialization function"
      },
      "facetAddress(bytes4)": {
        "notice": "get the address of the facet associated with given selector"
      },
      "facetAddresses()": {
        "notice": "get addresses of all facets used by diamond"
      },
      "facetFunctionSelectors(address)": {
        "notice": "get all selectors for given facet address"
      },
      "facets()": {
        "notice": "get all facets and their selectors"
      },
      "getFallbackAddress()": {
        "notice": "query the address of the fallback implementation"
      },
      "nomineeOwner()": {
        "notice": "get the nominated owner who has permission to call acceptOwnership"
      },
      "owner()": {
        "notice": "get the ERC173 contract owner"
      },
      "setFallbackAddress(address)": {
        "notice": "set the address of the fallback implementation"
      },
      "transferOwnership(address)": {
        "notice": "transfer contract ownership to new account"
      }
    },
    "version": 1
  },
  "storageLayout": {
    "storage": [],
    "types": null
  }
}