{
  "address": "0x485C9D4C9BE064Bd7a64bCa87EAEf1010c9dbf08",
  "abi": [
    {
      "inputs": [],
      "name": "Unauthorised",
      "type": "error"
    },
    {
      "anonymous": false,
      "inputs": [
        {
          "indexed": true,
          "internalType": "bytes32",
          "name": "node",
          "type": "bytes32"
        },
        {
          "indexed": true,
          "internalType": "uint256",
          "name": "contentType",
          "type": "uint256"
        }
      ],
      "name": "ABIChanged",
      "type": "event"
    },
    {
      "anonymous": false,
      "inputs": [
        {
          "indexed": true,
          "internalType": "bytes32",
          "name": "node",
          "type": "bytes32"
        },
        {
          "indexed": false,
          "internalType": "address",
          "name": "a",
          "type": "address"
        }
      ],
      "name": "AddrChanged",
      "type": "event"
    },
    {
      "anonymous": false,
      "inputs": [
        {
          "indexed": true,
          "internalType": "bytes32",
          "name": "node",
          "type": "bytes32"
        },
        {
          "indexed": false,
          "internalType": "uint256",
          "name": "coinType",
          "type": "uint256"
        },
        {
          "indexed": false,
          "internalType": "bytes",
          "name": "newAddress",
          "type": "bytes"
        }
      ],
      "name": "AddressChanged",
      "type": "event"
    },
    {
      "anonymous": false,
      "inputs": [
        {
          "indexed": true,
          "internalType": "bytes32",
          "name": "node",
          "type": "bytes32"
        },
        {
          "indexed": false,
          "internalType": "bytes",
          "name": "hash",
          "type": "bytes"
        }
      ],
      "name": "ContenthashChanged",
      "type": "event"
    },
    {
      "anonymous": false,
      "inputs": [
        {
          "indexed": true,
          "internalType": "bytes32",
          "name": "node",
          "type": "bytes32"
        },
        {
          "indexed": false,
          "internalType": "bytes",
          "name": "name",
          "type": "bytes"
        },
        {
          "indexed": false,
          "internalType": "uint16",
          "name": "resource",
          "type": "uint16"
        },
        {
          "indexed": false,
          "internalType": "bytes",
          "name": "record",
          "type": "bytes"
        }
      ],
      "name": "DNSRecordChanged",
      "type": "event"
    },
    {
      "anonymous": false,
      "inputs": [
        {
          "indexed": true,
          "internalType": "bytes32",
          "name": "node",
          "type": "bytes32"
        },
        {
          "indexed": false,
          "internalType": "bytes",
          "name": "name",
          "type": "bytes"
        },
        {
          "indexed": false,
          "internalType": "uint16",
          "name": "resource",
          "type": "uint16"
        }
      ],
      "name": "DNSRecordDeleted",
      "type": "event"
    },
    {
      "anonymous": false,
      "inputs": [
        {
          "indexed": true,
          "internalType": "bytes32",
          "name": "node",
          "type": "bytes32"
        },
        {
          "indexed": false,
          "internalType": "bytes",
          "name": "lastzonehash",
          "type": "bytes"
        },
        {
          "indexed": false,
          "internalType": "bytes",
          "name": "zonehash",
          "type": "bytes"
        }
      ],
      "name": "DNSZonehashChanged",
      "type": "event"
    },
    {
      "anonymous": false,
      "inputs": [
        {
          "indexed": true,
          "internalType": "bytes32",
          "name": "node",
          "type": "bytes32"
        },
        {
          "indexed": true,
          "internalType": "bytes4",
          "name": "interfaceID",
          "type": "bytes4"
        },
        {
          "indexed": false,
          "internalType": "address",
          "name": "implementer",
          "type": "address"
        }
      ],
      "name": "InterfaceChanged",
      "type": "event"
    },
    {
      "anonymous": false,
      "inputs": [
        {
          "indexed": true,
          "internalType": "bytes32",
          "name": "node",
          "type": "bytes32"
        },
        {
          "indexed": false,
          "internalType": "string",
          "name": "name",
          "type": "string"
        }
      ],
      "name": "NameChanged",
      "type": "event"
    },
    {
      "anonymous": false,
      "inputs": [
        {
          "indexed": true,
          "internalType": "bytes32",
          "name": "node",
          "type": "bytes32"
        },
        {
          "indexed": false,
          "internalType": "bytes32",
          "name": "x",
          "type": "bytes32"
        },
        {
          "indexed": false,
          "internalType": "bytes32",
          "name": "y",
          "type": "bytes32"
        }
      ],
      "name": "PubkeyChanged",
      "type": "event"
    },
    {
      "anonymous": false,
      "inputs": [
        {
          "indexed": true,
          "internalType": "bytes32",
          "name": "node",
          "type": "bytes32"
        },
        {
          "indexed": true,
          "internalType": "string",
          "name": "indexedKey",
          "type": "string"
        },
        {
          "indexed": false,
          "internalType": "string",
          "name": "key",
          "type": "string"
        },
        {
          "indexed": false,
          "internalType": "string",
          "name": "value",
          "type": "string"
        }
      ],
      "name": "TextChanged",
      "type": "event"
    },
    {
      "anonymous": false,
      "inputs": [
        {
          "indexed": true,
          "internalType": "bytes32",
          "name": "node",
          "type": "bytes32"
        },
        {
          "indexed": false,
          "internalType": "uint64",
          "name": "newVersion",
          "type": "uint64"
        }
      ],
      "name": "VersionChanged",
      "type": "event"
    },
    {
      "inputs": [
        {
          "internalType": "bytes32",
          "name": "node",
          "type": "bytes32"
        },
        {
          "internalType": "uint256",
          "name": "contentTypes",
          "type": "uint256"
        }
      ],
      "name": "ABI",
      "outputs": [
        {
          "internalType": "uint256",
          "name": "",
          "type": "uint256"
        },
        {
          "internalType": "bytes",
          "name": "",
          "type": "bytes"
        }
      ],
      "stateMutability": "view",
      "type": "function"
    },
    {
      "inputs": [
        {
          "internalType": "bytes32",
          "name": "node",
          "type": "bytes32"
        }
      ],
      "name": "addr",
      "outputs": [
        {
          "internalType": "address payable",
          "name": "",
          "type": "address"
        }
      ],
      "stateMutability": "view",
      "type": "function"
    },
    {
      "inputs": [
        {
          "internalType": "bytes32",
          "name": "node",
          "type": "bytes32"
        },
        {
          "internalType": "uint256",
          "name": "coinType",
          "type": "uint256"
        }
      ],
      "name": "addr",
      "outputs": [
        {
          "internalType": "bytes",
          "name": "",
          "type": "bytes"
        }
      ],
      "stateMutability": "view",
      "type": "function"
    },
    {
      "inputs": [
        {
          "internalType": "bytes32",
          "name": "node",
          "type": "bytes32"
        }
      ],
      "name": "contenthash",
      "outputs": [
        {
          "internalType": "bytes",
          "name": "",
          "type": "bytes"
        }
      ],
      "stateMutability": "view",
      "type": "function"
    },
    {
      "inputs": [
        {
          "internalType": "bytes32",
          "name": "node",
          "type": "bytes32"
        },
        {
          "internalType": "bytes32",
          "name": "name",
          "type": "bytes32"
        },
        {
          "internalType": "uint16",
          "name": "resource",
          "type": "uint16"
        }
      ],
      "name": "dnsRecord",
      "outputs": [
        {
          "internalType": "bytes",
          "name": "",
          "type": "bytes"
        }
      ],
      "stateMutability": "view",
      "type": "function"
    },
    {
      "inputs": [
        {
          "internalType": "bytes32",
          "name": "node",
          "type": "bytes32"
        },
        {
          "internalType": "bytes32",
          "name": "name",
          "type": "bytes32"
        }
      ],
      "name": "hasDNSRecords",
      "outputs": [
        {
          "internalType": "bool",
          "name": "",
          "type": "bool"
        }
      ],
      "stateMutability": "view",
      "type": "function"
    },
    {
      "inputs": [
        {
          "internalType": "bytes32",
          "name": "node",
          "type": "bytes32"
        },
        {
          "internalType": "bytes4",
          "name": "interfaceID",
          "type": "bytes4"
        }
      ],
      "name": "interfaceImplementer",
      "outputs": [
        {
          "internalType": "address",
          "name": "",
          "type": "address"
        }
      ],
      "stateMutability": "view",
      "type": "function"
    },
    {
      "inputs": [
        {
          "internalType": "bytes32",
          "name": "node",
          "type": "bytes32"
        }
      ],
      "name": "name",
      "outputs": [
        {
          "internalType": "string",
          "name": "",
          "type": "string"
        }
      ],
      "stateMutability": "view",
      "type": "function"
    },
    {
      "inputs": [
        {
          "internalType": "bytes32",
          "name": "node",
          "type": "bytes32"
        }
      ],
      "name": "pubkey",
      "outputs": [
        {
          "internalType": "bytes32",
          "name": "x",
          "type": "bytes32"
        },
        {
          "internalType": "bytes32",
          "name": "y",
          "type": "bytes32"
        }
      ],
      "stateMutability": "view",
      "type": "function"
    },
    {
      "inputs": [
        {
          "internalType": "bytes32",
          "name": "node",
          "type": "bytes32"
        },
        {
          "internalType": "uint256",
          "name": "contentType",
          "type": "uint256"
        },
        {
          "internalType": "bytes",
          "name": "data",
          "type": "bytes"
        }
      ],
      "name": "setABI",
      "outputs": [],
      "stateMutability": "nonpayable",
      "type": "function"
    },
    {
      "inputs": [
        {
          "internalType": "bytes32",
          "name": "node",
          "type": "bytes32"
        },
        {
          "internalType": "uint256",
          "name": "coinType",
          "type": "uint256"
        },
        {
          "internalType": "bytes",
          "name": "a",
          "type": "bytes"
        }
      ],
      "name": "setAddr",
      "outputs": [],
      "stateMutability": "nonpayable",
      "type": "function"
    },
    {
      "inputs": [
        {
          "internalType": "bytes32",
          "name": "node",
          "type": "bytes32"
        },
        {
          "internalType": "address",
          "name": "a",
          "type": "address"
        }
      ],
      "name": "setAddr",
      "outputs": [],
      "stateMutability": "nonpayable",
      "type": "function"
    },
    {
      "inputs": [
        {
          "internalType": "bytes32",
          "name": "node",
          "type": "bytes32"
        },
        {
          "internalType": "bytes",
          "name": "hash",
          "type": "bytes"
        }
      ],
      "name": "setContenthash",
      "outputs": [],
      "stateMutability": "nonpayable",
      "type": "function"
    },
    {
      "inputs": [
        {
          "internalType": "bytes32",
          "name": "node",
          "type": "bytes32"
        },
        {
          "internalType": "bytes",
          "name": "data",
          "type": "bytes"
        }
      ],
      "name": "setDNSRecords",
      "outputs": [],
      "stateMutability": "nonpayable",
      "type": "function"
    },
    {
      "inputs": [
        {
          "internalType": "bytes32",
          "name": "node",
          "type": "bytes32"
        },
        {
          "internalType": "bytes4",
          "name": "interfaceID",
          "type": "bytes4"
        },
        {
          "internalType": "address",
          "name": "implementer",
          "type": "address"
        }
      ],
      "name": "setInterface",
      "outputs": [],
      "stateMutability": "nonpayable",
      "type": "function"
    },
    {
      "inputs": [
        {
          "internalType": "bytes32",
          "name": "node",
          "type": "bytes32"
        },
        {
          "internalType": "string",
          "name": "newName",
          "type": "string"
        }
      ],
      "name": "setName",
      "outputs": [],
      "stateMutability": "nonpayable",
      "type": "function"
    },
    {
      "inputs": [
        {
          "internalType": "bytes32",
          "name": "node",
          "type": "bytes32"
        },
        {
          "internalType": "bytes32",
          "name": "x",
          "type": "bytes32"
        },
        {
          "internalType": "bytes32",
          "name": "y",
          "type": "bytes32"
        }
      ],
      "name": "setPubkey",
      "outputs": [],
      "stateMutability": "nonpayable",
      "type": "function"
    },
    {
      "inputs": [
        {
          "internalType": "bytes32",
          "name": "node",
          "type": "bytes32"
        },
        {
          "internalType": "string",
          "name": "key",
          "type": "string"
        },
        {
          "internalType": "string",
          "name": "value",
          "type": "string"
        }
      ],
      "name": "setText",
      "outputs": [],
      "stateMutability": "nonpayable",
      "type": "function"
    },
    {
      "inputs": [
        {
          "internalType": "bytes32",
          "name": "node",
          "type": "bytes32"
        },
        {
          "internalType": "bytes",
          "name": "hash",
          "type": "bytes"
        }
      ],
      "name": "setZonehash",
      "outputs": [],
      "stateMutability": "nonpayable",
      "type": "function"
    },
    {
      "inputs": [
        {
          "internalType": "bytes4",
          "name": "interfaceID",
          "type": "bytes4"
        }
      ],
      "name": "supportsInterface",
      "outputs": [
        {
          "internalType": "bool",
          "name": "",
          "type": "bool"
        }
      ],
      "stateMutability": "view",
      "type": "function"
    },
    {
      "inputs": [
        {
          "internalType": "bytes32",
          "name": "node",
          "type": "bytes32"
        },
        {
          "internalType": "string",
          "name": "key",
          "type": "string"
        }
      ],
      "name": "text",
      "outputs": [
        {
          "internalType": "string",
          "name": "",
          "type": "string"
        }
      ],
      "stateMutability": "view",
      "type": "function"
    },
    {
      "inputs": [
        {
          "internalType": "bytes32",
          "name": "node",
          "type": "bytes32"
        }
      ],
      "name": "zonehash",
      "outputs": [
        {
          "internalType": "bytes",
          "name": "",
          "type": "bytes"
        }
      ],
      "stateMutability": "view",
      "type": "function"
    }
  ],
  "transactionHash": "0x54e04cd1b1eb364988f00d9ac5169cdd8992167e851d1f2bed7658c1acbb0a04",
  "args": [],
  "numDeployments": 1,
  "solcInputHash": "78b35c2b1a9f0bafe48cd84ae3cc6b08",
  "bytecode": "0x608060405234801561001057600080fd5b50612b5b806100206000396000f3fe608060405234801561001057600080fd5b50600436106101825760003560e01c8063623195b0116100d8578063bc1c58d11161008c578063d5fa2b0011610066578063d5fa2b001461035c578063e59d895d1461036f578063f1cb7e061461038257600080fd5b8063bc1c58d11461030e578063c869023314610321578063ce3decdc1461034957600080fd5b806377372213116100bd57806377372213146102d55780638b95dd71146102e8578063a8fa5682146102fb57600080fd5b8063623195b0146102af578063691f3431146102c257600080fd5b806329cd62ea1161013a5780634cbf6ba4116101145780634cbf6ba41461026957806359d1d43c1461027c5780635c98042b1461029c57600080fd5b806329cd62ea14610230578063304e6ade146102435780633b3b57de1461025657600080fd5b806310f13a8c1161016b57806310f13a8c146101c4578063124a319c146101d75780632203ab561461020f57600080fd5b806301ffc9a7146101875780630af179d7146101af575b600080fd5b61019a610195366004612317565b610395565b60405190151581526020015b60405180910390f35b6101c26101bd366004612374565b6103e3565b005b6101c26101d23660046123c0565b61062b565b6101ea6101e536600461243a565b610775565b60405173ffffffffffffffffffffffffffffffffffffffff90911681526020016101a6565b61022261021d366004612466565b610aee565b6040516101a69291906124d8565b6101c261023e3660046124f1565b610c8a565b6101c2610251366004612374565b610d7e565b6101ea61026436600461251d565b610e70565b61019a610277366004612466565b610ea2565b61028f61028a366004612374565b610f62565b6040516101a69190612536565b61028f6102aa36600461251d565b6110ab565b6101c26102bd366004612549565b6111b1565b61028f6102d036600461251d565b6112c5565b6101c26102e3366004612374565b6112ef565b6101c26102f63660046125b2565b6113e1565b61028f610309366004612676565b611528565b61028f61031c36600461251d565b6115f3565b61033461032f36600461251d565b61161d565b604080519283526020830191909152016101a6565b6101c2610357366004612374565b6116b7565b6101c261036a3660046126da565b611850565b6101c261037d3660046126fd565b61188b565b61028f610390366004612466565b6119e5565b60007f59d1d43c000000000000000000000000000000000000000000000000000000007fffffffff000000000000000000000000000000000000000000000000000000008316145b92915050565b826103ed81611b0b565b61040a57604051636bd1573560e11b815260040160405180910390fd5b6000806060806000806104528a60009081527f8c151f2b073b889ff2e1725375750783c091724f29d93246786f4cca8f047dc2602052604090205467ffffffffffffffff1690565b9050600061049a60008b8b8080601f0160208091040260200160405190810160405280939291908181526020018383808284376000920191909152509293925050611bfb9050565b90505b805151602082015110156105c4578661ffff1660000361050257806040015196506104c781611c5c565b9450846040516020016104da9190612739565b6040516020818303038152906040528051906020012092506104fb81611c7d565b93506105b6565b600061050d82611c5c565b9050816040015161ffff168861ffff16141580610531575061052f8682611c99565b155b156105b45761058d8c878a8e8e8080601f016020809104026020016040519081016040528093929190818152602001838380828437600092019190915250505060208801518d915061058490829061276b565b8b51158a611cb7565b8160400151975081602001519650809550858051906020012093506105b182611c7d565b94505b505b6105bf81611f54565b61049d565b5083511561061f5761061f8a85888c8c8080601f0160208091040260200160405190810160405280939291908181526020018383808284376000920191909152508c925061061691508290508f61276b565b89511588611cb7565b50505050505050505050565b8461063581611b0b565b61065257604051636bd1573560e11b815260040160405180910390fd5b7f8ba2ca4b3c929aed3676d3497c704c474aa7fa7a2cdad3b9a0b948fc3b51d10983838260006106b78b60009081527f8c151f2b073b889ff2e1725375750783c091724f29d93246786f4cca8f047dc2602052604090205467ffffffffffffffff1690565b67ffffffffffffffff1667ffffffffffffffff16815260200190815260200160002060008a815260200190815260200160002088886040516106fa92919061277e565b9081526020016040518091039020918261071592919061280e565b50858560405161072692919061277e565b6040518091039020877f448bc014f1536726cf8d54ff3d6481ed3cbc683c2591ca204274009afa09b1a18888888860405161076494939291906128fa565b60405180910390a350505050505050565b60007f8916552157e955f70da87359805831767054f7a6cbf77fcc87a45ee38923327c8181816107da8760009081527f8c151f2b073b889ff2e1725375750783c091724f29d93246786f4cca8f047dc2602052604090205467ffffffffffffffff1690565b67ffffffffffffffff1681526020808201929092526040908101600090812088825283528181207fffffffff000000000000000000000000000000000000000000000000000000008816825290925290205473ffffffffffffffffffffffffffffffffffffffff16905080156108535791506103dd9050565b600061085e86610e70565b905073ffffffffffffffffffffffffffffffffffffffff811661088757600093505050506103dd565b6040516301ffc9a760e01b6024820152600090819073ffffffffffffffffffffffffffffffffffffffff84169060440160408051601f198184030181529181526020820180517bffffffffffffffffffffffffffffffffffffffffffffffffffffffff166301ffc9a760e01b179052516109019190612739565b600060405180830381855afa9150503d806000811461093c576040519150601f19603f3d011682016040523d82523d6000602084013e610941565b606091505b5091509150811580610954575060208151105b80610996575080601f8151811061096d5761096d61292c565b01602001517fff0000000000000000000000000000000000000000000000000000000000000016155b156109a9576000955050505050506103dd565b6040517fffffffff000000000000000000000000000000000000000000000000000000008816602482015273ffffffffffffffffffffffffffffffffffffffff84169060440160408051601f198184030181529181526020820180517bffffffffffffffffffffffffffffffffffffffffffffffffffffffff166301ffc9a760e01b17905251610a399190612739565b600060405180830381855afa9150503d8060008114610a74576040519150601f19603f3d011682016040523d82523d6000602084013e610a79565b606091505b509092509050811580610a8d575060208151105b80610acf575080601f81518110610aa657610aa661292c565b01602001517fff0000000000000000000000000000000000000000000000000000000000000016155b15610ae2576000955050505050506103dd565b50909695505050505050565b600060607fd012313ec05aa6a6bc22d36f0842ade3bad99f5d4e28e57728d37e769704a6f7828181610b558860009081527f8c151f2b073b889ff2e1725375750783c091724f29d93246786f4cca8f047dc2602052604090205467ffffffffffffffff1690565b67ffffffffffffffff168152602080820192909252604090810160009081208982529092529020905060015b858111610c695780861615801590610bb1575060008181526020839052604081208054610bad9061278e565b9050115b15610c615780826000838152602001908152602001600020808054610bd59061278e565b80601f0160208091040260200160405190810160405280929190818152602001828054610c019061278e565b8015610c4e5780601f10610c2357610100808354040283529160200191610c4e565b820191906000526020600020905b815481529060010190602001808311610c3157829003601f168201915b5050505050905094509450505050610c83565b60011b610b81565b506000604051806020016040528060008152509350935050505b9250929050565b82610c9481611b0b565b610cb157604051636bd1573560e11b815260040160405180910390fd5b604080518082018252848152602080820185815260008881527f8c151f2b073b889ff2e1725375750783c091724f29d93246786f4cca8f047dc283528481205467ffffffffffffffff1681527fe04980390a4330744402e0f2aca41225cd5b574bcb25e7391b3d537817c7a3ed8084528582208a83528452908590209351845590516001909301929092558251868152908101859052909186917f1d6f5e03d3f63eb58751986629a5439baee5079ff04f345becb66e23eb154e4691015b60405180910390a25050505050565b82610d8881611b0b565b610da557604051636bd1573560e11b815260040160405180910390fd5b7f5377d739b6f12e5d31ad951f0b232e56d8f15e1b57b049f765c20a1f9dd50e778383826000610e0a8960009081527f8c151f2b073b889ff2e1725375750783c091724f29d93246786f4cca8f047dc2602052604090205467ffffffffffffffff1690565b67ffffffffffffffff168152602080820192909252604090810160009081208a8252909252902091610e3d91908361280e565b50847fe379c1624ed7e714cc0937528a32359d69d5281337765313dba4e081b72d75788585604051610d6f929190612942565b600080610e7e83603c6119e5565b90508051600003610e925750600092915050565b610e9b8161203c565b9392505050565b60007f1b165e6cbfcacc2737c05bbb10f628f5b222304c12bbf1df219f65adff1e71697f1b165e6cbfcacc2737c05bbb10f628f5b222304c12bbf1df219f65adff1e716b82610f268660009081527f8c151f2b073b889ff2e1725375750783c091724f29d93246786f4cca8f047dc2602052604090205467ffffffffffffffff1690565b67ffffffffffffffff16815260208082019290925260409081016000908120968152958252808620948652939052505090205461ffff16151590565b60607f8ba2ca4b3c929aed3676d3497c704c474aa7fa7a2cdad3b9a0b948fc3b51d109806000610fc78760009081527f8c151f2b073b889ff2e1725375750783c091724f29d93246786f4cca8f047dc2602052604090205467ffffffffffffffff1690565b67ffffffffffffffff1667ffffffffffffffff1681526020019081526020016000206000868152602001908152602001600020848460405161100a92919061277e565b908152602001604051809103902080546110239061278e565b80601f016020809104026020016040519081016040528092919081815260200182805461104f9061278e565b801561109c5780601f106110715761010080835404028352916020019161109c565b820191906000526020600020905b81548152906001019060200180831161107f57829003601f168201915b50505050509150509392505050565b606060007f1b165e6cbfcacc2737c05bbb10f628f5b222304c12bbf1df219f65adff1e71695b60008481527f8c151f2b073b889ff2e1725375750783c091724f29d93246786f4cca8f047dc2602090815260408083205467ffffffffffffffff168352838252808320878452909152902080549192509061112b9061278e565b80601f01602080910402602001604051908101604052809291908181526020018280546111579061278e565b80156111a45780601f10611179576101008083540402835291602001916111a4565b820191906000526020600020905b81548152906001019060200180831161118757829003601f168201915b5050505050915050919050565b836111bb81611b0b565b6111d857604051636bd1573560e11b815260040160405180910390fd5b836111e460018261276b565b16156111ef57600080fd5b7fd012313ec05aa6a6bc22d36f0842ade3bad99f5d4e28e57728d37e769704a6f783838260006112548a60009081527f8c151f2b073b889ff2e1725375750783c091724f29d93246786f4cca8f047dc2602052604090205467ffffffffffffffff1690565b67ffffffffffffffff168152602080820192909252604090810160009081208b825283528181208a825290925290209161128f91908361280e565b50604051859087907faa121bbeef5f32f5961a2a28966e769023910fc9479059ee3495d4c1a696efe390600090a3505050505050565b606060007f257f6dcfc2b22c8a0070b1c8c7a0593a2c5e06774389504bf35454442acbb7276110d1565b826112f981611b0b565b61131657604051636bd1573560e11b815260040160405180910390fd5b7f257f6dcfc2b22c8a0070b1c8c7a0593a2c5e06774389504bf35454442acbb727838382600061137b8960009081527f8c151f2b073b889ff2e1725375750783c091724f29d93246786f4cca8f047dc2602052604090205467ffffffffffffffff1690565b67ffffffffffffffff168152602080820192909252604090810160009081208a82529092529020916113ae91908361280e565b50847fb7d29e911041e8d9b843369e890bcb72c9388692ba48b65ac54e7214c4c348f78585604051610d6f929190612942565b826113eb81611b0b565b61140857604051636bd1573560e11b815260040160405180910390fd5b60007f8b9ed9fffb49661ffb237191131620d8c71e1c3de4372fd675fea496661f21bb9050847f65412581168e88a1e60c6459d7f44ae83ad0832e670826c05a4e2476b57af752858560405161145f9291906124d8565b60405180910390a2603c84036114c357847f52d7d861f09ab3d26239d492e8968629f95e9e318cf0b73bfddc441522a15fd261149a8561203c565b60405173ffffffffffffffffffffffffffffffffffffffff909116815260200160405180910390a25b60008581527f8c151f2b073b889ff2e1725375750783c091724f29d93246786f4cca8f047dc2602090815260408083205467ffffffffffffffff168352838252808320888452825280832087845290915290206115208482612956565b505050505050565b60607f1b165e6cbfcacc2737c05bbb10f628f5b222304c12bbf1df219f65adff1e71697f1b165e6cbfcacc2737c05bbb10f628f5b222304c12bbf1df219f65adff1e716a60006115ad8760009081527f8c151f2b073b889ff2e1725375750783c091724f29d93246786f4cca8f047dc2602052604090205467ffffffffffffffff1690565b67ffffffffffffffff168152602080820192909252604090810160009081208882528352818120878252835281812061ffff87168252909252902080546110239061278e565b606060007f5377d739b6f12e5d31ad951f0b232e56d8f15e1b57b049f765c20a1f9dd50e776110d1565b6000807fe04980390a4330744402e0f2aca41225cd5b574bcb25e7391b3d537817c7a3ed816116818560009081527f8c151f2b073b889ff2e1725375750783c091724f29d93246786f4cca8f047dc2602052604090205467ffffffffffffffff1690565b67ffffffffffffffff16600090815260209283526040808220968252959092525092909220805460019091015490939092509050565b826116c181611b0b565b6116de57604051636bd1573560e11b815260040160405180910390fd5b60008481527f8c151f2b073b889ff2e1725375750783c091724f29d93246786f4cca8f047dc2602090815260408083205467ffffffffffffffff168084527f1b165e6cbfcacc2737c05bbb10f628f5b222304c12bbf1df219f65adff1e716980845282852089865290935290832080549293919261175b9061278e565b80601f01602080910402602001604051908101604052809291908181526020018280546117879061278e565b80156117d45780601f106117a9576101008083540402835291602001916117d4565b820191906000526020600020905b8154815290600101906020018083116117b757829003601f168201915b5050505067ffffffffffffffff84166000908152602086815260408083208c8452909152902091925061180a905086888361280e565b50867f8f15ed4b723ef428f250961da8315675b507046737e19319fc1a4d81bfe87f8582888860405161183f93929190612a16565b60405180910390a250505050505050565b8161185a81611b0b565b61187757604051636bd1573560e11b815260040160405180910390fd5b61188683603c6102f685612064565b505050565b8261189581611b0b565b6118b257604051636bd1573560e11b815260040160405180910390fd5b7f8916552157e955f70da87359805831767054f7a6cbf77fcc87a45ee38923327c828160006119168860009081527f8c151f2b073b889ff2e1725375750783c091724f29d93246786f4cca8f047dc2602052604090205467ffffffffffffffff1690565b67ffffffffffffffff1681526020808201929092526040908101600090812089825283528181207fffffffff0000000000000000000000000000000000000000000000000000000089168083529084529082902080547fffffffffffffffffffffffff00000000000000000000000000000000000000001673ffffffffffffffffffffffffffffffffffffffff958616179055905192861683529187917f7c69f06bea0bdef565b709e93a147836b0063ba2dd89f02d0b7e8d931e6a6daa910160405180910390a35050505050565b60607f8b9ed9fffb49661ffb237191131620d8c71e1c3de4372fd675fea496661f21bb806000611a4a8660009081527f8c151f2b073b889ff2e1725375750783c091724f29d93246786f4cca8f047dc2602052604090205467ffffffffffffffff1690565b67ffffffffffffffff16815260208082019290925260409081016000908120878252835281812086825290925290208054611a849061278e565b80601f0160208091040260200160405190810160405280929190818152602001828054611ab09061278e565b8015611afd5780601f10611ad257610100808354040283529160200191611afd565b820191906000526020600020905b815481529060010190602001808311611ae057829003601f168201915b505050505091505092915050565b60408051336024820152604480820184905282518083039091018152606490910182526020810180517bffffffffffffffffffffffffffffffffffffffffffffffffffffffff167f25f36704000000000000000000000000000000000000000000000000000000001790529051600091829182913091611b8b9190612739565b600060405180830381855afa9150503d8060008114611bc6576040519150601f19603f3d011682016040523d82523d6000602084013e611bcb565b606091505b509150915081611bdf575060009392505050565b80806020019051810190611bf39190612a46565b949350505050565b611c496040518060e001604052806060815260200160008152602001600061ffff168152602001600061ffff168152602001600063ffffffff16815260200160008152602001600081525090565b82815260c081018290526103dd81611f54565b602081015181516060916103dd91611c74908261209d565b845191906120f7565b60a081015160c08201516060916103dd91611c7490829061276b565b600081518351148015610e9b5750610e9b8360008460008751612179565b865160208801207f1b165e6cbfcacc2737c05bbb10f628f5b222304c12bbf1df219f65adff1e7169906000611ced8888886120f7565b90508415611e1d5767ffffffffffffffff8416600090815260018401602090815260408083208e84528252808320858452825280832061ffff8d16845290915290208054611d3a9061278e565b159050611d9b5767ffffffffffffffff8416600090815260028401602090815260408083208e845282528083208584529091528120805461ffff1691611d7f83612a68565b91906101000a81548161ffff021916908361ffff160217905550505b67ffffffffffffffff8416600090815260018401602090815260408083208e84528252808320858452825280832061ffff8d1684529091528120611dde9161228c565b8a7f03528ed0c2a3ebc993b12ce3c16bb382f9c7d88ef7d8a1bf290eaf35955a12078b8b604051611e10929190612a86565b60405180910390a2611f47565b67ffffffffffffffff8416600090815260018401602090815260408083208e84528252808320858452825280832061ffff8d16845290915290208054611e629061278e565b9050600003611ec55767ffffffffffffffff8416600090815260028401602090815260408083208e845282528083208584529091528120805461ffff1691611ea983612aac565b91906101000a81548161ffff021916908361ffff160217905550505b67ffffffffffffffff8416600090815260018401602090815260408083208e84528252808320858452825280832061ffff8d1684529091529020611f098282612956565b508a7f52a608b3303a48862d07a73d82fa221318c0027fbbcfb1b2329bface3f19ff2b8b8b84604051611f3e93929190612acd565b60405180910390a25b5050505050505050505050565b60c08101516020820181905281515111611f6b5750565b6000611f7f8260000151836020015161209d565b8260200151611f8e9190612afc565b8251909150611f9d908261219c565b61ffff166040830152611fb1600282612afc565b8251909150611fc0908261219c565b61ffff166060830152611fd4600282612afc565b8251909150611fe390826121c4565b63ffffffff166080830152611ff9600482612afc565b825190915060009061200b908361219c565b61ffff16905061201c600283612afc565b60a08401819052915061202f8183612afc565b60c0909301929092525050565b6000815160141461204c57600080fd5b50602001516c01000000000000000000000000900490565b6040805160148082528183019092526060916020820181803683375050506c010000000000000000000000009290920260208301525090565b6000815b835181106120b1576120b1612b0f565b60006120bd85836121ee565b60ff1690506120cd816001612afc565b6120d79083612afc565b9150806000036120e757506120ed565b506120a1565b611bf3838261276b565b82516060906121068385612afc565b111561211157600080fd5b60008267ffffffffffffffff81111561212c5761212c61259c565b6040519080825280601f01601f191660200182016040528015612156576020820181803683370190505b5090506020808201908686010161216e828287612212565b509095945050505050565b6000612186848484612268565b612191878785612268565b149695505050505050565b81516000906121ac836002612afc565b11156121b757600080fd5b50016002015161ffff1690565b81516000906121d4836004612afc565b11156121df57600080fd5b50016004015163ffffffff1690565b60008282815181106122025761220261292c565b016020015160f81c905092915050565b6020811061224a5781518352612229602084612afc565b9250612236602083612afc565b915061224360208261276b565b9050612212565b905182516020929092036101000a6000190180199091169116179052565b82516000906122778385612afc565b111561228257600080fd5b5091016020012090565b5080546122989061278e565b6000825580601f106122a8575050565b601f0160209004906000526020600020908101906122c691906122c9565b50565b5b808211156122de57600081556001016122ca565b5090565b80357fffffffff000000000000000000000000000000000000000000000000000000008116811461231257600080fd5b919050565b60006020828403121561232957600080fd5b610e9b826122e2565b60008083601f84011261234457600080fd5b50813567ffffffffffffffff81111561235c57600080fd5b602083019150836020828501011115610c8357600080fd5b60008060006040848603121561238957600080fd5b83359250602084013567ffffffffffffffff8111156123a757600080fd5b6123b386828701612332565b9497909650939450505050565b6000806000806000606086880312156123d857600080fd5b85359450602086013567ffffffffffffffff808211156123f757600080fd5b61240389838a01612332565b9096509450604088013591508082111561241c57600080fd5b5061242988828901612332565b969995985093965092949392505050565b6000806040838503121561244d57600080fd5b8235915061245d602084016122e2565b90509250929050565b6000806040838503121561247957600080fd5b50508035926020909101359150565b60005b838110156124a357818101518382015260200161248b565b50506000910152565b600081518084526124c4816020860160208601612488565b601f01601f19169290920160200192915050565b828152604060208201526000611bf360408301846124ac565b60008060006060848603121561250657600080fd5b505081359360208301359350604090920135919050565b60006020828403121561252f57600080fd5b5035919050565b602081526000610e9b60208301846124ac565b6000806000806060858703121561255f57600080fd5b8435935060208501359250604085013567ffffffffffffffff81111561258457600080fd5b61259087828801612332565b95989497509550505050565b634e487b7160e01b600052604160045260246000fd5b6000806000606084860312156125c757600080fd5b8335925060208401359150604084013567ffffffffffffffff808211156125ed57600080fd5b818601915086601f83011261260157600080fd5b8135818111156126135761261361259c565b604051601f8201601f19908116603f0116810190838211818310171561263b5761263b61259c565b8160405282815289602084870101111561265457600080fd5b8260208601602083013760006020848301015280955050505050509250925092565b60008060006060848603121561268b57600080fd5b8335925060208401359150604084013561ffff811681146126ab57600080fd5b809150509250925092565b803573ffffffffffffffffffffffffffffffffffffffff8116811461231257600080fd5b600080604083850312156126ed57600080fd5b8235915061245d602084016126b6565b60008060006060848603121561271257600080fd5b83359250612722602085016122e2565b9150612730604085016126b6565b90509250925092565b6000825161274b818460208701612488565b9190910192915050565b634e487b7160e01b600052601160045260246000fd5b818103818111156103dd576103dd612755565b8183823760009101908152919050565b600181811c908216806127a257607f821691505b6020821081036127c257634e487b7160e01b600052602260045260246000fd5b50919050565b601f82111561188657600081815260208120601f850160051c810160208610156127ef5750805b601f850160051c820191505b81811015611520578281556001016127fb565b67ffffffffffffffff8311156128265761282661259c565b61283a83612834835461278e565b836127c8565b6000601f84116001811461286e57600085156128565750838201355b600019600387901b1c1916600186901b1783556128c8565b600083815260209020601f19861690835b8281101561289f578685013582556020948501946001909201910161287f565b50868210156128bc5760001960f88860031b161c19848701351681555b505060018560011b0183555b5050505050565b818352818160208501375060006020828401015260006020601f19601f840116840101905092915050565b60408152600061290e6040830186886128cf565b82810360208401526129218185876128cf565b979650505050505050565b634e487b7160e01b600052603260045260246000fd5b602081526000611bf36020830184866128cf565b815167ffffffffffffffff8111156129705761297061259c565b6129848161297e845461278e565b846127c8565b602080601f8311600181146129b957600084156129a15750858301515b600019600386901b1c1916600185901b178555611520565b600085815260208120601f198616915b828110156129e8578886015182559484019460019091019084016129c9565b5085821015612a065787850151600019600388901b60f8161c191681555b5050505050600190811b01905550565b604081526000612a2960408301866124ac565b8281036020840152612a3c8185876128cf565b9695505050505050565b600060208284031215612a5857600080fd5b81518015158114610e9b57600080fd5b600061ffff821680612a7c57612a7c612755565b6000190192915050565b604081526000612a9960408301856124ac565b905061ffff831660208301529392505050565b600061ffff808316818103612ac357612ac3612755565b6001019392505050565b606081526000612ae060608301866124ac565b61ffff851660208401528281036040840152612a3c81856124ac565b808201808211156103dd576103dd612755565b634e487b7160e01b600052600160045260246000fdfea2646970667358221220f4489233d4cca3b4e4a9708faffa3747a5d9e4a2ad3a79c5abab03ad19777c8864736f6c63430008110033",
  "devdoc": {
    "kind": "dev",
    "methods": {
      "ABI(bytes32,uint256)": {
        "params": {
          "contentTypes": "A bitwise OR of the ABI formats accepted by the caller.",
          "node": "The ENS node to query"
        },
        "returns": {
          "_0": "contentType The content type of the return value",
          "_1": "data The ABI data"
        }
      },
      "addr(bytes32)": {
        "params": {
          "node": "The ENS node to query."
        },
        "returns": {
          "_0": "The associated address."
        }
      },
      "contenthash(bytes32)": {
        "params": {
          "node": "The ENS node to query."
        },
        "returns": {
          "_0": "The associated contenthash."
        }
      },
      "dnsRecord(bytes32,bytes32,uint16)": {
        "params": {
          "name": "the keccak-256 hash of the fully-qualified name for which to fetch the record",
          "node": "the namehash of the node for which to fetch the record",
          "resource": "the ID of the resource as per https://en.wikipedia.org/wiki/List_of_DNS_record_types"
        },
        "returns": {
          "_0": "the DNS record in wire format if present, otherwise empty"
        }
      },
      "hasDNSRecords(bytes32,bytes32)": {
        "params": {
          "name": "the namehash of the node for which to check the records",
          "node": "the namehash of the node for which to check the records"
        }
      },
      "interfaceImplementer(bytes32,bytes4)": {
        "params": {
          "interfaceID": "The EIP 165 interface ID to check for.",
          "node": "The ENS node to query."
        },
        "returns": {
          "_0": "The address that implements this interface, or 0 if the interface is unsupported."
        }
      },
      "name(bytes32)": {
        "params": {
          "node": "The ENS node to query."
        },
        "returns": {
          "_0": "The associated name."
        }
      },
      "pubkey(bytes32)": {
        "params": {
          "node": "The ENS node to query"
        },
        "returns": {
          "x": "The X coordinate of the curve point for the public key.",
          "y": "The Y coordinate of the curve point for the public key."
        }
      },
      "setABI(bytes32,uint256,bytes)": {
        "params": {
          "contentType": "The content type of the ABI",
          "data": "The ABI data.",
          "node": "The node to update."
        }
      },
      "setAddr(bytes32,address)": {
        "params": {
          "a": "The address to set.",
          "node": "The node to update."
        }
      },
      "setContenthash(bytes32,bytes)": {
        "params": {
          "hash": "The contenthash to set",
          "node": "The node to update."
        }
      },
      "setDNSRecords(bytes32,bytes)": {
        "params": {
          "data": "the DNS wire format records to set",
          "node": "the namehash of the node for which to set the records"
        }
      },
      "setInterface(bytes32,bytes4,address)": {
        "params": {
          "implementer": "The address of a contract that implements this interface for this node.",
          "interfaceID": "The EIP 165 interface ID.",
          "node": "The node to update."
        }
      },
      "setName(bytes32,string)": {
        "params": {
          "node": "The node to update."
        }
      },
      "setPubkey(bytes32,bytes32,bytes32)": {
        "params": {
          "node": "The ENS node to query",
          "x": "the X coordinate of the curve point for the public key.",
          "y": "the Y coordinate of the curve point for the public key."
        }
      },
      "setText(bytes32,string,string)": {
        "params": {
          "key": "The key to set.",
          "node": "The node to update.",
          "value": "The text data value to set."
        }
      },
      "setZonehash(bytes32,bytes)": {
        "params": {
          "hash": "The zonehash to set",
          "node": "The node to update."
        }
      },
      "text(bytes32,string)": {
        "params": {
          "key": "The text data key to query.",
          "node": "The ENS node to query."
        },
        "returns": {
          "_0": "The associated text data."
        }
      },
      "zonehash(bytes32)": {
        "params": {
          "node": "The ENS node to query."
        },
        "returns": {
          "_0": "The associated contenthash."
        }
      }
    },
    "version": 1
  },
  "userdoc": {
    "kind": "user",
    "methods": {
      "ABI(bytes32,uint256)": {
        "notice": "Returns the ABI associated with an ENS node. Defined in EIP205."
      },
      "addr(bytes32)": {
        "notice": "Returns the address associated with an ENS node."
      },
      "contenthash(bytes32)": {
        "notice": "Returns the contenthash associated with an ENS node."
      },
      "dnsRecord(bytes32,bytes32,uint16)": {
        "notice": "Obtain a DNS record."
      },
      "hasDNSRecords(bytes32,bytes32)": {
        "notice": "Check if a given node has records."
      },
      "interfaceImplementer(bytes32,bytes4)": {
        "notice": "Returns the address of a contract that implements the specified interface for this name. If an implementer has not been set for this interfaceID and name, the resolver will query the contract at `addr()`. If `addr()` is set, a contract exists at that address, and that contract implements EIP165 and returns `true` for the specified interfaceID, its address will be returned."
      },
      "name(bytes32)": {
        "notice": "Returns the name associated with an ENS node, for reverse records. Defined in EIP181."
      },
      "pubkey(bytes32)": {
        "notice": "Returns the SECP256k1 public key associated with an ENS node. Defined in EIP 619."
      },
      "setABI(bytes32,uint256,bytes)": {
        "notice": "Sets the ABI associated with an ENS node. Nodes may have one ABI of each content type. To remove an ABI, set it to the empty string."
      },
      "setAddr(bytes32,address)": {
        "notice": "Sets the address associated with an ENS node. May only be called by the owner of that node in the ENS registry."
      },
      "setContenthash(bytes32,bytes)": {
        "notice": "Sets the contenthash associated with an ENS node. May only be called by the owner of that node in the ENS registry."
      },
      "setDNSRecords(bytes32,bytes)": {
        "notice": "Set one or more DNS records.  Records are supplied in wire-format. Records with the same node/name/resource must be supplied one after the other to ensure the data is updated correctly. For example, if the data was supplied:     a.example.com IN A 1.2.3.4     a.example.com IN A 5.6.7.8     www.example.com IN CNAME a.example.com. then this would store the two A records for a.example.com correctly as a single RRSET, however if the data was supplied:     a.example.com IN A 1.2.3.4     www.example.com IN CNAME a.example.com.     a.example.com IN A 5.6.7.8 then this would store the first A record, the CNAME, then the second A record which would overwrite the first."
      },
      "setInterface(bytes32,bytes4,address)": {
        "notice": "Sets an interface associated with a name. Setting the address to 0 restores the default behaviour of querying the contract at `addr()` for interface support."
      },
      "setName(bytes32,string)": {
        "notice": "Sets the name associated with an ENS node, for reverse records. May only be called by the owner of that node in the ENS registry."
      },
      "setPubkey(bytes32,bytes32,bytes32)": {
        "notice": "Sets the SECP256k1 public key associated with an ENS node."
      },
      "setText(bytes32,string,string)": {
        "notice": "Sets the text data associated with an ENS node and key. May only be called by the owner of that node in the ENS registry."
      },
      "setZonehash(bytes32,bytes)": {
        "notice": "setZonehash sets the hash for the zone. May only be called by the owner of that node in the ENS registry."
      },
      "text(bytes32,string)": {
        "notice": "Returns the text data associated with an ENS node and key."
      },
      "zonehash(bytes32)": {
        "notice": "zonehash obtains the hash for the zone."
      }
    },
    "version": 1
  },
  "storageLayout": {
    "storage": [],
    "types": null
  }
}