{
  "address": "0x3A41776b62bB715a32EC4Bb3FfED618f4C5683a5",
  "abi": [
    {
      "anonymous": false,
      "inputs": [
        {
          "indexed": true,
          "internalType": "bytes32",
          "name": "node",
          "type": "bytes32"
        },
        {
          "indexed": true,
          "internalType": "uint256",
          "name": "contentType",
          "type": "uint256"
        }
      ],
      "name": "ABIChanged",
      "type": "event"
    },
    {
      "anonymous": false,
      "inputs": [
        {
          "indexed": true,
          "internalType": "bytes32",
          "name": "node",
          "type": "bytes32"
        },
        {
          "indexed": false,
          "internalType": "address",
          "name": "a",
          "type": "address"
        }
      ],
      "name": "AddrChanged",
      "type": "event"
    },
    {
      "anonymous": false,
      "inputs": [
        {
          "indexed": true,
          "internalType": "bytes32",
          "name": "node",
          "type": "bytes32"
        },
        {
          "indexed": false,
          "internalType": "uint256",
          "name": "coinType",
          "type": "uint256"
        },
        {
          "indexed": false,
          "internalType": "bytes",
          "name": "newAddress",
          "type": "bytes"
        }
      ],
      "name": "AddressChanged",
      "type": "event"
    },
    {
      "anonymous": false,
      "inputs": [
        {
          "indexed": true,
          "internalType": "bytes32",
          "name": "node",
          "type": "bytes32"
        },
        {
          "indexed": false,
          "internalType": "bytes",
          "name": "hash",
          "type": "bytes"
        }
      ],
      "name": "ContenthashChanged",
      "type": "event"
    },
    {
      "anonymous": false,
      "inputs": [
        {
          "indexed": true,
          "internalType": "bytes32",
          "name": "node",
          "type": "bytes32"
        },
        {
          "indexed": false,
          "internalType": "bytes",
          "name": "name",
          "type": "bytes"
        },
        {
          "indexed": false,
          "internalType": "uint16",
          "name": "resource",
          "type": "uint16"
        },
        {
          "indexed": false,
          "internalType": "bytes",
          "name": "record",
          "type": "bytes"
        }
      ],
      "name": "DNSRecordChanged",
      "type": "event"
    },
    {
      "anonymous": false,
      "inputs": [
        {
          "indexed": true,
          "internalType": "bytes32",
          "name": "node",
          "type": "bytes32"
        },
        {
          "indexed": false,
          "internalType": "bytes",
          "name": "name",
          "type": "bytes"
        },
        {
          "indexed": false,
          "internalType": "uint16",
          "name": "resource",
          "type": "uint16"
        }
      ],
      "name": "DNSRecordDeleted",
      "type": "event"
    },
    {
      "anonymous": false,
      "inputs": [
        {
          "indexed": true,
          "internalType": "bytes32",
          "name": "node",
          "type": "bytes32"
        },
        {
          "indexed": false,
          "internalType": "bytes",
          "name": "lastzonehash",
          "type": "bytes"
        },
        {
          "indexed": false,
          "internalType": "bytes",
          "name": "zonehash",
          "type": "bytes"
        }
      ],
      "name": "DNSZonehashChanged",
      "type": "event"
    },
    {
      "anonymous": false,
      "inputs": [
        {
          "indexed": true,
          "internalType": "bytes32",
          "name": "node",
          "type": "bytes32"
        },
        {
          "indexed": true,
          "internalType": "bytes4",
          "name": "interfaceID",
          "type": "bytes4"
        },
        {
          "indexed": false,
          "internalType": "address",
          "name": "implementer",
          "type": "address"
        }
      ],
      "name": "InterfaceChanged",
      "type": "event"
    },
    {
      "anonymous": false,
      "inputs": [
        {
          "indexed": true,
          "internalType": "bytes32",
          "name": "node",
          "type": "bytes32"
        },
        {
          "indexed": false,
          "internalType": "string",
          "name": "name",
          "type": "string"
        }
      ],
      "name": "NameChanged",
      "type": "event"
    },
    {
      "anonymous": false,
      "inputs": [
        {
          "indexed": true,
          "internalType": "bytes32",
          "name": "node",
          "type": "bytes32"
        },
        {
          "indexed": false,
          "internalType": "bytes32",
          "name": "x",
          "type": "bytes32"
        },
        {
          "indexed": false,
          "internalType": "bytes32",
          "name": "y",
          "type": "bytes32"
        }
      ],
      "name": "PubkeyChanged",
      "type": "event"
    },
    {
      "anonymous": false,
      "inputs": [
        {
          "indexed": true,
          "internalType": "bytes32",
          "name": "node",
          "type": "bytes32"
        },
        {
          "indexed": true,
          "internalType": "string",
          "name": "indexedKey",
          "type": "string"
        },
        {
          "indexed": false,
          "internalType": "string",
          "name": "key",
          "type": "string"
        },
        {
          "indexed": false,
          "internalType": "string",
          "name": "value",
          "type": "string"
        }
      ],
      "name": "TextChanged",
      "type": "event"
    },
    {
      "anonymous": false,
      "inputs": [
        {
          "indexed": true,
          "internalType": "bytes32",
          "name": "node",
          "type": "bytes32"
        },
        {
          "indexed": false,
          "internalType": "uint64",
          "name": "newVersion",
          "type": "uint64"
        }
      ],
      "name": "VersionChanged",
      "type": "event"
    },
    {
      "inputs": [
        {
          "internalType": "bytes32",
          "name": "node",
          "type": "bytes32"
        },
        {
          "internalType": "uint256",
          "name": "contentTypes",
          "type": "uint256"
        }
      ],
      "name": "ABI",
      "outputs": [
        {
          "internalType": "uint256",
          "name": "",
          "type": "uint256"
        },
        {
          "internalType": "bytes",
          "name": "",
          "type": "bytes"
        }
      ],
      "stateMutability": "view",
      "type": "function"
    },
    {
      "inputs": [
        {
          "internalType": "bytes32",
          "name": "node",
          "type": "bytes32"
        }
      ],
      "name": "addr",
      "outputs": [
        {
          "internalType": "address payable",
          "name": "",
          "type": "address"
        }
      ],
      "stateMutability": "view",
      "type": "function"
    },
    {
      "inputs": [
        {
          "internalType": "bytes32",
          "name": "node",
          "type": "bytes32"
        },
        {
          "internalType": "uint256",
          "name": "coinType",
          "type": "uint256"
        }
      ],
      "name": "addr",
      "outputs": [
        {
          "internalType": "bytes",
          "name": "",
          "type": "bytes"
        }
      ],
      "stateMutability": "view",
      "type": "function"
    },
    {
      "inputs": [
        {
          "internalType": "bytes32",
          "name": "node",
          "type": "bytes32"
        }
      ],
      "name": "contenthash",
      "outputs": [
        {
          "internalType": "bytes",
          "name": "",
          "type": "bytes"
        }
      ],
      "stateMutability": "view",
      "type": "function"
    },
    {
      "inputs": [
        {
          "internalType": "bytes32",
          "name": "node",
          "type": "bytes32"
        },
        {
          "internalType": "bytes32",
          "name": "name",
          "type": "bytes32"
        },
        {
          "internalType": "uint16",
          "name": "resource",
          "type": "uint16"
        }
      ],
      "name": "dnsRecord",
      "outputs": [
        {
          "internalType": "bytes",
          "name": "",
          "type": "bytes"
        }
      ],
      "stateMutability": "view",
      "type": "function"
    },
    {
      "inputs": [
        {
          "internalType": "bytes32",
          "name": "node",
          "type": "bytes32"
        },
        {
          "internalType": "bytes32",
          "name": "name",
          "type": "bytes32"
        }
      ],
      "name": "hasDNSRecords",
      "outputs": [
        {
          "internalType": "bool",
          "name": "",
          "type": "bool"
        }
      ],
      "stateMutability": "view",
      "type": "function"
    },
    {
      "inputs": [
        {
          "internalType": "bytes32",
          "name": "node",
          "type": "bytes32"
        },
        {
          "internalType": "bytes4",
          "name": "interfaceID",
          "type": "bytes4"
        }
      ],
      "name": "interfaceImplementer",
      "outputs": [
        {
          "internalType": "address",
          "name": "",
          "type": "address"
        }
      ],
      "stateMutability": "view",
      "type": "function"
    },
    {
      "inputs": [
        {
          "internalType": "bytes32",
          "name": "node",
          "type": "bytes32"
        }
      ],
      "name": "name",
      "outputs": [
        {
          "internalType": "string",
          "name": "",
          "type": "string"
        }
      ],
      "stateMutability": "view",
      "type": "function"
    },
    {
      "inputs": [
        {
          "internalType": "bytes32",
          "name": "node",
          "type": "bytes32"
        }
      ],
      "name": "pubkey",
      "outputs": [
        {
          "internalType": "bytes32",
          "name": "x",
          "type": "bytes32"
        },
        {
          "internalType": "bytes32",
          "name": "y",
          "type": "bytes32"
        }
      ],
      "stateMutability": "view",
      "type": "function"
    },
    {
      "inputs": [
        {
          "internalType": "bytes32",
          "name": "node",
          "type": "bytes32"
        },
        {
          "internalType": "uint256",
          "name": "contentType",
          "type": "uint256"
        },
        {
          "internalType": "bytes",
          "name": "data",
          "type": "bytes"
        }
      ],
      "name": "setABI",
      "outputs": [],
      "stateMutability": "nonpayable",
      "type": "function"
    },
    {
      "inputs": [
        {
          "internalType": "bytes32",
          "name": "node",
          "type": "bytes32"
        },
        {
          "internalType": "uint256",
          "name": "coinType",
          "type": "uint256"
        },
        {
          "internalType": "bytes",
          "name": "a",
          "type": "bytes"
        }
      ],
      "name": "setAddr",
      "outputs": [],
      "stateMutability": "nonpayable",
      "type": "function"
    },
    {
      "inputs": [
        {
          "internalType": "bytes32",
          "name": "node",
          "type": "bytes32"
        },
        {
          "internalType": "address",
          "name": "a",
          "type": "address"
        }
      ],
      "name": "setAddr",
      "outputs": [],
      "stateMutability": "nonpayable",
      "type": "function"
    },
    {
      "inputs": [
        {
          "internalType": "bytes32",
          "name": "node",
          "type": "bytes32"
        },
        {
          "internalType": "bytes",
          "name": "hash",
          "type": "bytes"
        }
      ],
      "name": "setContenthash",
      "outputs": [],
      "stateMutability": "nonpayable",
      "type": "function"
    },
    {
      "inputs": [
        {
          "internalType": "bytes32",
          "name": "node",
          "type": "bytes32"
        },
        {
          "internalType": "bytes",
          "name": "data",
          "type": "bytes"
        }
      ],
      "name": "setDNSRecords",
      "outputs": [],
      "stateMutability": "nonpayable",
      "type": "function"
    },
    {
      "inputs": [
        {
          "internalType": "bytes32",
          "name": "node",
          "type": "bytes32"
        },
        {
          "internalType": "bytes4",
          "name": "interfaceID",
          "type": "bytes4"
        },
        {
          "internalType": "address",
          "name": "implementer",
          "type": "address"
        }
      ],
      "name": "setInterface",
      "outputs": [],
      "stateMutability": "nonpayable",
      "type": "function"
    },
    {
      "inputs": [
        {
          "internalType": "bytes32",
          "name": "node",
          "type": "bytes32"
        },
        {
          "internalType": "string",
          "name": "newName",
          "type": "string"
        }
      ],
      "name": "setName",
      "outputs": [],
      "stateMutability": "nonpayable",
      "type": "function"
    },
    {
      "inputs": [
        {
          "internalType": "bytes32",
          "name": "node",
          "type": "bytes32"
        },
        {
          "internalType": "bytes32",
          "name": "x",
          "type": "bytes32"
        },
        {
          "internalType": "bytes32",
          "name": "y",
          "type": "bytes32"
        }
      ],
      "name": "setPubkey",
      "outputs": [],
      "stateMutability": "nonpayable",
      "type": "function"
    },
    {
      "inputs": [
        {
          "internalType": "bytes32",
          "name": "node",
          "type": "bytes32"
        },
        {
          "internalType": "string",
          "name": "key",
          "type": "string"
        },
        {
          "internalType": "string",
          "name": "value",
          "type": "string"
        }
      ],
      "name": "setText",
      "outputs": [],
      "stateMutability": "nonpayable",
      "type": "function"
    },
    {
      "inputs": [
        {
          "internalType": "bytes32",
          "name": "node",
          "type": "bytes32"
        },
        {
          "internalType": "bytes",
          "name": "hash",
          "type": "bytes"
        }
      ],
      "name": "setZonehash",
      "outputs": [],
      "stateMutability": "nonpayable",
      "type": "function"
    },
    {
      "inputs": [
        {
          "internalType": "bytes4",
          "name": "interfaceID",
          "type": "bytes4"
        }
      ],
      "name": "supportsInterface",
      "outputs": [
        {
          "internalType": "bool",
          "name": "",
          "type": "bool"
        }
      ],
      "stateMutability": "view",
      "type": "function"
    },
    {
      "inputs": [
        {
          "internalType": "bytes32",
          "name": "node",
          "type": "bytes32"
        },
        {
          "internalType": "string",
          "name": "key",
          "type": "string"
        }
      ],
      "name": "text",
      "outputs": [
        {
          "internalType": "string",
          "name": "",
          "type": "string"
        }
      ],
      "stateMutability": "view",
      "type": "function"
    },
    {
      "inputs": [
        {
          "internalType": "bytes32",
          "name": "node",
          "type": "bytes32"
        }
      ],
      "name": "zonehash",
      "outputs": [
        {
          "internalType": "bytes",
          "name": "",
          "type": "bytes"
        }
      ],
      "stateMutability": "view",
      "type": "function"
    }
  ],
  "transactionHash": "0xbeb451de50e8c7cf5bdc29e57d296353a7dc7283453ce1fef41a37e5232f98da",
  "args": [],
  "numDeployments": 1,
  "solcInputHash": "4c4f56c72ab6b944182b99a285d1fc40",
  "bytecode": "0x608060405234801561001057600080fd5b50612b93806100206000396000f3fe608060405234801561001057600080fd5b50600436106101825760003560e01c8063623195b0116100d8578063bc1c58d11161008c578063d5fa2b0011610066578063d5fa2b001461034f578063e59d895d14610362578063f1cb7e061461037557600080fd5b8063bc1c58d114610301578063c869023314610314578063ce3decdc1461033c57600080fd5b806377372213116100bd57806377372213146102c85780638b95dd71146102db578063a8fa5682146102ee57600080fd5b8063623195b0146102a2578063691f3431146102b557600080fd5b806329cd62ea1161013a5780634cbf6ba4116101145780634cbf6ba41461025c57806359d1d43c1461026f5780635c98042b1461028f57600080fd5b806329cd62ea14610223578063304e6ade146102365780633b3b57de1461024957600080fd5b806310f13a8c1161016b57806310f13a8c146101c4578063124a319c146101d75780632203ab561461020257600080fd5b806301ffc9a7146101875780630af179d7146101af575b600080fd5b61019a61019536600461235d565b610388565b60405190151581526020015b60405180910390f35b6101c26101bd3660046123ba565b6103d6565b005b6101c26101d2366004612406565b61060a565b6101ea6101e5366004612480565b610740565b6040516001600160a01b0390911681526020016101a6565b6102156102103660046124ac565b610a85565b6040516101a692919061251e565b6101c2610231366004612537565b610c21565b6101c26102443660046123ba565b610d01565b6101ea610257366004612563565b610ddf565b61019a61026a3660046124ac565b610e11565b61028261027d3660046123ba565b610ed1565b6040516101a6919061257c565b61028261029d366004612563565b61101a565b6101c26102b036600461258f565b611120565b6102826102c3366004612563565b611220565b6101c26102d63660046123ba565b61124a565b6101c26102e93660046125f8565b611328565b6102826102fc3660046126bc565b61144e565b61028261030f366004612563565b611519565b610327610322366004612563565b611543565b604080519283526020830191909152016101a6565b6101c261034a3660046123ba565b6115dd565b6101c261035d366004612711565b611762565b6101c2610370366004612741565b611789565b6102826103833660046124ac565b6118c2565b60007f59d1d43c000000000000000000000000000000000000000000000000000000007fffffffff000000000000000000000000000000000000000000000000000000008316145b92915050565b826103e0816119e8565b6103e957600080fd5b6000806060806000806104318a60009081527f8c151f2b073b889ff2e1725375750783c091724f29d93246786f4cca8f047dc3602052604090205467ffffffffffffffff1690565b9050600061047960008b8b8080601f0160208091040260200160405190810160405280939291908181526020018383808284376000920191909152509293925050611a369050565b90505b805151602082015110156105a3578661ffff166000036104e157806040015196506104a681611a97565b9450846040516020016104b99190612776565b6040516020818303038152906040528051906020012092506104da81611ab8565b9350610595565b60006104ec82611a97565b9050816040015161ffff168861ffff16141580610510575061050e8682611ad4565b155b156105935761056c8c878a8e8e8080601f016020809104026020016040519081016040528093929190818152602001838380828437600092019190915250505060208801518d91506105639082906127a8565b8b51158a611af2565b81604001519750816020015196508095508580519060200120935061059082611ab8565b94505b505b61059e81611d8f565b61047c565b508351156105fe576105fe8a85888c8c8080601f0160208091040260200160405190810160405280939291908181526020018383808284376000920191909152508c92506105f591508290508f6127a8565b89511588611af2565b50505050505050505050565b84610614816119e8565b61061d57600080fd5b7f8ba2ca4b3c929aed3676d3497c704c474aa7fa7a2cdad3b9a0b948fc3b51d10983838260006106828b60009081527f8c151f2b073b889ff2e1725375750783c091724f29d93246786f4cca8f047dc3602052604090205467ffffffffffffffff1690565b67ffffffffffffffff1667ffffffffffffffff16815260200190815260200160002060008a815260200190815260200160002088886040516106c59291906127bb565b908152602001604051809103902091826106e092919061284b565b5085856040516106f19291906127bb565b6040518091039020877f448bc014f1536726cf8d54ff3d6481ed3cbc683c2591ca204274009afa09b1a18888888860405161072f9493929190612937565b60405180910390a350505050505050565b60007f8916552157e955f70da87359805831767054f7a6cbf77fcc87a45ee38923327c8181816107a58760009081527f8c151f2b073b889ff2e1725375750783c091724f29d93246786f4cca8f047dc3602052604090205467ffffffffffffffff1690565b67ffffffffffffffff1681526020808201929092526040908101600090812088825283528181207fffffffff00000000000000000000000000000000000000000000000000000000881682529092529020546001600160a01b0316905080156108115791506103d09050565b600061081c86610ddf565b90506001600160a01b03811661083857600093505050506103d0565b6040516301ffc9a760e01b602482015260009081906001600160a01b0384169060440160408051601f198184030181529181526020820180517bffffffffffffffffffffffffffffffffffffffffffffffffffffffff166301ffc9a760e01b179052516108a59190612776565b600060405180830381855afa9150503d80600081146108e0576040519150601f19603f3d011682016040523d82523d6000602084013e6108e5565b606091505b50915091508115806108f8575060208151105b8061093a575080601f8151811061091157610911612969565b01602001517fff0000000000000000000000000000000000000000000000000000000000000016155b1561094d576000955050505050506103d0565b6040517fffffffff00000000000000000000000000000000000000000000000000000000881660248201526001600160a01b0384169060440160408051601f198184030181529181526020820180517bffffffffffffffffffffffffffffffffffffffffffffffffffffffff166301ffc9a760e01b179052516109d09190612776565b600060405180830381855afa9150503d8060008114610a0b576040519150601f19603f3d011682016040523d82523d6000602084013e610a10565b606091505b509092509050811580610a24575060208151105b80610a66575080601f81518110610a3d57610a3d612969565b01602001517fff0000000000000000000000000000000000000000000000000000000000000016155b15610a79576000955050505050506103d0565b50909695505050505050565b600060607fd012313ec05aa6a6bc22d36f0842ade3bad99f5d4e28e57728d37e769704a6f7828181610aec8860009081527f8c151f2b073b889ff2e1725375750783c091724f29d93246786f4cca8f047dc3602052604090205467ffffffffffffffff1690565b67ffffffffffffffff168152602080820192909252604090810160009081208982529092529020905060015b858111610c005780861615801590610b48575060008181526020839052604081208054610b44906127cb565b9050115b15610bf85780826000838152602001908152602001600020808054610b6c906127cb565b80601f0160208091040260200160405190810160405280929190818152602001828054610b98906127cb565b8015610be55780601f10610bba57610100808354040283529160200191610be5565b820191906000526020600020905b815481529060010190602001808311610bc857829003601f168201915b5050505050905094509450505050610c1a565b60011b610b18565b506000604051806020016040528060008152509350935050505b9250929050565b82610c2b816119e8565b610c3457600080fd5b604080518082018252848152602080820185815260008881527f8c151f2b073b889ff2e1725375750783c091724f29d93246786f4cca8f047dc383528481205467ffffffffffffffff1681527fe04980390a4330744402e0f2aca41225cd5b574bcb25e7391b3d537817c7a3ed8084528582208a83528452908590209351845590516001909301929092558251868152908101859052909186917f1d6f5e03d3f63eb58751986629a5439baee5079ff04f345becb66e23eb154e4691015b60405180910390a25050505050565b82610d0b816119e8565b610d1457600080fd5b7f5377d739b6f12e5d31ad951f0b232e56d8f15e1b57b049f765c20a1f9dd50e778383826000610d798960009081527f8c151f2b073b889ff2e1725375750783c091724f29d93246786f4cca8f047dc3602052604090205467ffffffffffffffff1690565b67ffffffffffffffff168152602080820192909252604090810160009081208a8252909252902091610dac91908361284b565b50847fe379c1624ed7e714cc0937528a32359d69d5281337765313dba4e081b72d75788585604051610cf292919061297f565b600080610ded83603c6118c2565b90508051600003610e015750600092915050565b610e0a81611e77565b9392505050565b60007f1b165e6cbfcacc2737c05bbb10f628f5b222304c12bbf1df219f65adff1e71697f1b165e6cbfcacc2737c05bbb10f628f5b222304c12bbf1df219f65adff1e716b82610e958660009081527f8c151f2b073b889ff2e1725375750783c091724f29d93246786f4cca8f047dc3602052604090205467ffffffffffffffff1690565b67ffffffffffffffff16815260208082019290925260409081016000908120968152958252808620948652939052505090205461ffff16151590565b60607f8ba2ca4b3c929aed3676d3497c704c474aa7fa7a2cdad3b9a0b948fc3b51d109806000610f368760009081527f8c151f2b073b889ff2e1725375750783c091724f29d93246786f4cca8f047dc3602052604090205467ffffffffffffffff1690565b67ffffffffffffffff1667ffffffffffffffff16815260200190815260200160002060008681526020019081526020016000208484604051610f799291906127bb565b90815260200160405180910390208054610f92906127cb565b80601f0160208091040260200160405190810160405280929190818152602001828054610fbe906127cb565b801561100b5780601f10610fe05761010080835404028352916020019161100b565b820191906000526020600020905b815481529060010190602001808311610fee57829003601f168201915b50505050509150509392505050565b606060007f1b165e6cbfcacc2737c05bbb10f628f5b222304c12bbf1df219f65adff1e71695b60008481527f8c151f2b073b889ff2e1725375750783c091724f29d93246786f4cca8f047dc3602090815260408083205467ffffffffffffffff168352838252808320878452909152902080549192509061109a906127cb565b80601f01602080910402602001604051908101604052809291908181526020018280546110c6906127cb565b80156111135780601f106110e857610100808354040283529160200191611113565b820191906000526020600020905b8154815290600101906020018083116110f657829003601f168201915b5050505050915050919050565b8361112a816119e8565b61113357600080fd5b8361113f6001826127a8565b161561114a57600080fd5b7fd012313ec05aa6a6bc22d36f0842ade3bad99f5d4e28e57728d37e769704a6f783838260006111af8a60009081527f8c151f2b073b889ff2e1725375750783c091724f29d93246786f4cca8f047dc3602052604090205467ffffffffffffffff1690565b67ffffffffffffffff168152602080820192909252604090810160009081208b825283528181208a82529092529020916111ea91908361284b565b50604051859087907faa121bbeef5f32f5961a2a28966e769023910fc9479059ee3495d4c1a696efe390600090a3505050505050565b606060007f257f6dcfc2b22c8a0070b1c8c7a0593a2c5e06774389504bf35454442acbb727611040565b82611254816119e8565b61125d57600080fd5b7f257f6dcfc2b22c8a0070b1c8c7a0593a2c5e06774389504bf35454442acbb72783838260006112c28960009081527f8c151f2b073b889ff2e1725375750783c091724f29d93246786f4cca8f047dc3602052604090205467ffffffffffffffff1690565b67ffffffffffffffff168152602080820192909252604090810160009081208a82529092529020916112f591908361284b565b50847fb7d29e911041e8d9b843369e890bcb72c9388692ba48b65ac54e7214c4c348f78585604051610cf292919061297f565b82611332816119e8565b61133b57600080fd5b60007f8b9ed9fffb49661ffb237191131620d8c71e1c3de4372fd675fea496661f21bb9050847f65412581168e88a1e60c6459d7f44ae83ad0832e670826c05a4e2476b57af752858560405161139292919061251e565b60405180910390a2603c84036113e957847f52d7d861f09ab3d26239d492e8968629f95e9e318cf0b73bfddc441522a15fd26113cd85611e77565b6040516001600160a01b03909116815260200160405180910390a25b60008581527f8c151f2b073b889ff2e1725375750783c091724f29d93246786f4cca8f047dc3602090815260408083205467ffffffffffffffff168352838252808320888452825280832087845290915290206114468482612993565b505050505050565b60607f1b165e6cbfcacc2737c05bbb10f628f5b222304c12bbf1df219f65adff1e71697f1b165e6cbfcacc2737c05bbb10f628f5b222304c12bbf1df219f65adff1e716a60006114d38760009081527f8c151f2b073b889ff2e1725375750783c091724f29d93246786f4cca8f047dc3602052604090205467ffffffffffffffff1690565b67ffffffffffffffff168152602080820192909252604090810160009081208882528352818120878252835281812061ffff8716825290925290208054610f92906127cb565b606060007f5377d739b6f12e5d31ad951f0b232e56d8f15e1b57b049f765c20a1f9dd50e77611040565b6000807fe04980390a4330744402e0f2aca41225cd5b574bcb25e7391b3d537817c7a3ed816115a78560009081527f8c151f2b073b889ff2e1725375750783c091724f29d93246786f4cca8f047dc3602052604090205467ffffffffffffffff1690565b67ffffffffffffffff16600090815260209283526040808220968252959092525092909220805460019091015490939092509050565b826115e7816119e8565b6115f057600080fd5b60008481527f8c151f2b073b889ff2e1725375750783c091724f29d93246786f4cca8f047dc3602090815260408083205467ffffffffffffffff168084527f1b165e6cbfcacc2737c05bbb10f628f5b222304c12bbf1df219f65adff1e716980845282852089865290935290832080549293919261166d906127cb565b80601f0160208091040260200160405190810160405280929190818152602001828054611699906127cb565b80156116e65780601f106116bb576101008083540402835291602001916116e6565b820191906000526020600020905b8154815290600101906020018083116116c957829003601f168201915b5050505067ffffffffffffffff84166000908152602086815260408083208c8452909152902091925061171c905086888361284b565b50867f8f15ed4b723ef428f250961da8315675b507046737e19319fc1a4d81bfe87f8582888860405161175193929190612a53565b60405180910390a250505050505050565b8161176c816119e8565b61177557600080fd5b61178483603c6102e985611e9f565b505050565b82611793816119e8565b61179c57600080fd5b7f8916552157e955f70da87359805831767054f7a6cbf77fcc87a45ee38923327c828160006118008860009081527f8c151f2b073b889ff2e1725375750783c091724f29d93246786f4cca8f047dc3602052604090205467ffffffffffffffff1690565b67ffffffffffffffff1681526020808201929092526040908101600090812089825283528181207fffffffff0000000000000000000000000000000000000000000000000000000089168083529084529082902080547fffffffffffffffffffffffff0000000000000000000000000000000000000000166001600160a01b03958616179055905192861683529187917f7c69f06bea0bdef565b709e93a147836b0063ba2dd89f02d0b7e8d931e6a6daa910160405180910390a35050505050565b60607f8b9ed9fffb49661ffb237191131620d8c71e1c3de4372fd675fea496661f21bb8060006119278660009081527f8c151f2b073b889ff2e1725375750783c091724f29d93246786f4cca8f047dc3602052604090205467ffffffffffffffff1690565b67ffffffffffffffff16815260208082019290925260409081016000908120878252835281812086825290925290208054611961906127cb565b80601f016020809104026020016040519081016040528092919081815260200182805461198d906127cb565b80156119da5780601f106119af576101008083540402835291602001916119da565b820191906000526020600020905b8154815290600101906020018083116119bd57829003601f168201915b505050505091505092915050565b60007f8c151f2b073b889ff2e1725375750783c091724f29d93246786f4cca8f047dbe611a1483611ed8565b80610e0a575033600090815260028201602052604090205460ff169392505050565b611a846040518060e001604052806060815260200160008152602001600061ffff168152602001600061ffff168152602001600063ffffffff16815260200160008152602001600081525090565b82815260c081018290526103d081611d8f565b602081015181516060916103d091611aaf90826120e3565b8451919061213d565b60a081015160c08201516060916103d091611aaf9082906127a8565b600081518351148015610e0a5750610e0a83600084600087516121bf565b865160208801207f1b165e6cbfcacc2737c05bbb10f628f5b222304c12bbf1df219f65adff1e7169906000611b2888888861213d565b90508415611c585767ffffffffffffffff8416600090815260018401602090815260408083208e84528252808320858452825280832061ffff8d16845290915290208054611b75906127cb565b159050611bd65767ffffffffffffffff8416600090815260028401602090815260408083208e845282528083208584529091528120805461ffff1691611bba83612a83565b91906101000a81548161ffff021916908361ffff160217905550505b67ffffffffffffffff8416600090815260018401602090815260408083208e84528252808320858452825280832061ffff8d1684529091528120611c19916122d2565b8a7f03528ed0c2a3ebc993b12ce3c16bb382f9c7d88ef7d8a1bf290eaf35955a12078b8b604051611c4b929190612aa1565b60405180910390a2611d82565b67ffffffffffffffff8416600090815260018401602090815260408083208e84528252808320858452825280832061ffff8d16845290915290208054611c9d906127cb565b9050600003611d005767ffffffffffffffff8416600090815260028401602090815260408083208e845282528083208584529091528120805461ffff1691611ce483612ac7565b91906101000a81548161ffff021916908361ffff160217905550505b67ffffffffffffffff8416600090815260018401602090815260408083208e84528252808320858452825280832061ffff8d1684529091529020611d448282612993565b508a7f52a608b3303a48862d07a73d82fa221318c0027fbbcfb1b2329bface3f19ff2b8b8b84604051611d7993929190612ae8565b60405180910390a25b5050505050505050505050565b60c08101516020820181905281515111611da65750565b6000611dba826000015183602001516120e3565b8260200151611dc99190612b17565b8251909150611dd890826121e2565b61ffff166040830152611dec600282612b17565b8251909150611dfb90826121e2565b61ffff166060830152611e0f600282612b17565b8251909150611e1e908261220a565b63ffffffff166080830152611e34600482612b17565b8251909150600090611e4690836121e2565b61ffff169050611e57600283612b17565b60a084018190529150611e6a8183612b17565b60c0909301929092525050565b60008151601414611e8757600080fd5b50602001516c01000000000000000000000000900490565b6040805160148082528183019092526060916020820181803683375050506c010000000000000000000000009290920260208301525090565b6000807f8c151f2b073b889ff2e1725375750783c091724f29d93246786f4cca8f047dbe80546040517f02571be3000000000000000000000000000000000000000000000000000000008152600481018690529192506000916001600160a01b03909116906302571be390602401602060405180830381865afa158015611f63573d6000803e3d6000fd5b505050506040513d601f19601f82011682018060405250810190611f879190612b2a565b60018301549091506001600160a01b039081169082160361202d5760018201546040517f6352211e000000000000000000000000000000000000000000000000000000008152600481018690526001600160a01b0390911690636352211e90602401602060405180830381865afa158015612006573d6000803e3d6000fd5b505050506040513d601f19601f8201168201806040525081019061202a9190612b2a565b90505b6001600160a01b03811633148061208657506001600160a01b03811660009081527f8c151f2b073b889ff2e1725375750783c091724f29d93246786f4cca8f047dc16020908152604080832033845290915290205460ff165b806120db57506001600160a01b03811660009081527f8c151f2b073b889ff2e1725375750783c091724f29d93246786f4cca8f047dc260209081526040808320878452825280832033845290915290205460ff165b949350505050565b6000815b835181106120f7576120f7612b47565b60006121038583612234565b60ff169050612113816001612b17565b61211d9083612b17565b91508060000361212d5750612133565b506120e7565b6120db83826127a8565b825160609061214c8385612b17565b111561215757600080fd5b60008267ffffffffffffffff811115612172576121726125e2565b6040519080825280601f01601f19166020018201604052801561219c576020820181803683370190505b509050602080820190868601016121b4828287612258565b509095945050505050565b60006121cc8484846122ae565b6121d78787856122ae565b149695505050505050565b81516000906121f2836002612b17565b11156121fd57600080fd5b50016002015161ffff1690565b815160009061221a836004612b17565b111561222557600080fd5b50016004015163ffffffff1690565b600082828151811061224857612248612969565b016020015160f81c905092915050565b60208110612290578151835261226f602084612b17565b925061227c602083612b17565b91506122896020826127a8565b9050612258565b905182516020929092036101000a6000190180199091169116179052565b82516000906122bd8385612b17565b11156122c857600080fd5b5091016020012090565b5080546122de906127cb565b6000825580601f106122ee575050565b601f01602090049060005260206000209081019061230c919061230f565b50565b5b808211156123245760008155600101612310565b5090565b80357fffffffff000000000000000000000000000000000000000000000000000000008116811461235857600080fd5b919050565b60006020828403121561236f57600080fd5b610e0a82612328565b60008083601f84011261238a57600080fd5b50813567ffffffffffffffff8111156123a257600080fd5b602083019150836020828501011115610c1a57600080fd5b6000806000604084860312156123cf57600080fd5b83359250602084013567ffffffffffffffff8111156123ed57600080fd5b6123f986828701612378565b9497909650939450505050565b60008060008060006060868803121561241e57600080fd5b85359450602086013567ffffffffffffffff8082111561243d57600080fd5b61244989838a01612378565b9096509450604088013591508082111561246257600080fd5b5061246f88828901612378565b969995985093965092949392505050565b6000806040838503121561249357600080fd5b823591506124a360208401612328565b90509250929050565b600080604083850312156124bf57600080fd5b50508035926020909101359150565b60005b838110156124e95781810151838201526020016124d1565b50506000910152565b6000815180845261250a8160208601602086016124ce565b601f01601f19169290920160200192915050565b8281526040602082015260006120db60408301846124f2565b60008060006060848603121561254c57600080fd5b505081359360208301359350604090920135919050565b60006020828403121561257557600080fd5b5035919050565b602081526000610e0a60208301846124f2565b600080600080606085870312156125a557600080fd5b8435935060208501359250604085013567ffffffffffffffff8111156125ca57600080fd5b6125d687828801612378565b95989497509550505050565b634e487b7160e01b600052604160045260246000fd5b60008060006060848603121561260d57600080fd5b8335925060208401359150604084013567ffffffffffffffff8082111561263357600080fd5b818601915086601f83011261264757600080fd5b813581811115612659576126596125e2565b604051601f8201601f19908116603f01168101908382118183101715612681576126816125e2565b8160405282815289602084870101111561269a57600080fd5b8260208601602083013760006020848301015280955050505050509250925092565b6000806000606084860312156126d157600080fd5b8335925060208401359150604084013561ffff811681146126f157600080fd5b809150509250925092565b6001600160a01b038116811461230c57600080fd5b6000806040838503121561272457600080fd5b823591506020830135612736816126fc565b809150509250929050565b60008060006060848603121561275657600080fd5b8335925061276660208501612328565b915060408401356126f1816126fc565b600082516127888184602087016124ce565b9190910192915050565b634e487b7160e01b600052601160045260246000fd5b818103818111156103d0576103d0612792565b8183823760009101908152919050565b600181811c908216806127df57607f821691505b6020821081036127ff57634e487b7160e01b600052602260045260246000fd5b50919050565b601f82111561178457600081815260208120601f850160051c8101602086101561282c5750805b601f850160051c820191505b8181101561144657828155600101612838565b67ffffffffffffffff831115612863576128636125e2565b6128778361287183546127cb565b83612805565b6000601f8411600181146128ab57600085156128935750838201355b600019600387901b1c1916600186901b178355612905565b600083815260209020601f19861690835b828110156128dc57868501358255602094850194600190920191016128bc565b50868210156128f95760001960f88860031b161c19848701351681555b505060018560011b0183555b5050505050565b818352818160208501375060006020828401015260006020601f19601f840116840101905092915050565b60408152600061294b60408301868861290c565b828103602084015261295e81858761290c565b979650505050505050565b634e487b7160e01b600052603260045260246000fd5b6020815260006120db60208301848661290c565b815167ffffffffffffffff8111156129ad576129ad6125e2565b6129c1816129bb84546127cb565b84612805565b602080601f8311600181146129f657600084156129de5750858301515b600019600386901b1c1916600185901b178555611446565b600085815260208120601f198616915b82811015612a2557888601518255948401946001909101908401612a06565b5085821015612a435787850151600019600388901b60f8161c191681555b5050505050600190811b01905550565b604081526000612a6660408301866124f2565b8281036020840152612a7981858761290c565b9695505050505050565b600061ffff821680612a9757612a97612792565b6000190192915050565b604081526000612ab460408301856124f2565b905061ffff831660208301529392505050565b600061ffff808316818103612ade57612ade612792565b6001019392505050565b606081526000612afb60608301866124f2565b61ffff851660208401528281036040840152612a7981856124f2565b808201808211156103d0576103d0612792565b600060208284031215612b3c57600080fd5b8151610e0a816126fc565b634e487b7160e01b600052600160045260246000fdfea26469706673582212203b3c86d42e0ef6cb7d53f155dfbadf288c83155f867e43d6184009dcc729571c64736f6c63430008110033",
  "devdoc": {
    "kind": "dev",
    "methods": {
      "ABI(bytes32,uint256)": {
        "params": {
          "contentTypes": "A bitwise OR of the ABI formats accepted by the caller.",
          "node": "The ENS node to query"
        },
        "returns": {
          "_0": "contentType The content type of the return value",
          "_1": "data The ABI data"
        }
      },
      "addr(bytes32)": {
        "params": {
          "node": "The ENS node to query."
        },
        "returns": {
          "_0": "The associated address."
        }
      },
      "contenthash(bytes32)": {
        "params": {
          "node": "The ENS node to query."
        },
        "returns": {
          "_0": "The associated contenthash."
        }
      },
      "dnsRecord(bytes32,bytes32,uint16)": {
        "params": {
          "name": "the keccak-256 hash of the fully-qualified name for which to fetch the record",
          "node": "the namehash of the node for which to fetch the record",
          "resource": "the ID of the resource as per https://en.wikipedia.org/wiki/List_of_DNS_record_types"
        },
        "returns": {
          "_0": "the DNS record in wire format if present, otherwise empty"
        }
      },
      "hasDNSRecords(bytes32,bytes32)": {
        "params": {
          "name": "the namehash of the node for which to check the records",
          "node": "the namehash of the node for which to check the records"
        }
      },
      "interfaceImplementer(bytes32,bytes4)": {
        "params": {
          "interfaceID": "The EIP 165 interface ID to check for.",
          "node": "The ENS node to query."
        },
        "returns": {
          "_0": "The address that implements this interface, or 0 if the interface is unsupported."
        }
      },
      "name(bytes32)": {
        "params": {
          "node": "The ENS node to query."
        },
        "returns": {
          "_0": "The associated name."
        }
      },
      "pubkey(bytes32)": {
        "params": {
          "node": "The ENS node to query"
        },
        "returns": {
          "x": "The X coordinate of the curve point for the public key.",
          "y": "The Y coordinate of the curve point for the public key."
        }
      },
      "setABI(bytes32,uint256,bytes)": {
        "params": {
          "contentType": "The content type of the ABI",
          "data": "The ABI data.",
          "node": "The node to update."
        }
      },
      "setAddr(bytes32,address)": {
        "params": {
          "a": "The address to set.",
          "node": "The node to update."
        }
      },
      "setContenthash(bytes32,bytes)": {
        "params": {
          "hash": "The contenthash to set",
          "node": "The node to update."
        }
      },
      "setDNSRecords(bytes32,bytes)": {
        "params": {
          "data": "the DNS wire format records to set",
          "node": "the namehash of the node for which to set the records"
        }
      },
      "setInterface(bytes32,bytes4,address)": {
        "params": {
          "implementer": "The address of a contract that implements this interface for this node.",
          "interfaceID": "The EIP 165 interface ID.",
          "node": "The node to update."
        }
      },
      "setName(bytes32,string)": {
        "params": {
          "node": "The node to update."
        }
      },
      "setPubkey(bytes32,bytes32,bytes32)": {
        "params": {
          "node": "The ENS node to query",
          "x": "the X coordinate of the curve point for the public key.",
          "y": "the Y coordinate of the curve point for the public key."
        }
      },
      "setText(bytes32,string,string)": {
        "params": {
          "key": "The key to set.",
          "node": "The node to update.",
          "value": "The text data value to set."
        }
      },
      "setZonehash(bytes32,bytes)": {
        "params": {
          "hash": "The zonehash to set",
          "node": "The node to update."
        }
      },
      "text(bytes32,string)": {
        "params": {
          "key": "The text data key to query.",
          "node": "The ENS node to query."
        },
        "returns": {
          "_0": "The associated text data."
        }
      },
      "zonehash(bytes32)": {
        "params": {
          "node": "The ENS node to query."
        },
        "returns": {
          "_0": "The associated contenthash."
        }
      }
    },
    "version": 1
  },
  "userdoc": {
    "kind": "user",
    "methods": {
      "ABI(bytes32,uint256)": {
        "notice": "Returns the ABI associated with an ENS node. Defined in EIP205."
      },
      "addr(bytes32)": {
        "notice": "Returns the address associated with an ENS node."
      },
      "contenthash(bytes32)": {
        "notice": "Returns the contenthash associated with an ENS node."
      },
      "dnsRecord(bytes32,bytes32,uint16)": {
        "notice": "Obtain a DNS record."
      },
      "hasDNSRecords(bytes32,bytes32)": {
        "notice": "Check if a given node has records."
      },
      "interfaceImplementer(bytes32,bytes4)": {
        "notice": "Returns the address of a contract that implements the specified interface for this name. If an implementer has not been set for this interfaceID and name, the resolver will query the contract at `addr()`. If `addr()` is set, a contract exists at that address, and that contract implements EIP165 and returns `true` for the specified interfaceID, its address will be returned."
      },
      "name(bytes32)": {
        "notice": "Returns the name associated with an ENS node, for reverse records. Defined in EIP181."
      },
      "pubkey(bytes32)": {
        "notice": "Returns the SECP256k1 public key associated with an ENS node. Defined in EIP 619."
      },
      "setABI(bytes32,uint256,bytes)": {
        "notice": "Sets the ABI associated with an ENS node. Nodes may have one ABI of each content type. To remove an ABI, set it to the empty string."
      },
      "setAddr(bytes32,address)": {
        "notice": "Sets the address associated with an ENS node. May only be called by the owner of that node in the ENS registry."
      },
      "setContenthash(bytes32,bytes)": {
        "notice": "Sets the contenthash associated with an ENS node. May only be called by the owner of that node in the ENS registry."
      },
      "setDNSRecords(bytes32,bytes)": {
        "notice": "Set one or more DNS records.  Records are supplied in wire-format. Records with the same node/name/resource must be supplied one after the other to ensure the data is updated correctly. For example, if the data was supplied:     a.example.com IN A 1.2.3.4     a.example.com IN A 5.6.7.8     www.example.com IN CNAME a.example.com. then this would store the two A records for a.example.com correctly as a single RRSET, however if the data was supplied:     a.example.com IN A 1.2.3.4     www.example.com IN CNAME a.example.com.     a.example.com IN A 5.6.7.8 then this would store the first A record, the CNAME, then the second A record which would overwrite the first."
      },
      "setInterface(bytes32,bytes4,address)": {
        "notice": "Sets an interface associated with a name. Setting the address to 0 restores the default behaviour of querying the contract at `addr()` for interface support."
      },
      "setName(bytes32,string)": {
        "notice": "Sets the name associated with an ENS node, for reverse records. May only be called by the owner of that node in the ENS registry."
      },
      "setPubkey(bytes32,bytes32,bytes32)": {
        "notice": "Sets the SECP256k1 public key associated with an ENS node."
      },
      "setText(bytes32,string,string)": {
        "notice": "Sets the text data associated with an ENS node and key. May only be called by the owner of that node in the ENS registry."
      },
      "setZonehash(bytes32,bytes)": {
        "notice": "setZonehash sets the hash for the zone. May only be called by the owner of that node in the ENS registry."
      },
      "text(bytes32,string)": {
        "notice": "Returns the text data associated with an ENS node and key."
      },
      "zonehash(bytes32)": {
        "notice": "zonehash obtains the hash for the zone."
      }
    },
    "version": 1
  },
  "storageLayout": {
    "storage": [],
    "types": null
  }
}