{
  "address": "0x0f91613cBB10137Adb4F41188aef15b2FBD8b1C1",
  "abi": [
    {
      "inputs": [],
      "name": "Unauthorised",
      "type": "error"
    },
    {
      "anonymous": false,
      "inputs": [
        {
          "indexed": true,
          "internalType": "bytes32",
          "name": "node",
          "type": "bytes32"
        },
        {
          "indexed": true,
          "internalType": "uint256",
          "name": "contentType",
          "type": "uint256"
        }
      ],
      "name": "ABIChanged",
      "type": "event"
    },
    {
      "anonymous": false,
      "inputs": [
        {
          "indexed": true,
          "internalType": "bytes32",
          "name": "node",
          "type": "bytes32"
        },
        {
          "indexed": false,
          "internalType": "address",
          "name": "a",
          "type": "address"
        }
      ],
      "name": "AddrChanged",
      "type": "event"
    },
    {
      "anonymous": false,
      "inputs": [
        {
          "indexed": true,
          "internalType": "bytes32",
          "name": "node",
          "type": "bytes32"
        },
        {
          "indexed": false,
          "internalType": "uint256",
          "name": "coinType",
          "type": "uint256"
        },
        {
          "indexed": false,
          "internalType": "bytes",
          "name": "newAddress",
          "type": "bytes"
        }
      ],
      "name": "AddressChanged",
      "type": "event"
    },
    {
      "anonymous": false,
      "inputs": [
        {
          "indexed": true,
          "internalType": "bytes32",
          "name": "node",
          "type": "bytes32"
        },
        {
          "indexed": false,
          "internalType": "bytes",
          "name": "hash",
          "type": "bytes"
        }
      ],
      "name": "ContenthashChanged",
      "type": "event"
    },
    {
      "anonymous": false,
      "inputs": [
        {
          "indexed": true,
          "internalType": "bytes32",
          "name": "node",
          "type": "bytes32"
        },
        {
          "indexed": false,
          "internalType": "bytes",
          "name": "name",
          "type": "bytes"
        },
        {
          "indexed": false,
          "internalType": "uint16",
          "name": "resource",
          "type": "uint16"
        },
        {
          "indexed": false,
          "internalType": "bytes",
          "name": "record",
          "type": "bytes"
        }
      ],
      "name": "DNSRecordChanged",
      "type": "event"
    },
    {
      "anonymous": false,
      "inputs": [
        {
          "indexed": true,
          "internalType": "bytes32",
          "name": "node",
          "type": "bytes32"
        },
        {
          "indexed": false,
          "internalType": "bytes",
          "name": "name",
          "type": "bytes"
        },
        {
          "indexed": false,
          "internalType": "uint16",
          "name": "resource",
          "type": "uint16"
        }
      ],
      "name": "DNSRecordDeleted",
      "type": "event"
    },
    {
      "anonymous": false,
      "inputs": [
        {
          "indexed": true,
          "internalType": "bytes32",
          "name": "node",
          "type": "bytes32"
        },
        {
          "indexed": false,
          "internalType": "bytes",
          "name": "lastzonehash",
          "type": "bytes"
        },
        {
          "indexed": false,
          "internalType": "bytes",
          "name": "zonehash",
          "type": "bytes"
        }
      ],
      "name": "DNSZonehashChanged",
      "type": "event"
    },
    {
      "anonymous": false,
      "inputs": [
        {
          "indexed": true,
          "internalType": "bytes32",
          "name": "node",
          "type": "bytes32"
        },
        {
          "indexed": true,
          "internalType": "bytes4",
          "name": "interfaceID",
          "type": "bytes4"
        },
        {
          "indexed": false,
          "internalType": "address",
          "name": "implementer",
          "type": "address"
        }
      ],
      "name": "InterfaceChanged",
      "type": "event"
    },
    {
      "anonymous": false,
      "inputs": [
        {
          "indexed": true,
          "internalType": "bytes32",
          "name": "node",
          "type": "bytes32"
        },
        {
          "indexed": false,
          "internalType": "string",
          "name": "name",
          "type": "string"
        }
      ],
      "name": "NameChanged",
      "type": "event"
    },
    {
      "anonymous": false,
      "inputs": [
        {
          "indexed": true,
          "internalType": "bytes32",
          "name": "node",
          "type": "bytes32"
        },
        {
          "indexed": false,
          "internalType": "bytes32",
          "name": "x",
          "type": "bytes32"
        },
        {
          "indexed": false,
          "internalType": "bytes32",
          "name": "y",
          "type": "bytes32"
        }
      ],
      "name": "PubkeyChanged",
      "type": "event"
    },
    {
      "anonymous": false,
      "inputs": [
        {
          "indexed": true,
          "internalType": "bytes32",
          "name": "node",
          "type": "bytes32"
        },
        {
          "indexed": true,
          "internalType": "string",
          "name": "indexedKey",
          "type": "string"
        },
        {
          "indexed": false,
          "internalType": "string",
          "name": "key",
          "type": "string"
        },
        {
          "indexed": false,
          "internalType": "string",
          "name": "value",
          "type": "string"
        }
      ],
      "name": "TextChanged",
      "type": "event"
    },
    {
      "anonymous": false,
      "inputs": [
        {
          "indexed": true,
          "internalType": "bytes32",
          "name": "node",
          "type": "bytes32"
        },
        {
          "indexed": false,
          "internalType": "uint64",
          "name": "newVersion",
          "type": "uint64"
        }
      ],
      "name": "VersionChanged",
      "type": "event"
    },
    {
      "inputs": [
        {
          "internalType": "bytes32",
          "name": "node",
          "type": "bytes32"
        },
        {
          "internalType": "uint256",
          "name": "contentTypes",
          "type": "uint256"
        }
      ],
      "name": "ABI",
      "outputs": [
        {
          "internalType": "uint256",
          "name": "",
          "type": "uint256"
        },
        {
          "internalType": "bytes",
          "name": "",
          "type": "bytes"
        }
      ],
      "stateMutability": "view",
      "type": "function"
    },
    {
      "inputs": [
        {
          "internalType": "bytes32",
          "name": "node",
          "type": "bytes32"
        }
      ],
      "name": "addr",
      "outputs": [
        {
          "internalType": "address payable",
          "name": "",
          "type": "address"
        }
      ],
      "stateMutability": "view",
      "type": "function"
    },
    {
      "inputs": [
        {
          "internalType": "bytes32",
          "name": "node",
          "type": "bytes32"
        },
        {
          "internalType": "uint256",
          "name": "coinType",
          "type": "uint256"
        }
      ],
      "name": "addr",
      "outputs": [
        {
          "internalType": "bytes",
          "name": "",
          "type": "bytes"
        }
      ],
      "stateMutability": "view",
      "type": "function"
    },
    {
      "inputs": [
        {
          "internalType": "bytes32",
          "name": "node",
          "type": "bytes32"
        }
      ],
      "name": "contenthash",
      "outputs": [
        {
          "internalType": "bytes",
          "name": "",
          "type": "bytes"
        }
      ],
      "stateMutability": "view",
      "type": "function"
    },
    {
      "inputs": [
        {
          "internalType": "bytes32",
          "name": "node",
          "type": "bytes32"
        },
        {
          "internalType": "bytes32",
          "name": "name",
          "type": "bytes32"
        },
        {
          "internalType": "uint16",
          "name": "resource",
          "type": "uint16"
        }
      ],
      "name": "dnsRecord",
      "outputs": [
        {
          "internalType": "bytes",
          "name": "",
          "type": "bytes"
        }
      ],
      "stateMutability": "view",
      "type": "function"
    },
    {
      "inputs": [
        {
          "internalType": "bytes32",
          "name": "node",
          "type": "bytes32"
        },
        {
          "internalType": "bytes32",
          "name": "name",
          "type": "bytes32"
        }
      ],
      "name": "hasDNSRecords",
      "outputs": [
        {
          "internalType": "bool",
          "name": "",
          "type": "bool"
        }
      ],
      "stateMutability": "view",
      "type": "function"
    },
    {
      "inputs": [
        {
          "internalType": "bytes32",
          "name": "node",
          "type": "bytes32"
        },
        {
          "internalType": "bytes4",
          "name": "interfaceID",
          "type": "bytes4"
        }
      ],
      "name": "interfaceImplementer",
      "outputs": [
        {
          "internalType": "address",
          "name": "",
          "type": "address"
        }
      ],
      "stateMutability": "view",
      "type": "function"
    },
    {
      "inputs": [
        {
          "internalType": "bytes32",
          "name": "node",
          "type": "bytes32"
        }
      ],
      "name": "name",
      "outputs": [
        {
          "internalType": "string",
          "name": "",
          "type": "string"
        }
      ],
      "stateMutability": "view",
      "type": "function"
    },
    {
      "inputs": [
        {
          "internalType": "bytes32",
          "name": "node",
          "type": "bytes32"
        }
      ],
      "name": "pubkey",
      "outputs": [
        {
          "internalType": "bytes32",
          "name": "x",
          "type": "bytes32"
        },
        {
          "internalType": "bytes32",
          "name": "y",
          "type": "bytes32"
        }
      ],
      "stateMutability": "view",
      "type": "function"
    },
    {
      "inputs": [
        {
          "internalType": "bytes",
          "name": "",
          "type": "bytes"
        },
        {
          "internalType": "bytes",
          "name": "data",
          "type": "bytes"
        }
      ],
      "name": "resolve",
      "outputs": [
        {
          "internalType": "bytes",
          "name": "",
          "type": "bytes"
        }
      ],
      "stateMutability": "view",
      "type": "function"
    },
    {
      "inputs": [
        {
          "internalType": "bytes32",
          "name": "node",
          "type": "bytes32"
        },
        {
          "internalType": "uint256",
          "name": "contentType",
          "type": "uint256"
        },
        {
          "internalType": "bytes",
          "name": "data",
          "type": "bytes"
        }
      ],
      "name": "setABI",
      "outputs": [],
      "stateMutability": "nonpayable",
      "type": "function"
    },
    {
      "inputs": [
        {
          "internalType": "bytes32",
          "name": "node",
          "type": "bytes32"
        },
        {
          "internalType": "uint256",
          "name": "coinType",
          "type": "uint256"
        },
        {
          "internalType": "bytes",
          "name": "a",
          "type": "bytes"
        }
      ],
      "name": "setAddr",
      "outputs": [],
      "stateMutability": "nonpayable",
      "type": "function"
    },
    {
      "inputs": [
        {
          "internalType": "bytes32",
          "name": "node",
          "type": "bytes32"
        },
        {
          "internalType": "address",
          "name": "a",
          "type": "address"
        }
      ],
      "name": "setAddr",
      "outputs": [],
      "stateMutability": "nonpayable",
      "type": "function"
    },
    {
      "inputs": [
        {
          "internalType": "bytes32",
          "name": "node",
          "type": "bytes32"
        },
        {
          "internalType": "bytes",
          "name": "hash",
          "type": "bytes"
        }
      ],
      "name": "setContenthash",
      "outputs": [],
      "stateMutability": "nonpayable",
      "type": "function"
    },
    {
      "inputs": [
        {
          "internalType": "bytes32",
          "name": "node",
          "type": "bytes32"
        },
        {
          "internalType": "bytes",
          "name": "data",
          "type": "bytes"
        }
      ],
      "name": "setDNSRecords",
      "outputs": [],
      "stateMutability": "nonpayable",
      "type": "function"
    },
    {
      "inputs": [
        {
          "internalType": "bytes32",
          "name": "node",
          "type": "bytes32"
        },
        {
          "internalType": "bytes4",
          "name": "interfaceID",
          "type": "bytes4"
        },
        {
          "internalType": "address",
          "name": "implementer",
          "type": "address"
        }
      ],
      "name": "setInterface",
      "outputs": [],
      "stateMutability": "nonpayable",
      "type": "function"
    },
    {
      "inputs": [
        {
          "internalType": "bytes32",
          "name": "node",
          "type": "bytes32"
        },
        {
          "internalType": "string",
          "name": "newName",
          "type": "string"
        }
      ],
      "name": "setName",
      "outputs": [],
      "stateMutability": "nonpayable",
      "type": "function"
    },
    {
      "inputs": [
        {
          "internalType": "bytes32",
          "name": "node",
          "type": "bytes32"
        },
        {
          "internalType": "bytes32",
          "name": "x",
          "type": "bytes32"
        },
        {
          "internalType": "bytes32",
          "name": "y",
          "type": "bytes32"
        }
      ],
      "name": "setPubkey",
      "outputs": [],
      "stateMutability": "nonpayable",
      "type": "function"
    },
    {
      "inputs": [
        {
          "internalType": "bytes32",
          "name": "node",
          "type": "bytes32"
        },
        {
          "internalType": "string",
          "name": "key",
          "type": "string"
        },
        {
          "internalType": "string",
          "name": "value",
          "type": "string"
        }
      ],
      "name": "setText",
      "outputs": [],
      "stateMutability": "nonpayable",
      "type": "function"
    },
    {
      "inputs": [
        {
          "internalType": "bytes32",
          "name": "node",
          "type": "bytes32"
        },
        {
          "internalType": "bytes",
          "name": "hash",
          "type": "bytes"
        }
      ],
      "name": "setZonehash",
      "outputs": [],
      "stateMutability": "nonpayable",
      "type": "function"
    },
    {
      "inputs": [
        {
          "internalType": "bytes4",
          "name": "interfaceID",
          "type": "bytes4"
        }
      ],
      "name": "supportsInterface",
      "outputs": [
        {
          "internalType": "bool",
          "name": "",
          "type": "bool"
        }
      ],
      "stateMutability": "view",
      "type": "function"
    },
    {
      "inputs": [
        {
          "internalType": "bytes32",
          "name": "node",
          "type": "bytes32"
        },
        {
          "internalType": "string",
          "name": "key",
          "type": "string"
        }
      ],
      "name": "text",
      "outputs": [
        {
          "internalType": "string",
          "name": "",
          "type": "string"
        }
      ],
      "stateMutability": "view",
      "type": "function"
    },
    {
      "inputs": [
        {
          "internalType": "bytes32",
          "name": "node",
          "type": "bytes32"
        }
      ],
      "name": "zonehash",
      "outputs": [
        {
          "internalType": "bytes",
          "name": "",
          "type": "bytes"
        }
      ],
      "stateMutability": "view",
      "type": "function"
    }
  ],
  "transactionHash": "0x973215780e23d1e217fe6ef7f70afbacfb3a74c0c9e50547599c0f50ff23b47e",
  "args": [],
  "numDeployments": 1,
  "solcInputHash": "016796894504856f5784c3456a738903",
  "bytecode": "0x608060405234801561001057600080fd5b50612731806100206000396000f3fe608060405234801561001057600080fd5b506004361061018d5760003560e01c8063623195b0116100e3578063bc1c58d11161008c578063d5fa2b0011610066578063d5fa2b001461036d578063e59d895d14610380578063f1cb7e061461039357600080fd5b8063bc1c58d11461031f578063c869023314610332578063ce3decdc1461035a57600080fd5b80638b95dd71116100bd5780638b95dd71146102e65780639061b923146102f9578063a8fa56821461030c57600080fd5b8063623195b0146102ad578063691f3431146102c057806377372213146102d357600080fd5b806329cd62ea116101455780634cbf6ba41161011f5780634cbf6ba41461026757806359d1d43c1461027a5780635c98042b1461029a57600080fd5b806329cd62ea1461022e578063304e6ade146102415780633b3b57de1461025457600080fd5b806310f13a8c1161017657806310f13a8c146101cf578063124a319c146101e25780632203ab561461020d57600080fd5b806301ffc9a7146101925780630af179d7146101ba575b600080fd5b6101a56101a0366004611f13565b6103a6565b60405190151581526020015b60405180910390f35b6101cd6101c8366004611f70565b6103f4565b005b6101cd6101dd366004611fbc565b6105f6565b6101f56101f0366004612036565b6106f1565b6040516001600160a01b0390911681526020016101b1565b61022061021b366004612062565b610a28565b6040516101b19291906120d4565b6101cd61023c3660046120ed565b610ac0565b6101cd61024f366004611f70565b610b9e565b6101f5610262366004612119565b610c80565b6101a5610275366004612062565b610cb2565b61028d610288366004611f70565b610d2d565b6040516101b19190612132565b61028d6102a8366004612119565b610da8565b6101cd6102bb366004612145565b610de1565b61028d6102ce366004612119565b610e91565b6101cd6102e1366004611f70565b610f07565b6101cd6102f436600461225d565b610f97565b61028d6103073660046122ad565b6110a2565b61028d61031a366004612324565b61111b565b61028d61032d366004612119565b611194565b610345610340366004612119565b6111cd565b604080519283526020830191909152016101b1565b6101cd610368366004611f70565b611251565b6101cd61037b366004612372565b61137f565b6101cd61038e3660046123a2565b6113ba565b61028d6103a1366004612062565b6114db565b60007f9061b923000000000000000000000000000000000000000000000000000000007fffffffff000000000000000000000000000000000000000000000000000000008316145b92915050565b826103fe8161151d565b61041b57604051636bd1573560e11b815260040160405180910390fd5b60008060608060008061046860008a8a8080601f01602080910402602001604051908101604052809392919081815260200183838082843760009201919091525092939250506116059050565b90505b80515160208201511015610591578561ffff166000036104d0578060400151955061049581611666565b9350836040516020016104a891906123d7565b6040516020818303038152906040528051906020012091506104c981611687565b9250610583565b60006104db82611666565b9050816040015161ffff168761ffff161415806104ff57506104fd85826116a3565b155b156105815761055a8b86898d8d8080601f016020809104026020016040519081016040528093929190818152602001838380828437600092019190915250505060208801518c9150610552908290612409565b8a51156116c1565b81604001519650816020015195508094508480519060200120925061057e82611687565b93505b505b61058c816119d1565b61046b565b508251156105eb576105eb8984878b8b8080601f0160208091040260200160405190810160405280939291908181526020018383808284376000920191909152508b92506105e391508290508e612409565b8851156116c1565b505050505050505050565b846106008161151d565b61061d57604051636bd1573560e11b815260040160405180910390fd5b610693867f016794c27a7bc87b9ba11223154f36ea2da05be1245901cdb6533ddd9a08dfcd87876040516020016106569392919061241c565b60405160208183030381529060405280519060200120858560405160200161067f929190612461565b604051602081830303815290604052611ab9565b84846040516106a3929190612475565b6040518091039020867f448bc014f1536726cf8d54ff3d6481ed3cbc683c2591ca204274009afa09b1a1878787876040516106e19493929190612485565b60405180910390a3505050505050565b600080610771847f96c3dbf1f1f627f064016f811c22431c91b1619f97a2123bc167da3ac07cc71d856040516020016107569291909182527fffffffff0000000000000000000000000000000000000000000000000000000016602082015260240190565b60405160208183030381529060405280519060200120611b27565b905060008151600014610797578180602001905181019061079291906124b7565b61079a565b60005b90506001600160a01b038116156107b45791506103ee9050565b60006107bf86610c80565b90506001600160a01b0381166107db57600093505050506103ee565b6040516301ffc9a760e01b602482015260009081906001600160a01b0384169060440160408051601f198184030181529181526020820180517bffffffffffffffffffffffffffffffffffffffffffffffffffffffff166301ffc9a760e01b1790525161084891906123d7565b600060405180830381855afa9150503d8060008114610883576040519150601f19603f3d011682016040523d82523d6000602084013e610888565b606091505b509150915081158061089b575060208151105b806108dd575080601f815181106108b4576108b46124d4565b01602001517fff0000000000000000000000000000000000000000000000000000000000000016155b156108f0576000955050505050506103ee565b6040517fffffffff00000000000000000000000000000000000000000000000000000000881660248201526001600160a01b0384169060440160408051601f198184030181529181526020820180517bffffffffffffffffffffffffffffffffffffffffffffffffffffffff166301ffc9a760e01b1790525161097391906123d7565b600060405180830381855afa9150503d80600081146109ae576040519150601f19603f3d011682016040523d82523d6000602084013e6109b3565b606091505b5090925090508115806109c7575060208151105b80610a09575080601f815181106109e0576109e06124d4565b01602001517fff0000000000000000000000000000000000000000000000000000000000000016155b15610a1c576000955050505050506103ee565b50909695505050505050565b6000606060015b838111610aa4576000610a78867f6a4a096f1774be4accfe06418db23a5e887c920869d344c9088ea4ea1a1b3f2484604051602001610756929190918252602082015260400190565b905081851615801590610a8c575060008151115b15610a9b579092509050610ab9565b5060011b610a2f565b50506040805160208101909152600080825291505b9250929050565b82610aca8161151d565b610ae757604051636bd1573560e11b815260040160405180910390fd5b610b5c847fcc61b6ef825193bd16d4a2f1cf8fbb7fa0192c69403e3b6249d8018c9bf5c7ea604051602001610b1e91815260200190565b60408051601f19818403018152828252805160209182012083830183528884529281018781528251918201899052519181019190915260600161067f565b604080518481526020810184905285917f1d6f5e03d3f63eb58751986629a5439baee5079ff04f345becb66e23eb154e4691015b60405180910390a250505050565b82610ba88161151d565b610bc557604051636bd1573560e11b815260040160405180910390fd5b610c4e847f35e96706ed5d38d64e1690653cc57ec215b3354630c0999d84ebf0d52f30d1d6604051602001610bfc91815260200190565b6040516020818303038152906040528051906020012085858080601f016020809104026020016040519081016040528093929190818152602001838380828437600092019190915250611ab992505050565b837fe379c1624ed7e714cc0937528a32359d69d5281337765313dba4e081b72d75788484604051610b90929190612461565b600080610c8e83603c6114db565b90508051600003610ca25750600092915050565b610cab81611bc0565b9392505050565b600080610cf5847f21d4d2d7b31e572a9fc952e73f5a1a75d8a0ad288b6aa1bd68bf7a38e14d9b7d85604051602001610756929190918252602082015260400190565b905060008151600014610d1b5781806020019051810190610d1691906124ea565b610d1e565b60005b61ffff16151595945050505050565b60606000610d6a857f016794c27a7bc87b9ba11223154f36ea2da05be1245901cdb6533ddd9a08dfcd86866040516020016107569392919061241c565b90508051600014610d8e5780806020019051810190610d899190612537565b610d9f565b604051806020016040528060008152505b95945050505050565b60606103ee827f1df0a574df13006e20055dbb658ad80aee42c7c456d7d8af67b5aaf2b0370d9860405160200161075691815260200190565b83610deb8161151d565b610e0857604051636bd1573560e11b815260040160405180910390fd5b83610e14600182612409565b1615610e1f57600080fd5b604080517f6a4a096f1774be4accfe06418db23a5e887c920869d344c9088ea4ea1a1b3f246020820152908101859052610e5d908690606001610bfc565b604051849086907faa121bbeef5f32f5961a2a28966e769023910fc9479059ee3495d4c1a696efe390600090a35050505050565b60606000610ecc837f244abc9682833fd47d797b2e4d36b69bf252ed8df0d2cc4e13d9c6c7ad57e7ac60405160200161075691815260200190565b90508051600014610ef05780806020019051810190610eeb9190612537565b610cab565b604051806020016040528060008152509392505050565b82610f118161151d565b610f2e57604051636bd1573560e11b815260040160405180910390fd5b610f65847f244abc9682833fd47d797b2e4d36b69bf252ed8df0d2cc4e13d9c6c7ad57e7ac60405160200161065691815260200190565b837fb7d29e911041e8d9b843369e890bcb72c9388692ba48b65ac54e7214c4c348f78484604051610b90929190612461565b82610fa18161151d565b610fbe57604051636bd1573560e11b815260040160405180910390fd5b837f65412581168e88a1e60c6459d7f44ae83ad0832e670826c05a4e2476b57af7528484604051610ff09291906120d4565b60405180910390a2603c830361104757837f52d7d861f09ab3d26239d492e8968629f95e9e318cf0b73bfddc441522a15fd261102b84611bc0565b6040516001600160a01b03909116815260200160405180910390a25b604080517fa230b12fb5970aa9a0381873d67058cd5def13d2a6ddfaac082174f482fbb349602082015290810184905261109c9085906060016040516020818303038152906040528051906020012084611ab9565b50505050565b6060600080306001600160a01b0316846040516110bf91906123d7565b600060405180830381855afa9150503d80600081146110fa576040519150601f19603f3d011682016040523d82523d6000602084013e6110ff565b606091505b509150915081156111135791506103ee9050565b805160208201fd5b606061118c847fcbd4605c11ea5fd7c1917866313c54b44712fd7210281c653de9974ed15c106a858560405160200161075693929190928352602083019190915260f01b7fffff00000000000000000000000000000000000000000000000000000000000016604082015260420190565b949350505050565b60606103ee827f35e96706ed5d38d64e1690653cc57ec215b3354630c0999d84ebf0d52f30d1d660405160200161075691815260200190565b6000806000611209847fcc61b6ef825193bd16d4a2f1cf8fbb7fa0192c69403e3b6249d8018c9bf5c7ea60405160200161075691815260200190565b604080518082019091526000808252602082015290915081511561123e578180602001905181019061123b9190612580565b90505b8051602090910151909590945092505050565b8261125b8161151d565b61127857604051636bd1573560e11b815260040160405180910390fd5b60006112b1857f1df0a574df13006e20055dbb658ad80aee42c7c456d7d8af67b5aaf2b0370d9860405160200161075691815260200190565b905061133c857f1df0a574df13006e20055dbb658ad80aee42c7c456d7d8af67b5aaf2b0370d986040516020016112ea91815260200190565b6040516020818303038152906040528051906020012086868080601f016020809104026020016040519081016040528093929190818152602001838380828437600092019190915250611ab992505050565b847f8f15ed4b723ef428f250961da8315675b507046737e19319fc1a4d81bfe87f85828686604051611370939291906125cf565b60405180910390a25050505050565b816113898161151d565b6113a657604051636bd1573560e11b815260040160405180910390fd5b6113b583603c6102f485611be8565b505050565b826113c48161151d565b6113e157604051636bd1573560e11b815260040160405180910390fd5b611473847f96c3dbf1f1f627f064016f811c22431c91b1619f97a2123bc167da3ac07cc71d856040516020016114439291909182527fffffffff0000000000000000000000000000000000000000000000000000000016602082015260240190565b60408051601f1981840301815282825280516020918201206001600160a01b03881691840191909152910161067f565b6040516001600160a01b03831681527fffffffff0000000000000000000000000000000000000000000000000000000084169085907f7c69f06bea0bdef565b709e93a147836b0063ba2dd89f02d0b7e8d931e6a6daa9060200160405180910390a350505050565b6060610cab837fa230b12fb5970aa9a0381873d67058cd5def13d2a6ddfaac082174f482fbb34984604051602001610756929190918252602082015260400190565b60408051336024820152604480820184905282518083039091018152606490910182526020810180517bffffffffffffffffffffffffffffffffffffffffffffffffffffffff167f25f3670400000000000000000000000000000000000000000000000000000000179052905160009182918291309161159d91906123d7565b600060405180830381855afa9150503d80600081146115d8576040519150601f19603f3d011682016040523d82523d6000602084013e6115dd565b606091505b5091509150816115f1575060009392505050565b8080602001905181019061118c91906125ff565b6116536040518060e001604052806060815260200160008152602001600061ffff168152602001600061ffff168152602001600063ffffffff16815260200160008152602001600081525090565b82815260c081018290526103ee816119d1565b602081015181516060916103ee9161167e9082611c21565b84519190611c7b565b60a081015160c08201516060916103ee9161167e908290612409565b600081518351148015610cab5750610cab8360008460008751611cfd565b8551602087012060006116d5868686611c7b565b905060006116e48a848a61111b565b905060006117288b7f21d4d2d7b31e572a9fc952e73f5a1a75d8a0ad288b6aa1bd68bf7a38e14d9b7d86604051602001610756929190918252602082015260400190565b90506000815160001461174e578180602001905181019061174991906124ea565b611751565b60005b905085156118a0578251156117d157604080517f21d4d2d7b31e572a9fc952e73f5a1a75d8a0ad288b6aa1bd68bf7a38e14d9b7d60208201529081018690526117d1908d90606001604051602081830303815290604052805190602001206001846117bc9190612621565b6040805161ffff90921660208301520161067f565b604080517fcbd4605c11ea5fd7c1917866313c54b44712fd7210281c653de9974ed15c106a60208201529081018690527fffff00000000000000000000000000000000000000000000000000000000000060f08c901b166060820152611861908d906062016040516020818303038152906040528051906020012060405180602001604052806000815250611ab9565b8b7f03528ed0c2a3ebc993b12ce3c16bb382f9c7d88ef7d8a1bf290eaf35955a12078c8c604051611893929190612643565b60405180910390a26119c3565b825160000361190557604080517f21d4d2d7b31e572a9fc952e73f5a1a75d8a0ad288b6aa1bd68bf7a38e14d9b7d6020820152908101869052611905908d90606001604051602081830303815290604052805190602001208360016117bc9190612669565b604080517fcbd4605c11ea5fd7c1917866313c54b44712fd7210281c653de9974ed15c106a60208201529081018690527fffff00000000000000000000000000000000000000000000000000000000000060f08c901b166060820152611986908d906062016040516020818303038152906040528051906020012086611ab9565b8b7f52a608b3303a48862d07a73d82fa221318c0027fbbcfb1b2329bface3f19ff2b8c8c876040516119ba93929190612684565b60405180910390a25b505050505050505050505050565b60c081015160208201819052815151116119e85750565b60006119fc82600001518360200151611c21565b8260200151611a0b91906126b3565b8251909150611a1a9082611d20565b61ffff166040830152611a2e6002826126b3565b8251909150611a3d9082611d20565b61ffff166060830152611a516002826126b3565b8251909150611a609082611d48565b63ffffffff166080830152611a766004826126b3565b8251909150600090611a889083611d20565b61ffff169050611a996002836126b3565b60a084018190529150611aac81836126b3565b60c0909301929092525050565b611ac1611d72565b6001600160a01b0316633e57d2698484846040518463ffffffff1660e01b8152600401611af0939291906126c6565b600060405180830381600087803b158015611b0a57600080fd5b505af1158015611b1e573d6000803e3d6000fd5b50505050505050565b6060611b31611d72565b6040517f6f7f26f000000000000000000000000000000000000000000000000000000000815260048101859052602481018490526001600160a01b039190911690636f7f26f090604401600060405180830381865afa158015611b98573d6000803e3d6000fd5b505050506040513d6000823e601f3d908101601f19168201604052610cab9190810190612537565b60008151601414611bd057600080fd5b50602001516c01000000000000000000000000900490565b6040805160148082528183019092526060916020820181803683375050506c010000000000000000000000009290920260208301525090565b6000815b83518110611c3557611c356126e5565b6000611c418583611de2565b60ff169050611c518160016126b3565b611c5b90836126b3565b915080600003611c6b5750611c71565b50611c25565b61118c8382612409565b8251606090611c8a83856126b3565b1115611c9557600080fd5b60008267ffffffffffffffff811115611cb057611cb0612198565b6040519080825280601f01601f191660200182016040528015611cda576020820181803683370190505b50905060208082019086860101611cf2828287611e06565b509095945050505050565b6000611d0a848484611e7a565b611d15878785611e7a565b149695505050505050565b8151600090611d308360026126b3565b1115611d3b57600080fd5b50016002015161ffff1690565b8151600090611d588360046126b3565b1115611d6357600080fd5b50016004015163ffffffff1690565b6000611d7c611e9e565b6001600160a01b0316635ea1d46a6040518163ffffffff1660e01b8152600401602060405180830381865afa158015611db9573d6000803e3d6000fd5b505050506040513d601f19601f82011682018060405250810190611ddd91906124b7565b905090565b6000828281518110611df657611df66124d4565b016020015160f81c905092915050565b60208110611e3e5781518352611e1d6020846126b3565b9250611e2a6020836126b3565b9150611e37602082612409565b9050611e06565b905182516020929092036101000a7fffffffffffffffffffffffffffffffffffffffffffffffffffffffffffffffff0180199091169116179052565b8251600090611e8983856126b3565b1115611e9457600080fd5b5091016020012090565b6000306001600160a01b0316637b1039996040518163ffffffff1660e01b8152600401602060405180830381865afa158015611db9573d6000803e3d6000fd5b80357fffffffff0000000000000000000000000000000000000000000000000000000081168114611f0e57600080fd5b919050565b600060208284031215611f2557600080fd5b610cab82611ede565b60008083601f840112611f4057600080fd5b50813567ffffffffffffffff811115611f5857600080fd5b602083019150836020828501011115610ab957600080fd5b600080600060408486031215611f8557600080fd5b83359250602084013567ffffffffffffffff811115611fa357600080fd5b611faf86828701611f2e565b9497909650939450505050565b600080600080600060608688031215611fd457600080fd5b85359450602086013567ffffffffffffffff80821115611ff357600080fd5b611fff89838a01611f2e565b9096509450604088013591508082111561201857600080fd5b5061202588828901611f2e565b969995985093965092949392505050565b6000806040838503121561204957600080fd5b8235915061205960208401611ede565b90509250929050565b6000806040838503121561207557600080fd5b50508035926020909101359150565b60005b8381101561209f578181015183820152602001612087565b50506000910152565b600081518084526120c0816020860160208601612084565b601f01601f19169290920160200192915050565b82815260406020820152600061118c60408301846120a8565b60008060006060848603121561210257600080fd5b505081359360208301359350604090920135919050565b60006020828403121561212b57600080fd5b5035919050565b602081526000610cab60208301846120a8565b6000806000806060858703121561215b57600080fd5b8435935060208501359250604085013567ffffffffffffffff81111561218057600080fd5b61218c87828801611f2e565b95989497509550505050565b634e487b7160e01b600052604160045260246000fd5b604051601f8201601f1916810167ffffffffffffffff811182821017156121d7576121d7612198565b604052919050565b600067ffffffffffffffff8211156121f9576121f9612198565b50601f01601f191660200190565b600082601f83011261221857600080fd5b813561222b612226826121df565b6121ae565b81815284602083860101111561224057600080fd5b816020850160208301376000918101602001919091529392505050565b60008060006060848603121561227257600080fd5b8335925060208401359150604084013567ffffffffffffffff81111561229757600080fd5b6122a386828701612207565b9150509250925092565b600080604083850312156122c057600080fd5b823567ffffffffffffffff808211156122d857600080fd5b6122e486838701612207565b935060208501359150808211156122fa57600080fd5b5061230785828601612207565b9150509250929050565b61ffff8116811461232157600080fd5b50565b60008060006060848603121561233957600080fd5b8335925060208401359150604084013561235281612311565b809150509250925092565b6001600160a01b038116811461232157600080fd5b6000806040838503121561238557600080fd5b8235915060208301356123978161235d565b809150509250929050565b6000806000606084860312156123b757600080fd5b833592506123c760208501611ede565b915060408401356123528161235d565b600082516123e9818460208701612084565b9190910192915050565b634e487b7160e01b600052601160045260246000fd5b818103818111156103ee576103ee6123f3565b838152818360208301376000910160200190815292915050565b818352818160208501375060006020828401015260006020601f19601f840116840101905092915050565b60208152600061118c602083018486612436565b8183823760009101908152919050565b604081526000612499604083018688612436565b82810360208401526124ac818587612436565b979650505050505050565b6000602082840312156124c957600080fd5b8151610cab8161235d565b634e487b7160e01b600052603260045260246000fd5b6000602082840312156124fc57600080fd5b8151610cab81612311565b6000612515612226846121df565b905082815283838301111561252957600080fd5b610cab836020830184612084565b60006020828403121561254957600080fd5b815167ffffffffffffffff81111561256057600080fd5b8201601f8101841361257157600080fd5b61118c84825160208401612507565b60006040828403121561259257600080fd5b6040516040810181811067ffffffffffffffff821117156125b5576125b5612198565b604052825181526020928301519281019290925250919050565b6040815260006125e260408301866120a8565b82810360208401526125f5818587612436565b9695505050505050565b60006020828403121561261157600080fd5b81518015158114610cab57600080fd5b61ffff82811682821603908082111561263c5761263c6123f3565b5092915050565b60408152600061265660408301856120a8565b905061ffff831660208301529392505050565b61ffff81811683821601908082111561263c5761263c6123f3565b60608152600061269760608301866120a8565b61ffff8516602084015282810360408401526125f581856120a8565b808201808211156103ee576103ee6123f3565b838152826020820152606060408201526000610d9f60608301846120a8565b634e487b7160e01b600052600160045260246000fdfea2646970667358221220bf5074d2372b88c035cacd688517c01a427f0a8981c563cfb5e8e87e17a64afd64736f6c63430008110033",
  "devdoc": {
    "kind": "dev",
    "methods": {
      "ABI(bytes32,uint256)": {
        "params": {
          "contentTypes": "A bitwise OR of the ABI formats accepted by the caller.",
          "node": "The ENS node to query"
        },
        "returns": {
          "_0": "contentType The content type of the return value",
          "_1": "data The ABI data"
        }
      },
      "addr(bytes32)": {
        "params": {
          "node": "The ENS node to query."
        },
        "returns": {
          "_0": "The associated address."
        }
      },
      "contenthash(bytes32)": {
        "params": {
          "node": "The ENS node to query."
        },
        "returns": {
          "_0": "The associated contenthash."
        }
      },
      "dnsRecord(bytes32,bytes32,uint16)": {
        "params": {
          "name": "the keccak-256 hash of the fully-qualified name for which to fetch the record",
          "node": "the namehash of the node for which to fetch the record",
          "resource": "the ID of the resource as per https://en.wikipedia.org/wiki/List_of_DNS_record_types"
        },
        "returns": {
          "_0": "the DNS record in wire format if present, otherwise empty"
        }
      },
      "hasDNSRecords(bytes32,bytes32)": {
        "params": {
          "name": "the namehash of the node for which to check the records",
          "node": "the namehash of the node for which to check the records"
        }
      },
      "interfaceImplementer(bytes32,bytes4)": {
        "params": {
          "interfaceID": "The EIP 165 interface ID to check for.",
          "node": "The ENS node to query."
        },
        "returns": {
          "_0": "The address that implements this interface, or 0 if the interface is unsupported."
        }
      },
      "name(bytes32)": {
        "params": {
          "node": "The ENS node to query."
        },
        "returns": {
          "_0": "The associated name."
        }
      },
      "pubkey(bytes32)": {
        "params": {
          "node": "The ENS node to query"
        },
        "returns": {
          "x": "The X coordinate of the curve point for the public key.",
          "y": "The Y coordinate of the curve point for the public key."
        }
      },
      "setABI(bytes32,uint256,bytes)": {
        "params": {
          "contentType": "The content type of the ABI",
          "data": "The ABI data.",
          "node": "The node to update."
        }
      },
      "setAddr(bytes32,address)": {
        "params": {
          "a": "The address to set.",
          "node": "The node to update."
        }
      },
      "setContenthash(bytes32,bytes)": {
        "params": {
          "hash": "The contenthash to set",
          "node": "The node to update."
        }
      },
      "setDNSRecords(bytes32,bytes)": {
        "params": {
          "data": "the DNS wire format records to set",
          "node": "the namehash of the node for which to set the records"
        }
      },
      "setInterface(bytes32,bytes4,address)": {
        "params": {
          "implementer": "The address of a contract that implements this interface for this node.",
          "interfaceID": "The EIP 165 interface ID.",
          "node": "The node to update."
        }
      },
      "setName(bytes32,string)": {
        "params": {
          "node": "The node to update."
        }
      },
      "setPubkey(bytes32,bytes32,bytes32)": {
        "params": {
          "node": "The ENS node to query",
          "x": "the X coordinate of the curve point for the public key.",
          "y": "the Y coordinate of the curve point for the public key."
        }
      },
      "setText(bytes32,string,string)": {
        "params": {
          "key": "The key to set.",
          "node": "The node to update.",
          "value": "The text data value to set."
        }
      },
      "setZonehash(bytes32,bytes)": {
        "params": {
          "hash": "The zonehash to set",
          "node": "The node to update."
        }
      },
      "text(bytes32,string)": {
        "params": {
          "key": "The text data key to query.",
          "node": "The ENS node to query."
        },
        "returns": {
          "_0": "The associated text data."
        }
      },
      "zonehash(bytes32)": {
        "params": {
          "node": "The ENS node to query."
        },
        "returns": {
          "_0": "The associated contenthash."
        }
      }
    },
    "version": 1
  },
  "userdoc": {
    "kind": "user",
    "methods": {
      "ABI(bytes32,uint256)": {
        "notice": "Returns the ABI associated with an ENS node. Defined in EIP205."
      },
      "addr(bytes32)": {
        "notice": "Returns the address associated with an ENS node."
      },
      "contenthash(bytes32)": {
        "notice": "Returns the contenthash associated with an ENS node."
      },
      "dnsRecord(bytes32,bytes32,uint16)": {
        "notice": "Obtain a DNS record."
      },
      "hasDNSRecords(bytes32,bytes32)": {
        "notice": "Check if a given node has records."
      },
      "interfaceImplementer(bytes32,bytes4)": {
        "notice": "Returns the address of a contract that implements the specified interface for this name. If an implementer has not been set for this interfaceID and name, the resolver will query the contract at `addr()`. If `addr()` is set, a contract exists at that address, and that contract implements EIP165 and returns `true` for the specified interfaceID, its address will be returned."
      },
      "name(bytes32)": {
        "notice": "Returns the name associated with an ENS node, for reverse records. Defined in EIP181."
      },
      "pubkey(bytes32)": {
        "notice": "Returns the SECP256k1 public key associated with an ENS node. Defined in EIP 619."
      },
      "setABI(bytes32,uint256,bytes)": {
        "notice": "Sets the ABI associated with an ENS node. Nodes may have one ABI of each content type. To remove an ABI, set it to the empty string."
      },
      "setAddr(bytes32,address)": {
        "notice": "Sets the address associated with an ENS node. May only be called by the owner of that node in the ENS registry."
      },
      "setContenthash(bytes32,bytes)": {
        "notice": "Sets the contenthash associated with an ENS node. May only be called by the owner of that node in the ENS registry."
      },
      "setDNSRecords(bytes32,bytes)": {
        "notice": "Set one or more DNS records.  Records are supplied in wire-format. Records with the same node/name/resource must be supplied one after the other to ensure the data is updated correctly. For example, if the data was supplied:     a.example.com IN A 1.2.3.4     a.example.com IN A 5.6.7.8     www.example.com IN CNAME a.example.com. then this would store the two A records for a.example.com correctly as a single RRSET, however if the data was supplied:     a.example.com IN A 1.2.3.4     www.example.com IN CNAME a.example.com.     a.example.com IN A 5.6.7.8 then this would store the first A record, the CNAME, then the second A record which would overwrite the first."
      },
      "setInterface(bytes32,bytes4,address)": {
        "notice": "Sets an interface associated with a name. Setting the address to 0 restores the default behaviour of querying the contract at `addr()` for interface support."
      },
      "setName(bytes32,string)": {
        "notice": "Sets the name associated with an ENS node, for reverse records. May only be called by the owner of that node in the ENS registry."
      },
      "setPubkey(bytes32,bytes32,bytes32)": {
        "notice": "Sets the SECP256k1 public key associated with an ENS node."
      },
      "setText(bytes32,string,string)": {
        "notice": "Sets the text data associated with an ENS node and key. May only be called by the owner of that node in the ENS registry."
      },
      "setZonehash(bytes32,bytes)": {
        "notice": "setZonehash sets the hash for the zone. May only be called by the owner of that node in the ENS registry."
      },
      "text(bytes32,string)": {
        "notice": "Returns the text data associated with an ENS node and key."
      },
      "zonehash(bytes32)": {
        "notice": "zonehash obtains the hash for the zone."
      }
    },
    "version": 1
  },
  "storageLayout": {
    "storage": [],
    "types": null
  }
}