{
  "address": "0xF66DD5fD74eFe262eE3D97AF394a2CF8b44a9892",
  "abi": [
    {
      "inputs": [],
      "name": "Ownable__NotOwner",
      "type": "error"
    },
    {
      "inputs": [],
      "name": "Unauthorised",
      "type": "error"
    },
    {
      "anonymous": false,
      "inputs": [
        {
          "indexed": true,
          "internalType": "address",
          "name": "owner",
          "type": "address"
        },
        {
          "indexed": true,
          "internalType": "address",
          "name": "operator",
          "type": "address"
        },
        {
          "indexed": false,
          "internalType": "bool",
          "name": "approved",
          "type": "bool"
        }
      ],
      "name": "ApprovalForAll",
      "type": "event"
    },
    {
      "anonymous": false,
      "inputs": [
        {
          "indexed": false,
          "internalType": "address",
          "name": "owner",
          "type": "address"
        },
        {
          "indexed": true,
          "internalType": "bytes32",
          "name": "node",
          "type": "bytes32"
        },
        {
          "indexed": true,
          "internalType": "address",
          "name": "delegate",
          "type": "address"
        },
        {
          "indexed": true,
          "internalType": "bool",
          "name": "approved",
          "type": "bool"
        }
      ],
      "name": "Approved",
      "type": "event"
    },
    {
      "anonymous": false,
      "inputs": [
        {
          "indexed": true,
          "internalType": "address",
          "name": "nameWrapper",
          "type": "address"
        }
      ],
      "name": "SetNameWrapper",
      "type": "event"
    },
    {
      "anonymous": false,
      "inputs": [
        {
          "indexed": true,
          "internalType": "address",
          "name": "operator",
          "type": "address"
        },
        {
          "indexed": false,
          "internalType": "bool",
          "name": "approved",
          "type": "bool"
        }
      ],
      "name": "SetWhitelisted",
      "type": "event"
    },
    {
      "anonymous": false,
      "inputs": [
        {
          "indexed": true,
          "internalType": "bytes32",
          "name": "node",
          "type": "bytes32"
        },
        {
          "indexed": false,
          "internalType": "uint64",
          "name": "newVersion",
          "type": "uint64"
        }
      ],
      "name": "VersionChanged",
      "type": "event"
    },
    {
      "inputs": [
        {
          "internalType": "address",
          "name": "sender",
          "type": "address"
        },
        {
          "internalType": "bytes32",
          "name": "node",
          "type": "bytes32"
        }
      ],
      "name": "isAuthorised",
      "outputs": [
        {
          "internalType": "bool",
          "name": "",
          "type": "bool"
        }
      ],
      "stateMutability": "view",
      "type": "function"
    },
    {
      "inputs": [
        {
          "internalType": "address",
          "name": "operator",
          "type": "address"
        },
        {
          "internalType": "bool",
          "name": "approved",
          "type": "bool"
        }
      ],
      "name": "setWhitelisted",
      "outputs": [],
      "stateMutability": "nonpayable",
      "type": "function"
    }
  ],
  "transactionHash": "0x3e1e6d0b94acdfd1b66f26ad5e3ca109f0287ed7e698ad01a5384b6d6773aedd",
  "args": [],
  "numDeployments": 1,
  "solcInputHash": "78b35c2b1a9f0bafe48cd84ae3cc6b08",
  "bytecode": "0x608060405234801561001057600080fd5b50610550806100206000396000f3fe608060405234801561001057600080fd5b50600436106100365760003560e01c806325f367041461003b5780639281aa0b14610062575b600080fd5b61004e610049366004610493565b610077565b604051901515815260200160405180910390f35b6100756100703660046104bf565b6100d9565b005b600061008383836101fa565b806100d2575073ffffffffffffffffffffffffffffffffffffffff831660009081527f378200da64021ea95e57f25539bdb5dedb78afa36a3f553f54a02f28ced4961a602052604090205460ff165b9392505050565b7f8a22373512790c48b83a1fe2efdd2888d4a917bcdc24d0adf63e60f6716804605473ffffffffffffffffffffffffffffffffffffffff163314610149576040517f2f7a8ee100000000000000000000000000000000000000000000000000000000815260040160405180910390fd5b60007f378200da64021ea95e57f25539bdb5dedb78afa36a3f553f54a02f28ced4961a73ffffffffffffffffffffffffffffffffffffffff84166000818152602083815260409182902080547fffffffffffffffffffffffffffffffffffffffffffffffffffffffffffffff0016871515908117909155915191825292935090917f26742d25b283cf51a0e3c4183d934871ed96d1bd33cf40706f87a94f29f686ac910160405180910390a2505050565b6000807f8c151f2b073b889ff2e1725375750783c091724f29d93246786f4cca8f047dbe80546040517f02571be30000000000000000000000000000000000000000000000000000000081526004810186905291925060009173ffffffffffffffffffffffffffffffffffffffff909116906302571be390602401602060405180830381865afa158015610292573d6000803e3d6000fd5b505050506040513d601f19601f820116820180604052508101906102b691906104fd565b600183015490915073ffffffffffffffffffffffffffffffffffffffff908116908216036103765760018201546040517f6352211e0000000000000000000000000000000000000000000000000000000081526004810186905273ffffffffffffffffffffffffffffffffffffffff90911690636352211e90602401602060405180830381865afa15801561034f573d6000803e3d6000fd5b505050506040513d601f19601f8201168201806040525081019061037391906104fd565b90505b8473ffffffffffffffffffffffffffffffffffffffff168173ffffffffffffffffffffffffffffffffffffffff161480610401575073ffffffffffffffffffffffffffffffffffffffff80821660009081527f8c151f2b073b889ff2e1725375750783c091724f29d93246786f4cca8f047dc0602090815260408083209389168352929052205460ff165b80610465575073ffffffffffffffffffffffffffffffffffffffff80821660009081527f8c151f2b073b889ff2e1725375750783c091724f29d93246786f4cca8f047dc16020908152604080832088845282528083209389168352929052205460ff165b95945050505050565b73ffffffffffffffffffffffffffffffffffffffff8116811461049057600080fd5b50565b600080604083850312156104a657600080fd5b82356104b18161046e565b946020939093013593505050565b600080604083850312156104d257600080fd5b82356104dd8161046e565b9150602083013580151581146104f257600080fd5b809150509250929050565b60006020828403121561050f57600080fd5b81516100d28161046e56fea26469706673582212204f351c7585bb937333e5207956e3e326ebb4f07543368613d8d6162b91e78be664736f6c63430008110033",
  "devdoc": {
    "kind": "dev",
    "methods": {},
    "version": 1
  },
  "userdoc": {
    "kind": "user",
    "methods": {},
    "version": 1
  },
  "storageLayout": {
    "storage": [],
    "types": null
  }
}